{
  "contractName": "AccessControl",
  "abi": [
    {
      "constant": true,
      "inputs": [],
      "name": "SHIPPER_ROLE",
      "outputs": [
        {
          "name": "",
          "type": "bytes32"
        }
      ],
      "payable": false,
      "stateMutability": "view",
      "type": "function"
    },
    {
      "constant": true,
      "inputs": [],
      "name": "ORDER_OF_ROLE",
      "outputs": [
        {
          "name": "",
          "type": "bytes32"
        }
      ],
      "payable": false,
      "stateMutability": "view",
      "type": "function"
    },
    {
      "constant": true,
      "inputs": [],
      "name": "BUYER_ROLE",
      "outputs": [
        {
          "name": "",
          "type": "bytes32"
        }
      ],
      "payable": false,
      "stateMutability": "view",
      "type": "function"
    },
    {
      "constant": true,
      "inputs": [],
      "name": "BEEKEEPER_ROLE",
      "outputs": [
        {
          "name": "",
          "type": "bytes32"
        }
      ],
      "payable": false,
      "stateMutability": "view",
      "type": "function"
    },
    {
      "constant": true,
      "inputs": [],
      "name": "HARVESTER_OF_ROLE",
      "outputs": [
        {
          "name": "",
          "type": "bytes32"
        }
      ],
      "payable": false,
      "stateMutability": "view",
      "type": "function"
    },
    {
      "constant": true,
      "inputs": [],
      "name": "BUYER_OF_ROLE",
      "outputs": [
        {
          "name": "",
          "type": "bytes32"
        }
      ],
      "payable": false,
      "stateMutability": "view",
      "type": "function"
    },
    {
      "constant": true,
      "inputs": [],
      "name": "RECIEVER_OF_ROLE",
      "outputs": [
        {
          "name": "",
          "type": "bytes32"
        }
      ],
      "payable": false,
      "stateMutability": "view",
      "type": "function"
    },
    {
      "constant": true,
      "inputs": [],
      "name": "HARVEST_ROLE",
      "outputs": [
        {
          "name": "",
          "type": "bytes32"
        }
      ],
      "payable": false,
      "stateMutability": "view",
      "type": "function"
    },
    {
      "constant": true,
      "inputs": [],
      "name": "SHIPPER_OF_ROLE",
      "outputs": [
        {
          "name": "",
          "type": "bytes32"
        }
      ],
      "payable": false,
      "stateMutability": "view",
      "type": "function"
    },
    {
      "inputs": [],
      "payable": false,
      "stateMutability": "nonpayable",
      "type": "constructor"
    }
  ],
  "bytecode": "0x608060405234801561001057600080fd5b5061005e60405180807f484152564553545f524f4c450000000000000000000000000000000000000000815250600c01905060405180910390206102cb640100000000026401000000009004565b6100ab60405180807f42555945525f524f4c4500000000000000000000000000000000000000000000815250600a01905060405180910390206102cb640100000000026401000000009004565b6100f860405180807f534849505045525f524f4c450000000000000000000000000000000000000000815250600c01905060405180910390206102cb640100000000026401000000009004565b61014560405180807f4245454b45455045525f524f4c45000000000000000000000000000000000000815250600e01905060405180910390206102cb640100000000026401000000009004565b61019260405180807f484152564553545f4f465f524f4c450000000000000000000000000000000000815250600f01905060405180910390206102cb640100000000026401000000009004565b6101df60405180807f4f524445525f4f465f524f4c4500000000000000000000000000000000000000815250600d01905060405180910390206102cb640100000000026401000000009004565b61022c60405180807f42555945525f4f465f524f4c4500000000000000000000000000000000000000815250600d01905060405180910390206102cb640100000000026401000000009004565b61027960405180807f534849505045525f4f465f524f4c450000000000000000000000000000000000815250600f01905060405180910390206102cb640100000000026401000000009004565b6102c660405180807f52454349455645525f4f465f524f4c4500000000000000000000000000000000815250601001905060405180910390206102cb640100000000026401000000009004565b61047c565b60006102e5826103c1640100000000026401000000009004565b905060001515600080836000191660001916815260200190815260200160002060009054906101000a900460ff16151514151561038a576040517f08c379a00000000000000000000000000000000000000000000000000000000081526004018080602001828103825260138152602001807f526f6c6520416c7265616479204578697374730000000000000000000000000081525060200191505060405180910390fd5b6001600080836000191660001916815260200190815260200160002060006101000a81548160ff0219169083151502179055505050565b60008160405160200180807f524f4c450000000000000000000000000000000000000000000000000000000081525060040182600019166000191681526020019150506040516020818303038152906040526040518082805190602001908083835b6020831015156104485780518252602082019150602081019050602083039250610423565b6001836020036101000a03801982511681845116808217855250505050505090500191505060405180910390209050919050565b6104968061048b6000396000f300608060405260043610610099576000357c0100000000000000000000000000000000000000000000000000000000900463ffffffff1680630a100d6c1461009e578063715f43c5146100d15780637a01a1da146101045780638c64f57c1461013757806392bbe4ff1461016a5780639ef9cc791461019d578063a4ca54c1146101d0578063fbb12d0714610203578063ff0b20e814610236575b600080fd5b3480156100aa57600080fd5b506100b3610269565b60405180826000191660001916815260200191505060405180910390f35b3480156100dd57600080fd5b506100e66102a2565b60405180826000191660001916815260200191505060405180910390f35b34801561011057600080fd5b506101196102db565b60405180826000191660001916815260200191505060405180910390f35b34801561014357600080fd5b5061014c610314565b60405180826000191660001916815260200191505060405180910390f35b34801561017657600080fd5b5061017f61034d565b60405180826000191660001916815260200191505060405180910390f35b3480156101a957600080fd5b506101b2610386565b60405180826000191660001916815260200191505060405180910390f35b3480156101dc57600080fd5b506101e56103bf565b60405180826000191660001916815260200191505060405180910390f35b34801561020f57600080fd5b506102186103f8565b60405180826000191660001916815260200191505060405180910390f35b34801561024257600080fd5b5061024b610431565b60405180826000191660001916815260200191505060405180910390f35b60405180807f534849505045525f524f4c450000000000000000000000000000000000000000815250600c019050604051809103902081565b60405180807f4f524445525f4f465f524f4c4500000000000000000000000000000000000000815250600d019050604051809103902081565b60405180807f42555945525f524f4c4500000000000000000000000000000000000000000000815250600a019050604051809103902081565b60405180807f4245454b45455045525f524f4c45000000000000000000000000000000000000815250600e019050604051809103902081565b60405180807f484152564553545f4f465f524f4c450000000000000000000000000000000000815250600f019050604051809103902081565b60405180807f42555945525f4f465f524f4c4500000000000000000000000000000000000000815250600d019050604051809103902081565b60405180807f52454349455645525f4f465f524f4c45000000000000000000000000000000008152506010019050604051809103902081565b60405180807f484152564553545f524f4c450000000000000000000000000000000000000000815250600c019050604051809103902081565b60405180807f534849505045525f4f465f524f4c450000000000000000000000000000000000815250600f0190506040518091039020815600a165627a7a72305820bae2b0a74387713b35badbb112dcbef0961f90ead363c53e539ad2cb1943e0fd0029",
  "source": "pragma solidity ^0.4.24;\n\n// Define a contract 'Supplychain'\ncontract AccessControl{\n    mapping (bytes32 => bool) internal roles;\n    mapping (bytes32 => bool) internal permissions;\n\n    bytes32 public constant HARVEST_ROLE = keccak256(\"HARVEST_ROLE\");\n    bytes32 public constant BUYER_ROLE = keccak256(\"BUYER_ROLE\");\n    bytes32 public constant SHIPPER_ROLE = keccak256(\"SHIPPER_ROLE\");\n    bytes32 public constant BEEKEEPER_ROLE = keccak256(\"BEEKEEPER_ROLE\");\n    bytes32 public constant HARVESTER_OF_ROLE = keccak256(\"HARVEST_OF_ROLE\");\n    bytes32 public constant ORDER_OF_ROLE = keccak256(\"ORDER_OF_ROLE\");\n    bytes32 public constant BUYER_OF_ROLE = keccak256(\"BUYER_OF_ROLE\");\n    bytes32 public constant SHIPPER_OF_ROLE = keccak256(\"SHIPPER_OF_ROLE\");\n    bytes32 public constant RECIEVER_OF_ROLE = keccak256(\"RECIEVER_OF_ROLE\");\n\n    modifier onlyHarvester() {\n        require(has(HARVEST_ROLE, msg.sender, \"\"), \"Missing Harvester Role\");\n        _;\n    }\n\n    modifier onlyBuyer() {\n        require(has(BUYER_ROLE, msg.sender, \"\"), \"Missing Buyer Role\");\n        _;\n    }\n\n    modifier onlyShipper() {\n        require(has(SHIPPER_ROLE, msg.sender, \"\"), \"Missing Shipper Role\");\n        _;\n    }\n\n    modifier onlyBeekeeper() {\n        require(has(BEEKEEPER_ROLE, msg.sender, \"\"), \"Missing Beekeeper Role\");\n        _;\n    }\n\n    constructor() public {\n        addRole(HARVEST_ROLE);\n        addRole(BUYER_ROLE);\n        addRole(SHIPPER_ROLE);\n        addRole(BEEKEEPER_ROLE);\n\n        addRole(HARVESTER_OF_ROLE);\n        addRole(ORDER_OF_ROLE);\n        addRole(BUYER_OF_ROLE);\n        addRole(SHIPPER_OF_ROLE);\n        addRole(RECIEVER_OF_ROLE);\n    }\n\n    function roleHash(bytes32 _role) internal pure returns (bytes32) {\n        return keccak256(abi.encodePacked(\"ROLE\", _role));\n    }\n\n    function permissionHash(address _who, bytes32 _role, bytes32 _for) internal pure returns (bytes32) {\n        return keccak256(abi.encodePacked(\"PERMISSION\", _who, _role, _for));\n    }\n\n    function addRole(bytes32 _role) internal {\n        bytes32 thisRoleHash = roleHash(_role);\n        require(roles[thisRoleHash] == false, \"Role Already Exists\");\n        roles[thisRoleHash] = true;\n    }\n\n    function addPermission(bytes32 _role, address _who, bytes32 _for) internal {\n        bytes32 thisRoleHash = roleHash(_role);\n        require(roles[thisRoleHash] == true, \"Role Does Not Exists\");\n        bytes32 thisPermissionHash = permissionHash(_who, _role, _for);\n        require(permissions[thisPermissionHash] == false, \"Permission Already Exists\");\n        permissions[thisPermissionHash] = true;\n    }\n\n    modifier hasPermission(bytes32 _role, address _who, bytes32 _for, string _message){\n        require(has(_role, _who, _for), _message);\n        _;\n    }\n\n    /**\n    * @dev check if an account has this role\n    * @return bool\n    */\n    function has(bytes32 _role, address _who, bytes32 _for)\n      internal\n      view\n      returns (bool)\n    {\n        require(_who != address(0), \"Cannot check address of contract owner\");\n        bytes32 thisPermissionHash = permissionHash(_who, _role, _for);\n        return permissions[thisPermissionHash];\n    }\n\n}",
  "sourcePath": "/Users/Tony/Documents/Projects2018/honeyChain/project-6/contracts/honeyaccesscontrol/AccessControl.sol",
  "compiler": {
    "name": "solc",
    "version": "0.4.24+commit.e67f0147.Emscripten.clang"
  },
  "schemaVersion": "2.0.1",
  "updatedAt": "2019-03-01T18:19:58.484Z"
}