{
  "contractName": "AccessControl",
  "abi": [
    {
      "constant": false,
      "inputs": [
        {
          "name": "_role",
          "type": "bytes32"
        }
      ],
      "name": "addRole",
      "outputs": [],
      "payable": false,
      "stateMutability": "nonpayable",
      "type": "function"
    },
    {
      "constant": false,
      "inputs": [
        {
          "name": "_role",
          "type": "bytes32"
        },
        {
          "name": "_who",
          "type": "address"
        },
        {
          "name": "_for",
          "type": "bytes32"
        }
      ],
      "name": "addPermission",
      "outputs": [],
      "payable": false,
      "stateMutability": "nonpayable",
      "type": "function"
    }
  ],
  "bytecode": "0x608060405234801561001057600080fd5b5061055b806100206000396000f30060806040526004361061004c576000357c0100000000000000000000000000000000000000000000000000000000900463ffffffff168063274b02a7146100515780632cb2343414610082575b600080fd5b34801561005d57600080fd5b5061008060048036038101908080356000191690602001909291905050506100e1565b005b34801561008e57600080fd5b506100df6004803603810190808035600019169060200190929190803573ffffffffffffffffffffffffffffffffffffffff16906020019092919080356000191690602001909291905050506101c8565b005b60006100ec82610364565b905060001515600080836000191660001916815260200190815260200160002060009054906101000a900460ff161515141515610191576040517f08c379a00000000000000000000000000000000000000000000000000000000081526004018080602001828103825260138152602001807f526f6c6520416c7265616479204578697374730000000000000000000000000081525060200191505060405180910390fd5b6001600080836000191660001916815260200190815260200160002060006101000a81548160ff0219169083151502179055505050565b6000806101d485610364565b915060011515600080846000191660001916815260200190815260200160002060009054906101000a900460ff161515141515610279576040517f08c379a00000000000000000000000000000000000000000000000000000000081526004018080602001828103825260148152602001807f526f6c6520446f6573204e6f742045786973747300000000000000000000000081525060200191505060405180910390fd5b61028484868561041f565b90506000151560016000836000191660001916815260200190815260200160002060009054906101000a900460ff16151514151561032a576040517f08c379a00000000000000000000000000000000000000000000000000000000081526004018080602001828103825260198152602001807f5065726d697373696f6e20416c7265616479204578697374730000000000000081525060200191505060405180910390fd5b6001806000836000191660001916815260200190815260200160002060006101000a81548160ff0219169083151502179055505050505050565b60008160405160200180807f524f4c450000000000000000000000000000000000000000000000000000000081525060040182600019166000191681526020019150506040516020818303038152906040526040518082805190602001908083835b6020831015156103eb57805182526020820191506020810190506020830392506103c6565b6001836020036101000a03801982511681845116808217855250505050505090500191505060405180910390209050919050565b600083838360405160200180807f5045524d495353494f4e00000000000000000000000000000000000000000000815250600a018473ffffffffffffffffffffffffffffffffffffffff1673ffffffffffffffffffffffffffffffffffffffff166c010000000000000000000000000281526014018360001916600019168152602001826000191660001916815260200193505050506040516020818303038152906040526040518082805190602001908083835b6020831015156104f957805182526020820191506020810190506020830392506104d4565b6001836020036101000a0380198251168184511680821785525050505050509050019150506040518091039020905093925050505600a165627a7a72305820e0167e1e79171b47f6cb635f3475e1b235769d8fcf612a2dccf6ed000f2afca00029",
  "source": "pragma solidity ^0.4.24;\n\n// Define a contract 'Supplychain'\ncontract AccessControl{\n    mapping (bytes32 => bool) internal roles;\n    mapping (bytes32 => bool) internal permissions;\n\n    function roleHash(bytes32 _role) internal pure returns (bytes32) {\n        return keccak256(abi.encodePacked(\"ROLE\", _role));\n    }\n\n    function permissionHash(address _who, bytes32 _role, bytes32 _for) internal pure returns (bytes32) {\n        return keccak256(abi.encodePacked(\"PERMISSION\", _who, _role, _for));\n    }\n\n    function addRole(bytes32 _role) public {\n        bytes32 thisRoleHash = roleHash(_role);\n        require(roles[thisRoleHash] == false, \"Role Already Exists\");\n        roles[thisRoleHash] = true;\n    }\n\n    function addPermission(bytes32 _role, address _who, bytes32 _for) public {\n        bytes32 thisRoleHash = roleHash(_role);\n        require(roles[thisRoleHash] == true, \"Role Does Not Exists\");\n        bytes32 thisPermissionHash = permissionHash(_who, _role, _for);\n        require(permissions[thisPermissionHash] == false, \"Permission Already Exists\");\n        permissions[thisPermissionHash] = true;\n    }\n\n    modifier hasPermission(bytes32 _role, address _who, bytes32 _for, string _message){\n        require(has(_role, _who, _for), _message);\n        _;\n    }\n\n    /**\n    * @dev check if an account has this role\n    * @return bool\n    */\n    function has(bytes32 _role, address _who, bytes32 _for)\n      internal\n      view\n      returns (bool)\n    {\n        require(_who != address(0), \"Cannot check address of contract owner\");\n        bytes32 thisPermissionHash = permissionHash(_who, _role, _for);\n        return permissions[thisPermissionHash];\n    }\n\n}",
  "sourcePath": "/Users/Tony/Documents/Projects2018/honeyChain/project-6/contracts/honeyaccesscontrol/AccessControl.sol",
  "compiler": {
    "name": "solc",
    "version": "0.4.24+commit.e67f0147.Emscripten.clang"
  },
  "schemaVersion": "2.0.1",
  "updatedAt": "2019-02-23T04:41:24.620Z"
}