{
  "contractName": "BeeKeeperRole",
  "abi": [
    {
      "inputs": [],
      "payable": false,
      "stateMutability": "nonpayable",
      "type": "constructor"
    },
    {
      "anonymous": false,
      "inputs": [
        {
          "indexed": true,
          "name": "account",
          "type": "address"
        }
      ],
      "name": "BeeKeeperAdded",
      "type": "event"
    },
    {
      "anonymous": false,
      "inputs": [
        {
          "indexed": true,
          "name": "account",
          "type": "address"
        }
      ],
      "name": "BeeKeeperRemoved",
      "type": "event"
    },
    {
      "constant": true,
      "inputs": [
        {
          "name": "account",
          "type": "address"
        }
      ],
      "name": "isBeeKeeper",
      "outputs": [
        {
          "name": "",
          "type": "bool"
        }
      ],
      "payable": false,
      "stateMutability": "view",
      "type": "function"
    },
    {
      "constant": false,
      "inputs": [
        {
          "name": "account",
          "type": "address"
        }
      ],
      "name": "addBeeKeeper",
      "outputs": [],
      "payable": false,
      "stateMutability": "nonpayable",
      "type": "function"
    },
    {
      "constant": false,
      "inputs": [],
      "name": "renounceBeeKeeper",
      "outputs": [],
      "payable": false,
      "stateMutability": "nonpayable",
      "type": "function"
    }
  ],
  "bytecode": "0x608060405234801561001057600080fd5b506100293361002e640100000000026401000000009004565b61036f565b61004f81600061009564010000000002610399179091906401000000009004565b8073ffffffffffffffffffffffffffffffffffffffff167f7e618c344149ee70f9989dfadb2379a880d6ce52c6cfb6d65c6b057b8a888ba160405160405180910390a250565b600073ffffffffffffffffffffffffffffffffffffffff168173ffffffffffffffffffffffffffffffffffffffff1614151515610160576040517f08c379a00000000000000000000000000000000000000000000000000000000081526004018080602001828103825260248152602001807f43616e6e6f74206164642061646472657373206f6620636f6e7472616374206f81526020017f776e65720000000000000000000000000000000000000000000000000000000081525060400191505060405180910390fd5b610179828261024c640100000000026401000000009004565b1515156101ee576040517f08c379a00000000000000000000000000000000000000000000000000000000081526004018080602001828103825260168152602001807f416c72656164792068617320616e206163636f756e740000000000000000000081525060200191505060405180910390fd5b60018260000160008373ffffffffffffffffffffffffffffffffffffffff1673ffffffffffffffffffffffffffffffffffffffff16815260200190815260200160002060006101000a81548160ff0219169083151502179055505050565b60008073ffffffffffffffffffffffffffffffffffffffff168273ffffffffffffffffffffffffffffffffffffffff1614151515610318576040517f08c379a00000000000000000000000000000000000000000000000000000000081526004018080602001828103825260268152602001807f43616e6e6f7420636865636b2061646472657373206f6620636f6e747261637481526020017f206f776e6572000000000000000000000000000000000000000000000000000081525060400191505060405180910390fd5b8260000160008373ffffffffffffffffffffffffffffffffffffffff1673ffffffffffffffffffffffffffffffffffffffff16815260200190815260200160002060009054906101000a900460ff16905092915050565b6107148061037e6000396000f300608060405260043610610057576000357c0100000000000000000000000000000000000000000000000000000000900463ffffffff168063215595f91461005c578063842632aa146100b7578063ec178619146100fa575b600080fd5b34801561006857600080fd5b5061009d600480360381019080803573ffffffffffffffffffffffffffffffffffffffff169060200190929190505050610111565b604051808215151515815260200191505060405180910390f35b3480156100c357600080fd5b506100f8600480360381019080803573ffffffffffffffffffffffffffffffffffffffff16906020019092919050505061012e565b005b34801561010657600080fd5b5061010f6101b7565b005b60006101278260006101c290919063ffffffff16565b9050919050565b61013733610111565b15156101ab576040517f08c379a00000000000000000000000000000000000000000000000000000000081526004018080602001828103825260108152602001807f4973206e6f74204265654b65657065720000000000000000000000000000000081525060200191505060405180910390fd5b6101b4816102e5565b50565b6101c03361033f565b565b60008073ffffffffffffffffffffffffffffffffffffffff168273ffffffffffffffffffffffffffffffffffffffff161415151561028e576040517f08c379a00000000000000000000000000000000000000000000000000000000081526004018080602001828103825260268152602001807f43616e6e6f7420636865636b2061646472657373206f6620636f6e747261637481526020017f206f776e6572000000000000000000000000000000000000000000000000000081525060400191505060405180910390fd5b8260000160008373ffffffffffffffffffffffffffffffffffffffff1673ffffffffffffffffffffffffffffffffffffffff16815260200190815260200160002060009054906101000a900460ff16905092915050565b6102f981600061039990919063ffffffff16565b8073ffffffffffffffffffffffffffffffffffffffff167f7e618c344149ee70f9989dfadb2379a880d6ce52c6cfb6d65c6b057b8a888ba160405160405180910390a250565b61035381600061054190919063ffffffff16565b8073ffffffffffffffffffffffffffffffffffffffff167f6f9421c2b4c392dab10ba17c1b912afa13012243861f98e2577d06d92ee29cca60405160405180910390a250565b600073ffffffffffffffffffffffffffffffffffffffff168173ffffffffffffffffffffffffffffffffffffffff1614151515610464576040517f08c379a00000000000000000000000000000000000000000000000000000000081526004018080602001828103825260248152602001807f43616e6e6f74206164642061646472657373206f6620636f6e7472616374206f81526020017f776e65720000000000000000000000000000000000000000000000000000000081525060400191505060405180910390fd5b61046e82826101c2565b1515156104e3576040517f08c379a00000000000000000000000000000000000000000000000000000000081526004018080602001828103825260168152602001807f416c72656164792068617320616e206163636f756e740000000000000000000081525060200191505060405180910390fd5b60018260000160008373ffffffffffffffffffffffffffffffffffffffff1673ffffffffffffffffffffffffffffffffffffffff16815260200190815260200160002060006101000a81548160ff0219169083151502179055505050565b600073ffffffffffffffffffffffffffffffffffffffff168173ffffffffffffffffffffffffffffffffffffffff161415151561060c576040517f08c379a00000000000000000000000000000000000000000000000000000000081526004018080602001828103825260278152602001807f43616e6e6f742072656d6f76652061646472657373206f6620636f6e7472616381526020017f74206f776e65720000000000000000000000000000000000000000000000000081525060400191505060405180910390fd5b61061682826101c2565b151561068a576040517f08c379a00000000000000000000000000000000000000000000000000000000081526004018080602001828103825260168152602001807f4163636f756e7420646f6573206e6f742065786973740000000000000000000081525060200191505060405180910390fd5b60008260000160008373ffffffffffffffffffffffffffffffffffffffff1673ffffffffffffffffffffffffffffffffffffffff16815260200190815260200160002060006101000a81548160ff02191690831515021790555050505600a165627a7a7230582056ed9d77a7276591ccabcde7d1348bbe5ce0949bb8eed7e55bb46e5a86ff7a720029",
  "source": "pragma solidity ^0.4.24;\n\n// Import the library 'Roles'\nimport \"./Roles.sol\";\n\n// Define a contract 'BeeKeeperRole' to manage this role - add, remove, check\ncontract BeeKeeperRole {\n    using Roles for Roles.Role;\n\n    // Define 2 events, one for Adding, and other for Removing\n    event BeeKeeperAdded(address indexed account);\n    event BeeKeeperRemoved(address indexed account);\n\n    // Define a struct 'beeKeepers' by inheriting from 'Roles' library, struct Role\n    Roles.Role private beeKeepers;\n\n    // In the constructor make the address that deploys this contract the 1st beeKeeper\n    constructor() public {\n        _addBeeKeeper(msg.sender);\n    }\n\n    // Define a modifier that checks to see if msg.sender has the appropriate role\n    modifier onlyBeeKeeper() {\n        require(isBeeKeeper(msg.sender), \"Is not BeeKeeper\");\n        _;\n    }\n\n    // Define a function 'isBeeKeeper' to check this role\n    function isBeeKeeper(address account) public view returns (bool) {\n        return beeKeepers.has(account);\n    }\n\n    // Define a function 'addBeeKeeper' that adds this role\n    function addBeeKeeper(address account) public onlyBeeKeeper {\n        _addBeeKeeper(account);\n    }\n\n    // Define a function 'renounceBeeKeeper' to renounce this role\n    function renounceBeeKeeper() public {\n        _removeBeeKeeper(msg.sender);\n    }\n\n    // Define an internal function '_addBeeKeeper' to add this role, called by 'addBeeKeeper'\n    function _addBeeKeeper(address account) internal {\n        beeKeepers.add(account);\n        emit BeeKeeperAdded(account);\n    }\n\n    // Define an internal function '_removeBeeKeeper' to remove this role, called by 'removeBeeKeeper'\n    function _removeBeeKeeper(address account) internal {\n        beeKeepers.remove(account);\n        emit BeeKeeperRemoved(account);\n    }\n}",
  "sourcePath": "/Users/Tony/Documents/Projects2018/honeyChain/project-6/contracts/honeyaccesscontrol/BeeKeeperRole.sol",
  "compiler": {
    "name": "solc",
    "version": "0.4.24+commit.e67f0147.Emscripten.clang"
  },
  "schemaVersion": "2.0.1",
  "updatedAt": "2019-02-15T07:41:40.960Z"
}