{
  "contractName": "HarvesterRole",
  "abi": [
    {
      "inputs": [],
      "payable": false,
      "stateMutability": "nonpayable",
      "type": "constructor"
    },
    {
      "anonymous": false,
      "inputs": [
        {
          "indexed": true,
          "name": "account",
          "type": "address"
        }
      ],
      "name": "HarvesterAdded",
      "type": "event"
    },
    {
      "anonymous": false,
      "inputs": [
        {
          "indexed": true,
          "name": "account",
          "type": "address"
        }
      ],
      "name": "HarvesterRemoved",
      "type": "event"
    },
    {
      "constant": true,
      "inputs": [
        {
          "name": "account",
          "type": "address"
        }
      ],
      "name": "isHarvester",
      "outputs": [
        {
          "name": "",
          "type": "bool"
        }
      ],
      "payable": false,
      "stateMutability": "view",
      "type": "function"
    },
    {
      "constant": false,
      "inputs": [
        {
          "name": "account",
          "type": "address"
        }
      ],
      "name": "addHarvester",
      "outputs": [],
      "payable": false,
      "stateMutability": "nonpayable",
      "type": "function"
    },
    {
      "constant": false,
      "inputs": [],
      "name": "renounceHarvester",
      "outputs": [],
      "payable": false,
      "stateMutability": "nonpayable",
      "type": "function"
    }
  ],
  "bytecode": "0x608060405234801561001057600080fd5b506100293361002e640100000000026401000000009004565b61036f565b61004f81600061009564010000000002610399179091906401000000009004565b8073ffffffffffffffffffffffffffffffffffffffff167f2a6b352b84affc85ec0ab54b71a09c17830148eb8a1c5aeabf5cd5e73ee7c24860405160405180910390a250565b600073ffffffffffffffffffffffffffffffffffffffff168173ffffffffffffffffffffffffffffffffffffffff1614151515610160576040517f08c379a00000000000000000000000000000000000000000000000000000000081526004018080602001828103825260248152602001807f43616e6e6f74206164642061646472657373206f6620636f6e7472616374206f81526020017f776e65720000000000000000000000000000000000000000000000000000000081525060400191505060405180910390fd5b610179828261024c640100000000026401000000009004565b1515156101ee576040517f08c379a00000000000000000000000000000000000000000000000000000000081526004018080602001828103825260168152602001807f416c72656164792068617320616e206163636f756e740000000000000000000081525060200191505060405180910390fd5b60018260000160008373ffffffffffffffffffffffffffffffffffffffff1673ffffffffffffffffffffffffffffffffffffffff16815260200190815260200160002060006101000a81548160ff0219169083151502179055505050565b60008073ffffffffffffffffffffffffffffffffffffffff168273ffffffffffffffffffffffffffffffffffffffff1614151515610318576040517f08c379a00000000000000000000000000000000000000000000000000000000081526004018080602001828103825260268152602001807f43616e6e6f7420636865636b2061646472657373206f6620636f6e747261637481526020017f206f776e6572000000000000000000000000000000000000000000000000000081525060400191505060405180910390fd5b8260000160008373ffffffffffffffffffffffffffffffffffffffff1673ffffffffffffffffffffffffffffffffffffffff16815260200190815260200160002060009054906101000a900460ff16905092915050565b6107148061037e6000396000f300608060405260043610610057576000357c0100000000000000000000000000000000000000000000000000000000900463ffffffff1680638fab59171461005c578063a71bbfd51461009f578063b79ff797146100fa575b600080fd5b34801561006857600080fd5b5061009d600480360381019080803573ffffffffffffffffffffffffffffffffffffffff169060200190929190505050610111565b005b3480156100ab57600080fd5b506100e0600480360381019080803573ffffffffffffffffffffffffffffffffffffffff16906020019092919050505061019a565b604051808215151515815260200191505060405180910390f35b34801561010657600080fd5b5061010f6101b7565b005b61011a3361019a565b151561018e576040517f08c379a00000000000000000000000000000000000000000000000000000000081526004018080602001828103825260108152602001807f4973206e6f74204861727665737465720000000000000000000000000000000081525060200191505060405180910390fd5b610197816101c2565b50565b60006101b082600061021c90919063ffffffff16565b9050919050565b6101c03361033f565b565b6101d681600061039990919063ffffffff16565b8073ffffffffffffffffffffffffffffffffffffffff167f2a6b352b84affc85ec0ab54b71a09c17830148eb8a1c5aeabf5cd5e73ee7c24860405160405180910390a250565b60008073ffffffffffffffffffffffffffffffffffffffff168273ffffffffffffffffffffffffffffffffffffffff16141515156102e8576040517f08c379a00000000000000000000000000000000000000000000000000000000081526004018080602001828103825260268152602001807f43616e6e6f7420636865636b2061646472657373206f6620636f6e747261637481526020017f206f776e6572000000000000000000000000000000000000000000000000000081525060400191505060405180910390fd5b8260000160008373ffffffffffffffffffffffffffffffffffffffff1673ffffffffffffffffffffffffffffffffffffffff16815260200190815260200160002060009054906101000a900460ff16905092915050565b61035381600061054190919063ffffffff16565b8073ffffffffffffffffffffffffffffffffffffffff167f78af5e2bc1f182518b5a494aa807f782e7a2026ab85683d13ce592896a52922f60405160405180910390a250565b600073ffffffffffffffffffffffffffffffffffffffff168173ffffffffffffffffffffffffffffffffffffffff1614151515610464576040517f08c379a00000000000000000000000000000000000000000000000000000000081526004018080602001828103825260248152602001807f43616e6e6f74206164642061646472657373206f6620636f6e7472616374206f81526020017f776e65720000000000000000000000000000000000000000000000000000000081525060400191505060405180910390fd5b61046e828261021c565b1515156104e3576040517f08c379a00000000000000000000000000000000000000000000000000000000081526004018080602001828103825260168152602001807f416c72656164792068617320616e206163636f756e740000000000000000000081525060200191505060405180910390fd5b60018260000160008373ffffffffffffffffffffffffffffffffffffffff1673ffffffffffffffffffffffffffffffffffffffff16815260200190815260200160002060006101000a81548160ff0219169083151502179055505050565b600073ffffffffffffffffffffffffffffffffffffffff168173ffffffffffffffffffffffffffffffffffffffff161415151561060c576040517f08c379a00000000000000000000000000000000000000000000000000000000081526004018080602001828103825260278152602001807f43616e6e6f742072656d6f76652061646472657373206f6620636f6e7472616381526020017f74206f776e65720000000000000000000000000000000000000000000000000081525060400191505060405180910390fd5b610616828261021c565b151561068a576040517f08c379a00000000000000000000000000000000000000000000000000000000081526004018080602001828103825260168152602001807f4163636f756e7420646f6573206e6f742065786973740000000000000000000081525060200191505060405180910390fd5b60008260000160008373ffffffffffffffffffffffffffffffffffffffff1673ffffffffffffffffffffffffffffffffffffffff16815260200190815260200160002060006101000a81548160ff02191690831515021790555050505600a165627a7a7230582018bf2fc76986a4b3b15d534976e07ba8a67453756a111ebe1f4de7590dc55f1b0029",
  "source": "pragma solidity ^0.4.24;\n\n// Import the library 'Roles'\nimport \"./Roles.sol\";\n\n// Define a contract 'HarvesterRole' to manage this role - add, remove, check\ncontract HarvesterRole {\n    using Roles for Roles.Role;\n\n    // Define 2 events, one for Adding, and other for Removing\n    event HarvesterAdded(address indexed account);\n    event HarvesterRemoved(address indexed account);\n\n    // Define a struct 'harvesters' by inheriting from 'Roles' library, struct Role\n    Roles.Role private harvesters;\n\n    // In the constructor make the address that deploys this contract the 1st harvester\n    constructor() public {\n        _addHarvester(msg.sender);\n    }\n\n    // Define a modifier that checks to see if msg.sender has the appropriate role\n    modifier onlyHarvester() {\n        require(isHarvester(msg.sender), \"Is not Harvester\");\n        _;\n    }\n\n    // Define a function 'isHarvester' to check this role\n    function isHarvester(address account) public view returns (bool) {\n        return harvesters.has(account);\n    }\n\n    // Define a function 'addHarvester' that adds this role\n    function addHarvester(address account) public onlyHarvester {\n        _addHarvester(account);\n    }\n\n    // Define a function 'renounceHarvester' to renounce this role\n    function renounceHarvester() public {\n        _removeHarvester(msg.sender);\n    }\n\n    // Define an internal function '_addHarvester' to add this role, called by 'addHarvester'\n    function _addHarvester(address account) internal {\n        harvesters.add(account);\n        emit HarvesterAdded(account);\n    }\n\n    // Define an internal function '_removeHarvester' to remove this role, called by 'removeHarvester'\n    function _removeHarvester(address account) internal {\n        harvesters.remove(account);\n        emit HarvesterRemoved(account);\n    }\n}",
  "sourcePath": "/Users/Tony/Documents/Projects2018/honeyChain/project-6/contracts/honeyaccesscontrol/HarvesterRole.sol",
  "compiler": {
    "name": "solc",
    "version": "0.4.24+commit.e67f0147.Emscripten.clang"
  },
  "schemaVersion": "2.0.1",
  "updatedAt": "2019-02-05T20:57:53.997Z"
}