{
  "contractName": "ShipperRole",
  "abi": [
    {
      "inputs": [],
      "payable": false,
      "stateMutability": "nonpayable",
      "type": "constructor"
    },
    {
      "anonymous": false,
      "inputs": [
        {
          "indexed": true,
          "name": "account",
          "type": "address"
        }
      ],
      "name": "ShipperAdded",
      "type": "event"
    },
    {
      "anonymous": false,
      "inputs": [
        {
          "indexed": true,
          "name": "account",
          "type": "address"
        }
      ],
      "name": "ShipperRemoved",
      "type": "event"
    },
    {
      "constant": true,
      "inputs": [
        {
          "name": "account",
          "type": "address"
        }
      ],
      "name": "isShipper",
      "outputs": [
        {
          "name": "",
          "type": "bool"
        }
      ],
      "payable": false,
      "stateMutability": "view",
      "type": "function"
    },
    {
      "constant": false,
      "inputs": [
        {
          "name": "account",
          "type": "address"
        }
      ],
      "name": "addShipper",
      "outputs": [],
      "payable": false,
      "stateMutability": "nonpayable",
      "type": "function"
    },
    {
      "constant": false,
      "inputs": [],
      "name": "renounceShipper",
      "outputs": [],
      "payable": false,
      "stateMutability": "nonpayable",
      "type": "function"
    }
  ],
  "bytecode": "0x608060405234801561001057600080fd5b506100293361002e640100000000026401000000009004565b61036f565b61004f81600061009564010000000002610399179091906401000000009004565b8073ffffffffffffffffffffffffffffffffffffffff167fa6b0d643c10c5fda6645b77a5fb2e02bc2cbd3597d2a30910ca9f42db8b948ca60405160405180910390a250565b600073ffffffffffffffffffffffffffffffffffffffff168173ffffffffffffffffffffffffffffffffffffffff1614151515610160576040517f08c379a00000000000000000000000000000000000000000000000000000000081526004018080602001828103825260248152602001807f43616e6e6f74206164642061646472657373206f6620636f6e7472616374206f81526020017f776e65720000000000000000000000000000000000000000000000000000000081525060400191505060405180910390fd5b610179828261024c640100000000026401000000009004565b1515156101ee576040517f08c379a00000000000000000000000000000000000000000000000000000000081526004018080602001828103825260168152602001807f416c72656164792068617320616e206163636f756e740000000000000000000081525060200191505060405180910390fd5b60018260000160008373ffffffffffffffffffffffffffffffffffffffff1673ffffffffffffffffffffffffffffffffffffffff16815260200190815260200160002060006101000a81548160ff0219169083151502179055505050565b60008073ffffffffffffffffffffffffffffffffffffffff168273ffffffffffffffffffffffffffffffffffffffff1614151515610318576040517f08c379a00000000000000000000000000000000000000000000000000000000081526004018080602001828103825260268152602001807f43616e6e6f7420636865636b2061646472657373206f6620636f6e747261637481526020017f206f776e6572000000000000000000000000000000000000000000000000000081525060400191505060405180910390fd5b8260000160008373ffffffffffffffffffffffffffffffffffffffff1673ffffffffffffffffffffffffffffffffffffffff16815260200190815260200160002060009054906101000a900460ff16905092915050565b6107148061037e6000396000f300608060405260043610610057576000357c0100000000000000000000000000000000000000000000000000000000900463ffffffff168063155a76461461005c578063d60c1d551461009f578063de9edc9f146100fa575b600080fd5b34801561006857600080fd5b5061009d600480360381019080803573ffffffffffffffffffffffffffffffffffffffff169060200190929190505050610111565b005b3480156100ab57600080fd5b506100e0600480360381019080803573ffffffffffffffffffffffffffffffffffffffff16906020019092919050505061019a565b604051808215151515815260200191505060405180910390f35b34801561010657600080fd5b5061010f6101b7565b005b61011a3361019a565b151561018e576040517f08c379a000000000000000000000000000000000000000000000000000000000815260040180806020018281038252600e8152602001807f4973206e6f74205368697070657200000000000000000000000000000000000081525060200191505060405180910390fd5b610197816101c2565b50565b60006101b082600061021c90919063ffffffff16565b9050919050565b6101c03361033f565b565b6101d681600061039990919063ffffffff16565b8073ffffffffffffffffffffffffffffffffffffffff167fa6b0d643c10c5fda6645b77a5fb2e02bc2cbd3597d2a30910ca9f42db8b948ca60405160405180910390a250565b60008073ffffffffffffffffffffffffffffffffffffffff168273ffffffffffffffffffffffffffffffffffffffff16141515156102e8576040517f08c379a00000000000000000000000000000000000000000000000000000000081526004018080602001828103825260268152602001807f43616e6e6f7420636865636b2061646472657373206f6620636f6e747261637481526020017f206f776e6572000000000000000000000000000000000000000000000000000081525060400191505060405180910390fd5b8260000160008373ffffffffffffffffffffffffffffffffffffffff1673ffffffffffffffffffffffffffffffffffffffff16815260200190815260200160002060009054906101000a900460ff16905092915050565b61035381600061054190919063ffffffff16565b8073ffffffffffffffffffffffffffffffffffffffff167f4098c33ee7259bdc6331fa574feb5904acfe84b01ace83ede4bc77e2d3ad673860405160405180910390a250565b600073ffffffffffffffffffffffffffffffffffffffff168173ffffffffffffffffffffffffffffffffffffffff1614151515610464576040517f08c379a00000000000000000000000000000000000000000000000000000000081526004018080602001828103825260248152602001807f43616e6e6f74206164642061646472657373206f6620636f6e7472616374206f81526020017f776e65720000000000000000000000000000000000000000000000000000000081525060400191505060405180910390fd5b61046e828261021c565b1515156104e3576040517f08c379a00000000000000000000000000000000000000000000000000000000081526004018080602001828103825260168152602001807f416c72656164792068617320616e206163636f756e740000000000000000000081525060200191505060405180910390fd5b60018260000160008373ffffffffffffffffffffffffffffffffffffffff1673ffffffffffffffffffffffffffffffffffffffff16815260200190815260200160002060006101000a81548160ff0219169083151502179055505050565b600073ffffffffffffffffffffffffffffffffffffffff168173ffffffffffffffffffffffffffffffffffffffff161415151561060c576040517f08c379a00000000000000000000000000000000000000000000000000000000081526004018080602001828103825260278152602001807f43616e6e6f742072656d6f76652061646472657373206f6620636f6e7472616381526020017f74206f776e65720000000000000000000000000000000000000000000000000081525060400191505060405180910390fd5b610616828261021c565b151561068a576040517f08c379a00000000000000000000000000000000000000000000000000000000081526004018080602001828103825260168152602001807f4163636f756e7420646f6573206e6f742065786973740000000000000000000081525060200191505060405180910390fd5b60008260000160008373ffffffffffffffffffffffffffffffffffffffff1673ffffffffffffffffffffffffffffffffffffffff16815260200190815260200160002060006101000a81548160ff02191690831515021790555050505600a165627a7a723058200fd7eac7026e04e85566fa8f880045de7e2f428a839691fd88a15de65b15bc370029",
  "source": "pragma solidity ^0.4.24;\n\n// Import the library 'Roles'\nimport \"./Roles.sol\";\n\n// Define a contract 'ShipperRole' to manage this role - add, remove, check\ncontract ShipperRole {\n    using Roles for Roles.Role;\n\n    // Define 2 events, one for Adding, and other for Removing\n    event ShipperAdded(address indexed account);\n    event ShipperRemoved(address indexed account);\n\n    // Define a struct 'shippers' by inheriting from 'Roles' library, struct Role\n    Roles.Role private shippers;\n\n    // In the constructor make the address that deploys this contract the 1st shipper\n    constructor() public {\n        _addShipper(msg.sender);\n    }\n\n    // Define a modifier that checks to see if msg.sender has the appropriate role\n    modifier onlyShipper() {\n        require(isShipper(msg.sender), \"Is not Shipper\");\n        _;\n    }\n\n    // Define a function 'isShipper' to check this role\n    function isShipper(address account) public view returns (bool) {\n        return shippers.has(account);\n    }\n\n    // Define a function 'addShipper' that adds this role\n    function addShipper(address account) public onlyShipper {\n        _addShipper(account);\n    }\n\n    // Define a function 'renounceShipper' to renounce this role\n    function renounceShipper() public {\n        _removeShipper(msg.sender);\n    }\n\n    // Define an internal function '_addShipper' to add this role, called by 'addShipper'\n    function _addShipper(address account) internal {\n        shippers.add(account);\n        emit ShipperAdded(account);\n    }\n\n    // Define an internal function '_removeShipper' to remove this role, called by 'removeShipper'\n    function _removeShipper(address account) internal {\n        shippers.remove(account);\n        emit ShipperRemoved(account);\n    }\n}",
  "sourcePath": "/Users/Tony/Documents/Projects2018/honeyChain/project-6/contracts/honeyaccesscontrol/ShipperRole.sol",
  "compiler": {
    "name": "solc",
    "version": "0.4.24+commit.e67f0147.Emscripten.clang"
  },
  "schemaVersion": "2.0.1",
  "updatedAt": "2019-02-12T05:08:07.108Z"
}