{
  "contractName": "SupplyChain",
  "abi": [
    {
      "constant": true,
      "inputs": [],
      "name": "SHIPPER_ROLE",
      "outputs": [
        {
          "name": "",
          "type": "bytes32"
        }
      ],
      "payable": false,
      "stateMutability": "view",
      "type": "function"
    },
    {
      "constant": true,
      "inputs": [],
      "name": "ORDER_OF_ROLE",
      "outputs": [
        {
          "name": "",
          "type": "bytes32"
        }
      ],
      "payable": false,
      "stateMutability": "view",
      "type": "function"
    },
    {
      "constant": true,
      "inputs": [],
      "name": "BUYER_ROLE",
      "outputs": [
        {
          "name": "",
          "type": "bytes32"
        }
      ],
      "payable": false,
      "stateMutability": "view",
      "type": "function"
    },
    {
      "constant": true,
      "inputs": [],
      "name": "BEEKEEPER_ROLE",
      "outputs": [
        {
          "name": "",
          "type": "bytes32"
        }
      ],
      "payable": false,
      "stateMutability": "view",
      "type": "function"
    },
    {
      "constant": true,
      "inputs": [],
      "name": "HARVESTER_OF_ROLE",
      "outputs": [
        {
          "name": "",
          "type": "bytes32"
        }
      ],
      "payable": false,
      "stateMutability": "view",
      "type": "function"
    },
    {
      "constant": true,
      "inputs": [],
      "name": "BUYER_OF_ROLE",
      "outputs": [
        {
          "name": "",
          "type": "bytes32"
        }
      ],
      "payable": false,
      "stateMutability": "view",
      "type": "function"
    },
    {
      "constant": true,
      "inputs": [],
      "name": "RECIEVER_OF_ROLE",
      "outputs": [
        {
          "name": "",
          "type": "bytes32"
        }
      ],
      "payable": false,
      "stateMutability": "view",
      "type": "function"
    },
    {
      "constant": true,
      "inputs": [],
      "name": "HARVEST_ROLE",
      "outputs": [
        {
          "name": "",
          "type": "bytes32"
        }
      ],
      "payable": false,
      "stateMutability": "view",
      "type": "function"
    },
    {
      "constant": true,
      "inputs": [],
      "name": "SHIPPER_OF_ROLE",
      "outputs": [
        {
          "name": "",
          "type": "bytes32"
        }
      ],
      "payable": false,
      "stateMutability": "view",
      "type": "function"
    },
    {
      "inputs": [],
      "payable": true,
      "stateMutability": "payable",
      "type": "constructor"
    },
    {
      "anonymous": false,
      "inputs": [
        {
          "indexed": false,
          "name": "upc",
          "type": "uint256"
        }
      ],
      "name": "Harvested",
      "type": "event"
    },
    {
      "anonymous": false,
      "inputs": [
        {
          "indexed": false,
          "name": "orderId",
          "type": "uint256"
        },
        {
          "indexed": false,
          "name": "quantity",
          "type": "uint256"
        }
      ],
      "name": "PlacedOrder",
      "type": "event"
    },
    {
      "anonymous": false,
      "inputs": [
        {
          "indexed": false,
          "name": "quoteId",
          "type": "uint256"
        }
      ],
      "name": "SentQuote",
      "type": "event"
    },
    {
      "anonymous": false,
      "inputs": [
        {
          "indexed": false,
          "name": "purchaseId",
          "type": "uint256"
        }
      ],
      "name": "Purchased",
      "type": "event"
    },
    {
      "anonymous": false,
      "inputs": [
        {
          "indexed": false,
          "name": "shipmentId",
          "type": "uint256"
        }
      ],
      "name": "Shipped",
      "type": "event"
    },
    {
      "anonymous": false,
      "inputs": [
        {
          "indexed": false,
          "name": "shipmentId",
          "type": "uint256"
        }
      ],
      "name": "Delivered",
      "type": "event"
    },
    {
      "constant": false,
      "inputs": [],
      "name": "kill",
      "outputs": [],
      "payable": false,
      "stateMutability": "nonpayable",
      "type": "function"
    },
    {
      "constant": false,
      "inputs": [
        {
          "name": "_who",
          "type": "address"
        }
      ],
      "name": "addHarvester",
      "outputs": [],
      "payable": false,
      "stateMutability": "nonpayable",
      "type": "function"
    },
    {
      "constant": false,
      "inputs": [
        {
          "name": "_upc",
          "type": "uint256"
        },
        {
          "name": "_originBeekeeperID",
          "type": "address"
        },
        {
          "name": "_originBeekeeperName",
          "type": "string"
        },
        {
          "name": "_originFarmInformation",
          "type": "string"
        },
        {
          "name": "_originFarmLatitude",
          "type": "string"
        },
        {
          "name": "_originFarmLongitude",
          "type": "string"
        },
        {
          "name": "_quantity",
          "type": "uint256"
        },
        {
          "name": "_productNotes",
          "type": "string"
        }
      ],
      "name": "harvestItem",
      "outputs": [],
      "payable": false,
      "stateMutability": "nonpayable",
      "type": "function"
    },
    {
      "constant": false,
      "inputs": [
        {
          "name": "_upc",
          "type": "uint256"
        },
        {
          "name": "quantity",
          "type": "uint256"
        }
      ],
      "name": "placeOrder",
      "outputs": [],
      "payable": false,
      "stateMutability": "nonpayable",
      "type": "function"
    },
    {
      "constant": false,
      "inputs": [
        {
          "name": "_orderId",
          "type": "uint256"
        },
        {
          "name": "_price",
          "type": "uint256"
        },
        {
          "name": "_shipperId",
          "type": "address"
        },
        {
          "name": "_shippingCost",
          "type": "uint256"
        },
        {
          "name": "_shippingDownPayment",
          "type": "uint256"
        }
      ],
      "name": "sendQuote",
      "outputs": [],
      "payable": false,
      "stateMutability": "nonpayable",
      "type": "function"
    },
    {
      "constant": false,
      "inputs": [
        {
          "name": "_quoteId",
          "type": "uint256"
        }
      ],
      "name": "purchase",
      "outputs": [],
      "payable": true,
      "stateMutability": "payable",
      "type": "function"
    },
    {
      "constant": false,
      "inputs": [
        {
          "name": "_purchaseId",
          "type": "uint256"
        }
      ],
      "name": "ship",
      "outputs": [],
      "payable": false,
      "stateMutability": "nonpayable",
      "type": "function"
    },
    {
      "constant": false,
      "inputs": [
        {
          "name": "_shipmentId",
          "type": "uint256"
        }
      ],
      "name": "deliver",
      "outputs": [],
      "payable": true,
      "stateMutability": "payable",
      "type": "function"
    },
    {
      "constant": true,
      "inputs": [
        {
          "name": "_upc",
          "type": "uint256"
        }
      ],
      "name": "fetchHarvest",
      "outputs": [
        {
          "name": "harvestSKU",
          "type": "uint256"
        },
        {
          "name": "harvestUPC",
          "type": "uint256"
        },
        {
          "name": "harvesterId",
          "type": "address"
        },
        {
          "name": "ownerID",
          "type": "address"
        },
        {
          "name": "originBeekeeperID",
          "type": "address"
        },
        {
          "name": "originBeekeeperName",
          "type": "string"
        },
        {
          "name": "originFarmInformation",
          "type": "string"
        },
        {
          "name": "originFarmLatitude",
          "type": "string"
        },
        {
          "name": "originFarmLongitude",
          "type": "string"
        },
        {
          "name": "quantity",
          "type": "uint256"
        }
      ],
      "payable": false,
      "stateMutability": "view",
      "type": "function"
    },
    {
      "constant": true,
      "inputs": [
        {
          "name": "_orderId",
          "type": "uint256"
        }
      ],
      "name": "fetchOrder",
      "outputs": [
        {
          "name": "orderId",
          "type": "uint256"
        },
        {
          "name": "buyerId",
          "type": "address"
        },
        {
          "name": "harvestUPC",
          "type": "uint256"
        },
        {
          "name": "quantity",
          "type": "uint256"
        }
      ],
      "payable": false,
      "stateMutability": "view",
      "type": "function"
    },
    {
      "constant": true,
      "inputs": [
        {
          "name": "_quoteId",
          "type": "uint256"
        }
      ],
      "name": "fetchQuote",
      "outputs": [
        {
          "name": "quoteId",
          "type": "uint256"
        },
        {
          "name": "orderId",
          "type": "uint256"
        },
        {
          "name": "price",
          "type": "uint256"
        },
        {
          "name": "shipperId",
          "type": "address"
        },
        {
          "name": "shippingCost",
          "type": "uint256"
        },
        {
          "name": "shippingDownPayment",
          "type": "uint256"
        },
        {
          "name": "date",
          "type": "uint256"
        }
      ],
      "payable": false,
      "stateMutability": "view",
      "type": "function"
    },
    {
      "constant": true,
      "inputs": [
        {
          "name": "_quoteId",
          "type": "uint256"
        }
      ],
      "name": "fetchDownpayment",
      "outputs": [
        {
          "name": "downPayment",
          "type": "uint256"
        }
      ],
      "payable": false,
      "stateMutability": "view",
      "type": "function"
    },
    {
      "constant": true,
      "inputs": [
        {
          "name": "_quoteId",
          "type": "uint256"
        }
      ],
      "name": "fetchDeliveryBalance",
      "outputs": [
        {
          "name": "balance",
          "type": "uint256"
        }
      ],
      "payable": false,
      "stateMutability": "view",
      "type": "function"
    },
    {
      "constant": true,
      "inputs": [
        {
          "name": "_purchaseId",
          "type": "uint256"
        }
      ],
      "name": "fetchPurchase",
      "outputs": [
        {
          "name": "purchaseId",
          "type": "uint256"
        },
        {
          "name": "quoteId",
          "type": "uint256"
        },
        {
          "name": "date",
          "type": "uint256"
        }
      ],
      "payable": false,
      "stateMutability": "view",
      "type": "function"
    },
    {
      "constant": true,
      "inputs": [
        {
          "name": "_shipmentId",
          "type": "uint256"
        }
      ],
      "name": "fetchShipment",
      "outputs": [
        {
          "name": "shipmentId",
          "type": "uint256"
        },
        {
          "name": "shipper",
          "type": "address"
        },
        {
          "name": "purchaseId",
          "type": "uint256"
        },
        {
          "name": "quoteId",
          "type": "uint256"
        },
        {
          "name": "orderId",
          "type": "uint256"
        },
        {
          "name": "upc",
          "type": "uint256"
        },
        {
          "name": "date",
          "type": "uint256"
        },
        {
          "name": "delivered",
          "type": "bool"
        },
        {
          "name": "dateDelivered",
          "type": "uint256"
        }
      ],
      "payable": false,
      "stateMutability": "view",
      "type": "function"
    }
  ],
  "bytecode": "0x60806040526200005360405180807f484152564553545f524f4c450000000000000000000000000000000000000000815250600c01905060405180910390206200033a640100000000026401000000009004565b620000a260405180807f42555945525f524f4c4500000000000000000000000000000000000000000000815250600a01905060405180910390206200033a640100000000026401000000009004565b620000f160405180807f534849505045525f524f4c450000000000000000000000000000000000000000815250600c01905060405180910390206200033a640100000000026401000000009004565b6200014060405180807f4245454b45455045525f524f4c45000000000000000000000000000000000000815250600e01905060405180910390206200033a640100000000026401000000009004565b6200018f60405180807f484152564553545f4f465f524f4c450000000000000000000000000000000000815250600f01905060405180910390206200033a640100000000026401000000009004565b620001de60405180807f4f524445525f4f465f524f4c4500000000000000000000000000000000000000815250600d01905060405180910390206200033a640100000000026401000000009004565b6200022d60405180807f42555945525f4f465f524f4c4500000000000000000000000000000000000000815250600d01905060405180910390206200033a640100000000026401000000009004565b6200027c60405180807f534849505045525f4f465f524f4c450000000000000000000000000000000000815250600f01905060405180910390206200033a640100000000026401000000009004565b620002cb60405180807f52454349455645525f4f465f524f4c4500000000000000000000000000000000815250601001905060405180910390206200033a640100000000026401000000009004565b33600260006101000a81548173ffffffffffffffffffffffffffffffffffffffff021916908373ffffffffffffffffffffffffffffffffffffffff16021790555060016003819055506001600481905550600160058190555060016006819055506001600781905550620004f0565b6000620003568262000433640100000000026401000000009004565b905060001515600080836000191660001916815260200190815260200160002060009054906101000a900460ff161515141515620003fc576040517f08c379a00000000000000000000000000000000000000000000000000000000081526004018080602001828103825260138152602001807f526f6c6520416c7265616479204578697374730000000000000000000000000081525060200191505060405180910390fd5b6001600080836000191660001916815260200190815260200160002060006101000a81548160ff0219169083151502179055505050565b60008160405160200180807f524f4c450000000000000000000000000000000000000000000000000000000081525060040182600019166000191681526020019150506040516020818303038152906040526040518082805190602001908083835b602083101515620004bc578051825260208201915060208101905060208303925062000495565b6001836020036101000a03801982511681845116808217855250505050505090500191505060405180910390209050919050565b6136bc80620005006000396000f30060806040526004361061013e576000357c0100000000000000000000000000000000000000000000000000000000900463ffffffff1680630a100d6c146101435780631b8d56ff14610176578063244f643b146101f85780633bd5d1731461022557806341c0e1b514610245578063642a1f171461025c578063715f43c5146102f35780637a01a1da14610326578063843f61e2146103595780638c64f57c146103905780638fab5917146103c357806392bbe4ff14610406578063946e8fd1146104395780639ef9cc7914610488578063a4ca54c1146104bb578063b860685f146104ee578063bdee551a1461052f578063cf2991b01461059a578063d1ba18031461074f578063efef39a114610790578063f020df82146107b0578063fa332f6514610859578063fbb12d0714610af1578063ff0b20e814610b24575b600080fd5b34801561014f57600080fd5b50610158610b57565b60405180826000191660001916815260200191505060405180910390f35b34801561018257600080fd5b506101a160048036038101908080359060200190929190505050610b90565b604051808581526020018473ffffffffffffffffffffffffffffffffffffffff1673ffffffffffffffffffffffffffffffffffffffff16815260200183815260200182815260200194505050505060405180910390f35b34801561020457600080fd5b5061022360048036038101908080359060200190929190505050610bf1565b005b6102436004803603810190808035906020019092919050505061108e565b005b34801561025157600080fd5b5061025a611679565b005b34801561026857600080fd5b506102876004803603810190808035906020019092919050505061170c565b604051808881526020018781526020018681526020018573ffffffffffffffffffffffffffffffffffffffff1673ffffffffffffffffffffffffffffffffffffffff16815260200184815260200183815260200182815260200197505050505050505060405180910390f35b3480156102ff57600080fd5b5061030861178a565b60405180826000191660001916815260200191505060405180910390f35b34801561033257600080fd5b5061033b6117c3565b60405180826000191660001916815260200191505060405180910390f35b34801561036557600080fd5b5061038e60048036038101908080359060200190929190803590602001909291905050506117fc565b005b34801561039c57600080fd5b506103a5611a43565b60405180826000191660001916815260200191505060405180910390f35b3480156103cf57600080fd5b50610404600480360381019080803573ffffffffffffffffffffffffffffffffffffffff169060200190929190505050611a7c565b005b34801561041257600080fd5b5061041b611bf0565b60405180826000191660001916815260200191505060405180910390f35b34801561044557600080fd5b5061046460048036038101908080359060200190929190505050611c29565b60405180848152602001838152602001828152602001935050505060405180910390f35b34801561049457600080fd5b5061049d611c61565b60405180826000191660001916815260200191505060405180910390f35b3480156104c757600080fd5b506104d0611c9a565b60405180826000191660001916815260200191505060405180910390f35b3480156104fa57600080fd5b5061051960048036038101908080359060200190929190505050611cd3565b6040518082815260200191505060405180910390f35b34801561053b57600080fd5b506105986004803603810190808035906020019092919080359060200190929190803573ffffffffffffffffffffffffffffffffffffffff1690602001909291908035906020019092919080359060200190929190505050611cf8565b005b3480156105a657600080fd5b5061074d60048036038101908080359060200190929190803573ffffffffffffffffffffffffffffffffffffffff169060200190929190803590602001908201803590602001908080601f0160208091040260200160405190810160405280939291908181526020018383808284378201915050505050509192919290803590602001908201803590602001908080601f0160208091040260200160405190810160405280939291908181526020018383808284378201915050505050509192919290803590602001908201803590602001908080601f0160208091040260200160405190810160405280939291908181526020018383808284378201915050505050509192919290803590602001908201803590602001908080601f016020809104026020016040519081016040528093929190818152602001838380828437820191505050505050919291929080359060200190929190803590602001908201803590602001908080601f016020809104026020016040519081016040528093929190818152602001838380828437820191505050505050919291929050505061227e565b005b34801561075b57600080fd5b5061077a60048036038101908080359060200190929190505050612693565b6040518082815260200191505060405180910390f35b6107ae600480360381019080803590602001909291905050506126c4565b005b3480156107bc57600080fd5b506107db60048036038101908080359060200190929190505050612c23565b604051808a81526020018973ffffffffffffffffffffffffffffffffffffffff1673ffffffffffffffffffffffffffffffffffffffff16815260200188815260200187815260200186815260200185815260200184815260200183151515158152602001828152602001995050505050505050505060405180910390f35b34801561086557600080fd5b5061088460048036038101908080359060200190929190505050612dca565b604051808b81526020018a81526020018973ffffffffffffffffffffffffffffffffffffffff1673ffffffffffffffffffffffffffffffffffffffff1681526020018873ffffffffffffffffffffffffffffffffffffffff1673ffffffffffffffffffffffffffffffffffffffff1681526020018773ffffffffffffffffffffffffffffffffffffffff1673ffffffffffffffffffffffffffffffffffffffff1681526020018060200180602001806020018060200186815260200185810385528a818151815260200191508051906020019080838360005b8381101561097857808201518184015260208101905061095d565b50505050905090810190601f1680156109a55780820380516001836020036101000a031916815260200191505b50858103845289818151815260200191508051906020019080838360005b838110156109de5780820151818401526020810190506109c3565b50505050905090810190601f168015610a0b5780820380516001836020036101000a031916815260200191505b50858103835288818151815260200191508051906020019080838360005b83811015610a44578082015181840152602081019050610a29565b50505050905090810190601f168015610a715780820380516001836020036101000a031916815260200191505b50858103825287818151815260200191508051906020019080838360005b83811015610aaa578082015181840152602081019050610a8f565b50505050905090810190601f168015610ad75780820380516001836020036101000a031916815260200191505b509e50505050505050505050505050505060405180910390f35b348015610afd57600080fd5b50610b06613104565b60405180826000191660001916815260200191505060405180910390f35b348015610b3057600080fd5b50610b3961313d565b60405180826000191660001916815260200191505060405180910390f35b60405180807f534849505045525f524f4c450000000000000000000000000000000000000000815250600c019050604051809103902081565b6000806000806000600a60008781526020019081526020016000209050806000015494508060010160009054906101000a900473ffffffffffffffffffffffffffffffffffffffff1693508060020154925080600301549150509193509193565b60008060008360011515600f600083815260200190815260200160002060009054906101000a900460ff161515146040805190810160405280601d81526020017f4552524f525f50555243484153455f444f45535f4e4f545f4558495354000000815250901515610cfd576040517f08c379a00000000000000000000000000000000000000000000000000000000081526004018080602001828103825283818151815260200191508051906020019080838360005b83811015610cc2578082015181840152602081019050610ca7565b50505050905090810190601f168015610cef5780820380516001836020036101000a031916815260200191505b509250505060405180910390fd5b50610d3f60405180807f534849505045525f524f4c450000000000000000000000000000000000000000815250600c0190506040518091039020336000613176565b1515610db3576040517f08c379a00000000000000000000000000000000000000000000000000000000081526004018080602001828103825260148152602001807f4d697373696e67205368697070657220526f6c6500000000000000000000000081525060200191505060405180910390fd5b60405180807f534849505045525f4f465f524f4c450000000000000000000000000000000000815250600f019050604051809103902033866001026040805190810160405280601781526020017f4d697373696e6720534849505045525f4f465f524f4c45000000000000000000815250610e2f848484613176565b81901515610ed8576040517f08c379a00000000000000000000000000000000000000000000000000000000081526004018080602001828103825283818151815260200191508051906020019080838360005b83811015610e9d578082015181840152602081019050610e82565b50505050905090810190601f168015610eca5780820380516001836020036101000a031916815260200191505b509250505060405180910390fd5b50600e60008a8152602001908152602001600020975060106000600754815260200190815260200160002096506007548760000181905550888760020181905550876001015487600301819055508760020154876004018190555087600301548760050181905550338760010160006101000a81548173ffffffffffffffffffffffffffffffffffffffff021916908373ffffffffffffffffffffffffffffffffffffffff160217905550428760060181905550600160116000600754815260200190815260200160002060006101000a81548160ff021916908315150217905550600a600088600401548152602001908152602001600020955061103e60405180807f52454349455645525f4f465f524f4c4500000000000000000000000000000000815250601001905060405180910390208760010160009054906101000a900473ffffffffffffffffffffffffffffffffffffffff168960000154600102613284565b7ff00b9a5725b80c54016f42114f6ed7792d22eecb116011c4afac29c57bef6c956007546040518082815260200191505060405180910390a1600160075401600781905550505050505050505050565b60008060008084600115156011600083815260200190815260200160002060009054906101000a900460ff161515146040805190810160405280601d81526020017f4552524f525f534849504d454e545f444f45535f4e4f545f455849535400000081525090151561119b576040517f08c379a00000000000000000000000000000000000000000000000000000000081526004018080602001828103825283818151815260200191508051906020019080838360005b83811015611160578082015181840152602081019050611145565b50505050905090810190601f16801561118d5780820380516001836020036101000a031916815260200191505b509250505060405180910390fd5b506111dd60405180807f42555945525f524f4c4500000000000000000000000000000000000000000000815250600a0190506040518091039020336000613176565b1515611251576040517f08c379a00000000000000000000000000000000000000000000000000000000081526004018080602001828103825260128152602001807f4d697373696e6720427579657220526f6c65000000000000000000000000000081525060200191505060405180910390fd5b60405180807f52454349455645525f4f465f524f4c45000000000000000000000000000000008152506010019050604051809103902033876001026040805190810160405280601881526020017f4d697373696e672052454349455645525f4f465f524f4c4500000000000000008152506112cd848484613176565b81901515611376576040517f08c379a00000000000000000000000000000000000000000000000000000000081526004018080602001828103825283818151815260200191508051906020019080838360005b8381101561133b578082015181840152602081019050611320565b50505050905090810190601f1680156113685780820380516001836020036101000a031916815260200191505b509250505060405180910390fd5b50601060008b81526020019081526020016000209850600015158960070160009054906101000a900460ff161515146040805190810160405280601781526020017f4552524f525f414c52454144595f44454c495645524544000000000000000000815250901515611483576040517f08c379a00000000000000000000000000000000000000000000000000000000081526004018080602001828103825283818151815260200191508051906020019080838360005b8381101561144857808201518184015260208101905061142d565b50505050905090810190601f1680156114755780820380516001836020036101000a031916815260200191505b509250505060405180910390fd5b5060018960070160006101000a81548160ff021916908315150217905550428960080181905550600860008a6005015481526020019081526020016000209750600c60008a6003015481526020019081526020016000209650866005015487600601541115611562578660040160009054906101000a900473ffffffffffffffffffffffffffffffffffffffff1673ffffffffffffffffffffffffffffffffffffffff166108fc88600601548960050154039081150290604051600060405180830381858888f19350505050158015611560573d6000803e3d6000fd5b505b8760020160009054906101000a900473ffffffffffffffffffffffffffffffffffffffff1673ffffffffffffffffffffffffffffffffffffffff166108fc88600301549081150290604051600060405180830381858888f193505050501580156115d0573d6000803e3d6000fd5b508660060154876005015488600301540103955085341115611636573373ffffffffffffffffffffffffffffffffffffffff166108fc8734039081150290604051600060405180830381858888f19350505050158015611634573d6000803e3d6000fd5b505b7ffcc296b8bdd64e3f1d1faadef50cb2d6550f645316330fe57cb1dd7e0612ead08a6040518082815260200191505060405180910390a150505050505050505050565b600260009054906101000a900473ffffffffffffffffffffffffffffffffffffffff1673ffffffffffffffffffffffffffffffffffffffff163373ffffffffffffffffffffffffffffffffffffffff16141561170a57600260009054906101000a900473ffffffffffffffffffffffffffffffffffffffff1673ffffffffffffffffffffffffffffffffffffffff16ff5b565b600080600080600080600080600c60008a815260200190815260200160002090508060000154975080600101549650806003015495508060040160009054906101000a900473ffffffffffffffffffffffffffffffffffffffff16945080600501549350806006015492508060070154915050919395979092949650565b60405180807f4f524445525f4f465f524f4c4500000000000000000000000000000000000000815250600d019050604051809103902081565b60405180807f42555945525f524f4c4500000000000000000000000000000000000000000000815250600a019050604051809103902081565b600082600115156009600083815260200190815260200160002060009054906101000a900460ff161515146040805190810160405280601c81526020017f4552524f525f484152564553545f444f45535f4e4f545f455849535400000000815250901515611905576040517f08c379a00000000000000000000000000000000000000000000000000000000081526004018080602001828103825283818151815260200191508051906020019080838360005b838110156118ca5780820151818401526020810190506118af565b50505050905090810190601f1680156118f75780820380516001836020036101000a031916815260200191505b509250505060405180910390fd5b50600a6000600454815260200190815260200160002091506004548260000181905550338260010160006101000a81548173ffffffffffffffffffffffffffffffffffffffff021916908373ffffffffffffffffffffffffffffffffffffffff1602179055508382600201819055508282600301819055506001600b6000600454815260200190815260200160002060006101000a81548160ff0219169083151502179055506119f060405180807f4f524445525f4f465f524f4c4500000000000000000000000000000000000000815250600d019050604051809103902033600454600102613284565b7f9156cebb0781971f996de6c50062a4f014940a06170b5a5101d2ef7e4919531460045484604051808381526020018281526020019250505060405180910390a160016004540160048190555050505050565b60405180807f4245454b45455045525f524f4c45000000000000000000000000000000000000815250600e019050604051809103902081565b600260009054906101000a900473ffffffffffffffffffffffffffffffffffffffff1673ffffffffffffffffffffffffffffffffffffffff163373ffffffffffffffffffffffffffffffffffffffff16146040805190810160405280601881526020017f4552524f525f4e4f545f434f4e54524143545f4f574e45520000000000000000815250901515611bab576040517f08c379a00000000000000000000000000000000000000000000000000000000081526004018080602001828103825283818151815260200191508051906020019080838360005b83811015611b70578082015181840152602081019050611b55565b50505050905090810190601f168015611b9d5780820380516001836020036101000a031916815260200191505b509250505060405180910390fd5b50611bed60405180807f484152564553545f524f4c450000000000000000000000000000000000000000815250600c0190506040518091039020826000613284565b50565b60405180807f484152564553545f4f465f524f4c450000000000000000000000000000000000815250600f019050604051809103902081565b600080600080600e60008681526020019081526020016000209050806000015493508060010154925080600401549150509193909250565b60405180807f42555945525f4f465f524f4c4500000000000000000000000000000000000000815250600d019050604051809103902081565b60405180807f52454349455645525f4f465f524f4c45000000000000000000000000000000008152506010019050604051809103902081565b600080600c600084815260200190815260200160002090508060060154915050919050565b600080611d3c60405180807f484152564553545f524f4c450000000000000000000000000000000000000000815250600c0190506040518091039020336000613176565b1515611db0576040517f08c379a00000000000000000000000000000000000000000000000000000000081526004018080602001828103825260168152602001807f4d697373696e672048617276657374657220526f6c650000000000000000000081525060200191505060405180910390fd5b8660011515600b600083815260200190815260200160002060009054906101000a900460ff161515146040805190810160405280601a81526020017f4552524f525f4f524445525f444f45535f4e4f545f4558495354000000000000815250901515611eb7576040517f08c379a00000000000000000000000000000000000000000000000000000000081526004018080602001828103825283818151815260200191508051906020019080838360005b83811015611e7c578082015181840152602081019050611e61565b50505050905090810190601f168015611ea95780820380516001836020036101000a031916815260200191505b509250505060405180910390fd5b5084841115606060405190810160405280603081526020017f4552524f525f5348495050494e47444f574e5041594d454e545f4d4f52455f5481526020017f48414e5f5348495050494e47434f535400000000000000000000000000000000815250901515611fc1576040517f08c379a00000000000000000000000000000000000000000000000000000000081526004018080602001828103825283818151815260200191508051906020019080838360005b83811015611f86578082015181840152602081019050611f6b565b50505050905090810190601f168015611fb35780820380516001836020036101000a031916815260200191505b509250505060405180910390fd5b50600a6000898152602001908152602001600020925061201e60405180807f484152564553545f4f465f524f4c450000000000000000000000000000000000815250600f0190506040518091039020338560020154600102613176565b1515612092576040517f08c379a00000000000000000000000000000000000000000000000000000000081526004018080602001828103825260198152602001807f4d697373696e67204841525645535445525f4f465f524f4c450000000000000081525060200191505060405180910390fd5b600c600060055481526020019081526020016000209150600554826000018190555087826001018190555082600201548260020181905550868260030181905550858260040160006101000a81548173ffffffffffffffffffffffffffffffffffffffff021916908373ffffffffffffffffffffffffffffffffffffffff1602179055508482600501819055508382600601819055504282600701819055506001600d6000600554815260200190815260200160002060006101000a81548160ff0219169083151502179055506121c460405180807f42555945525f524f4c4500000000000000000000000000000000000000000000815250600a01905060405180910390208460010160009054906101000a900473ffffffffffffffffffffffffffffffffffffffff166000613284565b61222f60405180807f42555945525f4f465f524f4c4500000000000000000000000000000000000000815250600d01905060405180910390208460010160009054906101000a900473ffffffffffffffffffffffffffffffffffffffff168460000154600102613284565b7f290738b2ee23b5c98aaed144b2259ba1c7e9feaf4ae53769437fe3c52e05dc036005546040518082815260200191505060405180910390a16001600554016005819055505050505050505050565b60006122c160405180807f484152564553545f524f4c450000000000000000000000000000000000000000815250600c0190506040518091039020336000613176565b1515612335576040517f08c379a00000000000000000000000000000000000000000000000000000000081526004018080602001828103825260168152602001807f4d697373696e672048617276657374657220526f6c650000000000000000000081525060200191505060405180910390fd5b60001515600960008b815260200190815260200160002060009054906101000a900460ff161515146040805190810160405280601c81526020017f4552524f525f484152564553545f414c52454144595f4558495354530000000081525090151561243b576040517f08c379a00000000000000000000000000000000000000000000000000000000081526004018080602001828103825283818151815260200191508051906020019080838360005b838110156124005780820151818401526020810190506123e5565b50505050905090810190601f16801561242d5780820380516001836020036101000a031916815260200191505b509250505060405180910390fd5b50600860008a815260200190815260200160002090506003548160000181905550888160010181905550600260009054906101000a900473ffffffffffffffffffffffffffffffffffffffff168160030160006101000a81548173ffffffffffffffffffffffffffffffffffffffff021916908373ffffffffffffffffffffffffffffffffffffffff160217905550878160040160006101000a81548173ffffffffffffffffffffffffffffffffffffffff021916908373ffffffffffffffffffffffffffffffffffffffff160217905550868160050190805190602001906125259291906135eb565b508581600601908051906020019061253e9291906135eb565b50848160070190805190602001906125579291906135eb565b50838160080190805190602001906125709291906135eb565b508281600901819055508181600b0190805190602001906125929291906135eb565b50338160020160006101000a81548173ffffffffffffffffffffffffffffffffffffffff021916908373ffffffffffffffffffffffffffffffffffffffff1602179055506001600960008b815260200190815260200160002060006101000a81548160ff02191690831515021790555061264560405180807f484152564553545f4f465f524f4c450000000000000000000000000000000000815250600f0190506040518091039020338b600102613284565b7f8e55ccfc9778ff8eba1646d765cf1982537ce0f9257054a17b48aad745250183896040518082815260200191505060405180910390a1600160035401600381905550505050505050505050565b600080600c600084815260200190815260200160002090508060060154816005015482600301540103915050919050565b6000808260011515600d600083815260200190815260200160002060009054906101000a900460ff161515146040805190810160405280601a81526020017f4552524f525f51554f54455f444f45535f4e4f545f45584953540000000000008152509015156127ce576040517f08c379a00000000000000000000000000000000000000000000000000000000081526004018080602001828103825283818151815260200191508051906020019080838360005b83811015612793578082015181840152602081019050612778565b50505050905090810190601f1680156127c05780820380516001836020036101000a031916815260200191505b509250505060405180910390fd5b5061281060405180807f42555945525f524f4c4500000000000000000000000000000000000000000000815250600a0190506040518091039020336000613176565b1515612884576040517f08c379a00000000000000000000000000000000000000000000000000000000081526004018080602001828103825260128152602001807f4d697373696e6720427579657220526f6c65000000000000000000000000000081525060200191505060405180910390fd5b60405180807f42555945525f4f465f524f4c4500000000000000000000000000000000000000815250600d019050604051809103902033856001026040805190810160405280601581526020017f4d697373696e672042555945525f4f465f524f4c450000000000000000000000815250612900848484613176565b819015156129a9576040517f08c379a00000000000000000000000000000000000000000000000000000000081526004018080602001828103825283818151815260200191508051906020019080838360005b8381101561296e578082015181840152602081019050612953565b50505050905090810190601f16801561299b5780820380516001836020036101000a031916815260200191505b509250505060405180910390fd5b50600c60008981526020019081526020016000209650600e600060065481526020019081526020016000209550878660010181905550600654866000018190555086600101548660020181905550866002015486600301819055504286600401819055506001600f6000600654815260200190815260200160002060006101000a81548160ff0219169083151502179055508660040160009054906101000a900473ffffffffffffffffffffffffffffffffffffffff1673ffffffffffffffffffffffffffffffffffffffff166108fc88600601549081150290604051600060405180830381858888f19350505050158015612aa9573d6000803e3d6000fd5b508660060154341115612b04573373ffffffffffffffffffffffffffffffffffffffff166108fc886006015434039081150290604051600060405180830381858888f19350505050158015612b02573d6000803e3d6000fd5b505b612b6960405180807f534849505045525f524f4c450000000000000000000000000000000000000000815250600c01905060405180910390208860040160009054906101000a900473ffffffffffffffffffffffffffffffffffffffff166000613284565b612bd460405180807f534849505045525f4f465f524f4c450000000000000000000000000000000000815250600f01905060405180910390208860040160009054906101000a900473ffffffffffffffffffffffffffffffffffffffff168860000154600102613284565b7f653d56639fee6b566a5c804764e9689de38645f0b733df89a36a1b7b42173dd86006546040518082815260200191505060405180910390a16001600654016006819055505050505050505050565b6000806000806000806000806000808a600115156011600083815260200190815260200160002060009054906101000a900460ff161515146040805190810160405280601d81526020017f4552524f525f534849504d454e545f444f45535f4e4f545f4558495354000000815250901515612d39576040517f08c379a00000000000000000000000000000000000000000000000000000000081526004018080602001828103825283818151815260200191508051906020019080838360005b83811015612cfe578082015181840152602081019050612ce3565b50505050905090810190601f168015612d2b5780820380516001836020036101000a031916815260200191505b509250505060405180910390fd5b50601060008d8152602001908152602001600020915081600001549a508160010160009054906101000a900473ffffffffffffffffffffffffffffffffffffffff16995081600201549850816003015497508160040154965081600501549550816006015494508160070160009054906101000a900460ff1693508160080154925050509193959799909294969850565b6000806000806000606080606080600080600860008d8152602001908152602001600020905080600001549a50806001015499508060020160009054906101000a900473ffffffffffffffffffffffffffffffffffffffff1698508060030160009054906101000a900473ffffffffffffffffffffffffffffffffffffffff1697508060040160009054906101000a900473ffffffffffffffffffffffffffffffffffffffff169650806005018054600181600116156101000203166002900480601f016020809104026020016040519081016040528092919081815260200182805460018160011615610100020316600290048015612f0b5780601f10612ee057610100808354040283529160200191612f0b565b820191906000526020600020905b815481529060010190602001808311612eee57829003601f168201915b50505050509550806006018054600181600116156101000203166002900480601f016020809104026020016040519081016040528092919081815260200182805460018160011615610100020316600290048015612faa5780601f10612f7f57610100808354040283529160200191612faa565b820191906000526020600020905b815481529060010190602001808311612f8d57829003601f168201915b50505050509450806007018054600181600116156101000203166002900480601f0160208091040260200160405190810160405280929190818152602001828054600181600116156101000203166002900480156130495780601f1061301e57610100808354040283529160200191613049565b820191906000526020600020905b81548152906001019060200180831161302c57829003601f168201915b50505050509350806008018054600181600116156101000203166002900480601f0160208091040260200160405190810160405280929190818152602001828054600181600116156101000203166002900480156130e85780601f106130bd576101008083540402835291602001916130e8565b820191906000526020600020905b8154815290600101906020018083116130cb57829003601f168201915b5050505050925080600901549150509193959799509193959799565b60405180807f484152564553545f524f4c450000000000000000000000000000000000000000815250600c019050604051809103902081565b60405180807f534849505045525f4f465f524f4c450000000000000000000000000000000000815250600f019050604051809103902081565b600080600073ffffffffffffffffffffffffffffffffffffffff168473ffffffffffffffffffffffffffffffffffffffff1614151515613244576040517f08c379a00000000000000000000000000000000000000000000000000000000081526004018080602001828103825260268152602001807f43616e6e6f7420636865636b2061646472657373206f6620636f6e747261637481526020017f206f776e6572000000000000000000000000000000000000000000000000000081525060400191505060405180910390fd5b61324f848685613420565b905060016000826000191660001916815260200190815260200160002060009054906101000a900460ff169150509392505050565b60008061329085613530565b915060011515600080846000191660001916815260200190815260200160002060009054906101000a900460ff161515141515613335576040517f08c379a00000000000000000000000000000000000000000000000000000000081526004018080602001828103825260148152602001807f526f6c6520446f6573204e6f742045786973747300000000000000000000000081525060200191505060405180910390fd5b613340848685613420565b90506000151560016000836000191660001916815260200190815260200160002060009054906101000a900460ff1615151415156133e6576040517f08c379a00000000000000000000000000000000000000000000000000000000081526004018080602001828103825260198152602001807f5065726d697373696f6e20416c7265616479204578697374730000000000000081525060200191505060405180910390fd5b6001806000836000191660001916815260200190815260200160002060006101000a81548160ff0219169083151502179055505050505050565b600083838360405160200180807f5045524d495353494f4e00000000000000000000000000000000000000000000815250600a018473ffffffffffffffffffffffffffffffffffffffff1673ffffffffffffffffffffffffffffffffffffffff166c010000000000000000000000000281526014018360001916600019168152602001826000191660001916815260200193505050506040516020818303038152906040526040518082805190602001908083835b6020831015156134fa57805182526020820191506020810190506020830392506134d5565b6001836020036101000a038019825116818451168082178552505050505050905001915050604051809103902090509392505050565b60008160405160200180807f524f4c450000000000000000000000000000000000000000000000000000000081525060040182600019166000191681526020019150506040516020818303038152906040526040518082805190602001908083835b6020831015156135b75780518252602082019150602081019050602083039250613592565b6001836020036101000a03801982511681845116808217855250505050505090500191505060405180910390209050919050565b828054600181600116156101000203166002900490600052602060002090601f016020900481019282601f1061362c57805160ff191683800117855561365a565b8280016001018555821561365a579182015b8281111561365957825182559160200191906001019061363e565b5b509050613667919061366b565b5090565b61368d91905b80821115613689576000816000905550600101613671565b5090565b905600a165627a7a7230582095edee07d329f720cd124abecfb4149c132c69423d0a41cf5a04bcedbde1886e0029",
  "source": "pragma solidity ^0.4.24;\n\nimport \"../honeyaccesscontrol/AccessControl.sol\";\n// Define a contract 'Supplychain'\ncontract SupplyChain is AccessControl {\n\n    // Define 'owner'\n    address owner;\n\n    //bytes32 public constant OWNER_ROLE = keccak256(\"OWNER_ROLE\");\n\n\n    //bytes32 public constant SHIPPER_ROLE = keccak256(\"SHIPPER_ROLE\");\n\n    // Define a variable called 'upc' for Universal Product Code (UPC)\n    // uint  upc;\n\n    // Define a variable called 'sku' for Stock Keeping Unit (SKU)\n    uint sku;\n\n    uint orderIdIndex;\n\n    uint quoteIdIndex;\n\n    uint purchaseIdIndex;\n\n    uint shipmentIdIndex;\n\n    // Define a public mapping 'harvests' that maps the UPC to a Harvest.\n    mapping (uint => Harvest) harvests;\n    mapping (uint => bool) harvestUPCs;\n\n    // Define a public mapping 'orders' that maps the UPC to an Order.\n    mapping (uint => Order) orders;\n    mapping (uint => bool) orderIds;\n\n    // Define a public mapping 'quotes' that maps the orderId to a quote.\n    mapping (uint => Quote) quotes;\n    mapping (uint => bool) quoteIds;\n\n    // Define a public mapping 'purchases' that maps the purchaseId to a purchase.\n    mapping (uint => Purchase) purchases;\n    mapping (uint => bool) purchaseIds;\n\n     // Define a public mapping 'shipment' that maps the shipmentId to a shipment.\n    mapping (uint => Shipment) shipments;\n    mapping (uint => bool) shipmentIds;\n\n    // Define a public mapping 'harvestsHistory' that maps the UPC to an array of TxHash,\n    // that track its journey through the supply chain -- to be sent from DApp.\n    mapping (uint => string[]) harvestsHistory;\n\n\n    string private constant ERROR_NOT_CONTRACT_OWNER = \"ERROR_NOT_CONTRACT_OWNER\";\n    string private constant ERROR_HARVEST_DOES_NOT_EXIST = \"ERROR_HARVEST_DOES_NOT_EXIST\";\n    string private constant ERROR_HARVEST_ALREADY_EXISTS = \"ERROR_HARVEST_ALREADY_EXISTS\";\n    string private constant ERROR_ORDER_DOES_NOT_EXIST = \"ERROR_ORDER_DOES_NOT_EXIST\";\n    string private constant ERROR_QUOTE_DOES_NOT_EXIST = \"ERROR_QUOTE_DOES_NOT_EXIST\";\n    string private constant ERROR_PURCHASE_DOES_NOT_EXIST = \"ERROR_PURCHASE_DOES_NOT_EXIST\";\n    string private constant ERROR_SHIPMENT_DOES_NOT_EXIST = \"ERROR_SHIPMENT_DOES_NOT_EXIST\";\n    string private constant ERROR_ALREADY_DELIVERED = \"ERROR_ALREADY_DELIVERED\";\n    string private constant ERROR_SHIPPINGDOWNPAYMENT = \"ERROR_SHIPPINGDOWNPAYMENT_MORE_THAN_SHIPPINGCOST\";\n\n    // Define enum 'State' with the following values:\n    enum State\n    {\n        Harvested,              // 0\n        PlacedOrder,            // 1\n        SentQuote,              // 2\n        Purchased,     // 3\n        Shipped,          // 4\n        Delivered,         // 5\n        ReleasedPayment         // 6\n    }\n\n    // Define a struct 'Item' with the following fields:\n    struct Harvest {\n        uint    sku;  // Stock Keeping Unit (SKU)\n        uint    upc; // Universal Product Code (UPC), generated by the Harvester, goes on the package, can be verified by the Buyer\n        address harvesterId;  // Metamask-Ethereum address of the Harvester\n        address ownerID;  // Metamask-Ethereum address of the current owner as the product moves through 8 stages\n        address originBeekeeperID; // Metamask-Ethereum address of the BeeKeeper\n        string  originBeekeeperName; // BeeKeeper Name\n        string  originFarmInformation;  // BeeKeeper Information\n        string  originFarmLatitude; // Farm Latitude\n        string  originFarmLongitude;  // Farm Longitude\n        uint    quantity; // Quantity in milliliters\n        uint    productID;  // Product ID potentially a combination of upc + sku\n        string  productNotes; // Product Notes\n        uint    productPrice; // Product Price\n        address shipperID; // Metamask-Ethereum address of the Shipper\n        address buyerID; // Metamask-Ethereum address of the Buyer\n    }\n\n    struct Order {\n        uint    orderId;\n        address buyerId;\n        uint    upc;\n        uint    quantity;\n    }\n\n    struct Quote {\n        uint    quoteId;\n        uint    orderId;\n        uint    upc;\n        uint    price;\n        address shipperId;\n        uint    shippingCost;\n        uint    shippingDownPayment;\n        uint    date;\n    }\n\n    struct Purchase {\n        uint    purchaseId;\n        uint    quoteId;\n        uint    orderId;\n        uint    upc;\n        uint    date;\n        uint    shipmentId;\n    }\n\n    struct Shipment {\n        uint    shipmentId;\n        address shipper;\n        uint    purchaseId;\n        uint    quoteId;\n        uint    orderId;\n        uint    upc;\n        uint    date;\n        bool    delivered;\n        uint    dateDelivered;\n    }\n\n    // Define 8 events with the same 8 state values and accept 'upc' as input argument\n    event Harvested(uint upc);\n    event PlacedOrder(uint orderId,uint quantity);\n    event SentQuote(uint quoteId);\n    event Purchased(uint purchaseId);\n    event Shipped(uint shipmentId);\n    event Delivered(uint shipmentId);\n\n    // Define a modifer that checks to see if msg.sender == owner of the contract\n    modifier onlyOwner() {\n        require(msg.sender == owner, ERROR_NOT_CONTRACT_OWNER);\n        _;\n    }\n\n\n    // Define a modifer that verifies the Caller\n    modifier verifyCaller (address _address) {\n        require(msg.sender == _address);\n        _;\n    }\n\n\n    modifier harvestExists(uint _upc) {\n        require(harvestUPCs[_upc] == true, ERROR_HARVEST_DOES_NOT_EXIST);\n        _;\n    }\n\n    modifier orderExists(uint _orderId) {\n        require(orderIds[_orderId] == true, ERROR_ORDER_DOES_NOT_EXIST);\n        _;\n    }\n\n    modifier quoteExists(uint _quoteId) {\n        require(quoteIds[_quoteId] == true, ERROR_QUOTE_DOES_NOT_EXIST);\n        _;\n    }\n\n    modifier purchaseExists(uint _purchaseId) {\n        require(purchaseIds[_purchaseId] == true, ERROR_PURCHASE_DOES_NOT_EXIST);\n        _;\n    }\n\n    modifier shipmentExists(uint _shippingId) {\n        require(shipmentIds[_shippingId] == true, ERROR_SHIPMENT_DOES_NOT_EXIST);\n        _;\n    }\n    // Define a modifier that checks the price and refunds the remaining balance\n    modifier checkValue(uint _upc) {\n        _;\n        uint _price = harvests[_upc].productPrice;\n        uint amountToReturn = msg.value - _price;\n        harvests[_upc].buyerID.transfer(amountToReturn);\n    }\n\n    // In the constructor set 'owner' to the address that instantiated the contract\n    // and set 'sku' to 1\n    // and set 'upc' to 1\n    constructor() public payable {\n        owner = msg.sender;\n        sku = 1;\n        orderIdIndex = 1;\n        quoteIdIndex = 1;\n        purchaseIdIndex = 1;\n        shipmentIdIndex = 1;\n    }\n\n    // Define a function 'kill' if required\n    function kill() public {\n        if (msg.sender == owner) {\n          selfdestruct(owner);\n        }\n    }\n\n    function addHarvester(address _who)\n        public\n        onlyOwner{\n        addPermission(HARVEST_ROLE, _who, \"\");\n    }\n\n    // Define a function 'harvestItem' that allows a farmer to mark an harvest 'Harvested'\n    function harvestItem(uint _upc, address _originBeekeeperID, string _originBeekeeperName, string _originFarmInformation, string  _originFarmLatitude, string  _originFarmLongitude, uint _quantity, string  _productNotes) public\n    onlyHarvester()\n    {\n        require(harvestUPCs[_upc] == false, ERROR_HARVEST_ALREADY_EXISTS);\n        // Add the new harvest as part of Harvest\n        Harvest storage harvest_ = harvests[_upc];\n        harvest_.sku = sku;\n        harvest_.upc = _upc;\n        harvest_.ownerID = owner;\n        harvest_.originBeekeeperID = _originBeekeeperID;\n        harvest_.originBeekeeperName = _originBeekeeperName;\n        harvest_.originFarmInformation = _originFarmInformation;\n        harvest_.originFarmLatitude = _originFarmLatitude;\n        harvest_.originFarmLongitude = _originFarmLongitude;\n        harvest_.quantity = _quantity;\n        harvest_.productNotes = _productNotes;\n        harvest_.harvesterId = msg.sender;\n        harvestUPCs[_upc] = true;\n        addPermission(HARVESTER_OF_ROLE, msg.sender, bytes32(_upc));\n        emit Harvested(_upc);\n        sku = sku + 1;\n    }\n\n    function placeOrder(uint _upc, uint quantity) public\n    harvestExists(_upc)\n    // Anybody can Place an Order\n    {\n        Order storage order_ = orders[orderIdIndex];\n        order_.orderId = orderIdIndex;\n        order_.buyerId = msg.sender;\n        order_.upc = _upc;\n        order_.quantity = quantity;\n        orderIds[orderIdIndex] = true;\n        addPermission(ORDER_OF_ROLE, msg.sender, bytes32(orderIdIndex));\n\n        emit PlacedOrder(orderIdIndex, quantity);\n\n        orderIdIndex = orderIdIndex + 1;\n    }\n\n    // Define a function 'packItem' that allows a farmer to mark an harvest 'Packed'\n    function sendQuote(uint _orderId, uint _price, address _shipperId, uint _shippingCost,uint _shippingDownPayment) public\n    onlyHarvester()\n    orderExists(_orderId)\n    {\n\n        require(_shippingDownPayment <= _shippingCost, ERROR_SHIPPINGDOWNPAYMENT);\n        Order storage order_ = orders[_orderId];\n        require(has(HARVESTER_OF_ROLE, msg.sender, bytes32(order_.upc)), \"Missing HARVESTER_OF_ROLE\");\n        Quote storage quote_ = quotes[quoteIdIndex];\n        quote_.quoteId = quoteIdIndex;\n        quote_.orderId = _orderId;\n        quote_.upc = order_.upc;\n        quote_.price = _price;\n        quote_.shipperId = _shipperId;\n        quote_.shippingCost = _shippingCost;\n        quote_.shippingDownPayment = _shippingDownPayment;\n        quote_.date = now;\n        quoteIds[quoteIdIndex] = true;\n\n        addPermission(BUYER_ROLE, order_.buyerId, \"\");\n        addPermission(BUYER_OF_ROLE, order_.buyerId, bytes32(quote_.quoteId));\n\n        emit SentQuote(quoteIdIndex);\n        quoteIdIndex = quoteIdIndex + 1;\n    }\n\n    // Define a function 'sellItem' that allows a farmer to mark an harvest 'ForSale'\n    function purchase(uint _quoteId) public\n    quoteExists(_quoteId)\n    onlyBuyer()\n    hasPermission(BUYER_OF_ROLE, msg.sender, bytes32(_quoteId) ,\"Missing BUYER_OF_ROLE\") payable\n    {\n        Quote storage quote_ = quotes[_quoteId];\n        Purchase storage purchase_ = purchases[purchaseIdIndex];\n        purchase_.quoteId = _quoteId;\n        purchase_.purchaseId = purchaseIdIndex;\n        purchase_.orderId = quote_.orderId;\n        purchase_.upc = quote_.upc;\n        purchase_.date = now;\n        purchaseIds[purchaseIdIndex] = true;\n\n        quote_.shipperId.transfer(quote_.shippingDownPayment);\n        if(msg.value > quote_.shippingDownPayment) {\n            msg.sender.transfer(msg.value - quote_.shippingDownPayment);\n        }\n\n        addPermission(SHIPPER_ROLE, quote_.shipperId, \"\");\n        addPermission(SHIPPER_OF_ROLE, quote_.shipperId, bytes32(purchase_.purchaseId));\n\n        emit Purchased(purchaseIdIndex);\n        purchaseIdIndex = purchaseIdIndex + 1;\n    }\n\n    // Define a function 'ship' that allows the harvester to mark an harvest 'Shipped'\n    // Use the above modifers to check if the harvest is sold\n    function ship(uint _purchaseId) public\n      purchaseExists(_purchaseId)\n      onlyShipper()\n      hasPermission(SHIPPER_OF_ROLE, msg.sender, bytes32(_purchaseId) ,\"Missing SHIPPER_OF_ROLE\")\n    {\n\n        Purchase storage purchase_ = purchases[_purchaseId];\n        Shipment storage shipment_ = shipments[shipmentIdIndex];\n        shipment_.shipmentId = shipmentIdIndex;\n        shipment_.purchaseId = _purchaseId;\n        shipment_.quoteId = purchase_.quoteId;\n        shipment_.orderId = purchase_.orderId;\n        shipment_.upc = purchase_.upc;\n        shipment_.shipper = msg.sender;\n        shipment_.date = now;\n        shipmentIds[shipmentIdIndex] = true;\n\n        Order storage order_ = orders[shipment_.orderId];\n        addPermission(RECIEVER_OF_ROLE, order_.buyerId, bytes32(shipment_.shipmentId));\n\n        emit Shipped(shipmentIdIndex);\n        shipmentIdIndex = shipmentIdIndex + 1;\n\n    }\n\n    // Define a function 'receiveItem' that allows the shipper to mark an harvest 'Received'\n    // Use the above modifiers to check if the harvest is shipped\n    function deliver(uint _shipmentId) public\n        shipmentExists(_shipmentId)\n        onlyBuyer()\n        hasPermission(RECIEVER_OF_ROLE, msg.sender, bytes32(_shipmentId) ,\"Missing RECIEVER_OF_ROLE\") payable\n    {\n\n        Shipment storage shipment_ = shipments[_shipmentId];\n        require(shipment_.delivered == false, ERROR_ALREADY_DELIVERED);\n\n        shipment_.delivered = true;\n        shipment_.dateDelivered = now;\n\n        Harvest storage harvest_ = harvests[shipment_.upc];\n        Quote storage quote_ = quotes[shipment_.quoteId];\n\n        //Pay shipping balance\n\n        if(quote_.shippingDownPayment > quote_.shippingCost) {\n            quote_.shipperId.transfer(quote_.shippingCost - quote_.shippingDownPayment);\n        }\n\n        harvest_.harvesterId.transfer(quote_.price);\n\n\n        uint256 balanceCost = quote_.price + quote_.shippingCost - quote_.shippingDownPayment;\n        if(msg.value > balanceCost) {\n            msg.sender.transfer(msg.value - balanceCost);\n        }\n\n        emit Delivered(_shipmentId);\n    }\n\n\n    // Define a function 'fetchHarvest' that fetches the data\n    function fetchHarvest(uint _upc) public view returns\n    (\n    uint    harvestSKU,\n    uint    harvestUPC,\n    address harvesterId,\n    address ownerID,\n    address originBeekeeperID,\n    string  originBeekeeperName,\n    string  originFarmInformation,\n    string  originFarmLatitude,\n    string  originFarmLongitude,\n    uint    quantity\n    )\n    {\n      // Assign values to the 8 parameters\n\n        Harvest storage harvest_ = harvests[_upc];\n        harvestSKU = harvest_.sku;\n        harvestUPC = harvest_.upc;\n        harvesterId = harvest_.harvesterId;\n        ownerID = harvest_.ownerID;\n        originBeekeeperID = harvest_.originBeekeeperID;\n        originBeekeeperName = harvest_.originBeekeeperName;\n        originFarmInformation = harvest_.originFarmInformation;\n        originFarmLatitude = harvest_.originFarmLatitude;\n        originFarmLongitude = harvest_.originFarmLongitude;\n        quantity = harvest_.quantity;\n    }\n\n    // Define a function 'fetchHarvest' that fetches the data\n    function fetchOrder(uint _orderId) public view returns\n    (\n    uint    orderId,\n    address buyerId,\n    uint    harvestUPC,\n    uint    quantity\n    )\n    {\n        Order storage order_ = orders[_orderId];\n        orderId = order_.orderId;\n        buyerId = order_.buyerId;\n        harvestUPC = order_.upc;\n        quantity = order_.quantity;\n    }\n\n    // Define a function 'fetchHarvest' that fetches the data\n    function fetchQuote(uint _quoteId) public view returns\n    (\n    uint    quoteId,\n    uint    orderId,\n    uint    price,\n    address shipperId,\n    uint    shippingCost,\n    uint    shippingDownPayment,\n    uint    date\n    )\n    {\n        Quote storage quote_ = quotes[_quoteId];\n        quoteId = quote_.quoteId;\n        orderId = quote_.orderId;\n        price = quote_.price;\n        shipperId = quote_.shipperId;\n        shippingCost = quote_.shippingCost;\n        shippingDownPayment = quote_.shippingDownPayment;\n        date = quote_.date;\n    }\n\n    function fetchDownpayment(uint _quoteId) public view returns\n    (\n    uint    downPayment\n    )\n    {\n        Quote storage quote_ = quotes[_quoteId];\n        downPayment = quote_.shippingDownPayment;\n    }\n\n    function fetchDeliveryBalance(uint _quoteId) public view returns\n    (\n    uint    balance\n    )\n    {\n        Quote storage quote_ = quotes[_quoteId];\n        balance = quote_.price + quote_.shippingCost - quote_.shippingDownPayment;\n    }\n\n    function fetchPurchase(uint _purchaseId) public view returns\n    (\n    uint    purchaseId,\n    uint    quoteId,\n    uint    date\n    )\n    {\n        Purchase storage purchase_ = purchases[_purchaseId];\n        purchaseId = purchase_.purchaseId;\n        quoteId = purchase_.quoteId;\n        date = purchase_.date;\n    }\n\n    function fetchShipment(uint _shipmentId) public view shipmentExists(_shipmentId) returns\n    (\n    uint    shipmentId,\n    address shipper,\n    uint    purchaseId,\n    uint    quoteId,\n    uint    orderId,\n    uint    upc,\n    uint    date,\n    bool    delivered,\n    uint    dateDelivered\n    )\n    {\n        Shipment storage shipment_ = shipments[_shipmentId];\n        shipmentId = shipment_.shipmentId;\n        shipper = shipment_.shipper;\n        purchaseId = shipment_.purchaseId;\n        quoteId = shipment_.quoteId;\n        orderId = shipment_.orderId;\n        upc = shipment_.upc;\n        date = shipment_.date;\n        delivered = shipment_.delivered;\n        dateDelivered = shipment_.dateDelivered;\n    }\n}\n",
  "sourcePath": "/Users/Tony/Documents/Projects2018/honeyChain/project-6/contracts/honeybase/SupplyChain.sol",
  "compiler": {
    "name": "solc",
    "version": "0.4.24+commit.e67f0147.Emscripten.clang"
  },
  "schemaVersion": "2.0.1",
  "updatedAt": "2019-03-01T18:19:58.499Z"
}