{
  "contractName": "SupplyChain",
  "abi": [
    {
      "constant": false,
      "inputs": [
        {
          "name": "_role",
          "type": "bytes32"
        }
      ],
      "name": "addRole",
      "outputs": [],
      "payable": false,
      "stateMutability": "nonpayable",
      "type": "function"
    },
    {
      "constant": false,
      "inputs": [
        {
          "name": "_role",
          "type": "bytes32"
        },
        {
          "name": "_who",
          "type": "address"
        },
        {
          "name": "_for",
          "type": "bytes32"
        }
      ],
      "name": "addPermission",
      "outputs": [],
      "payable": false,
      "stateMutability": "nonpayable",
      "type": "function"
    },
    {
      "constant": true,
      "inputs": [],
      "name": "ORDER_OF_ROLE",
      "outputs": [
        {
          "name": "",
          "type": "bytes32"
        }
      ],
      "payable": false,
      "stateMutability": "view",
      "type": "function"
    },
    {
      "constant": true,
      "inputs": [],
      "name": "HARVESTER_OF_ROLE",
      "outputs": [
        {
          "name": "",
          "type": "bytes32"
        }
      ],
      "payable": false,
      "stateMutability": "view",
      "type": "function"
    },
    {
      "constant": true,
      "inputs": [],
      "name": "BUYER_OF_ROLE",
      "outputs": [
        {
          "name": "",
          "type": "bytes32"
        }
      ],
      "payable": false,
      "stateMutability": "view",
      "type": "function"
    },
    {
      "constant": true,
      "inputs": [],
      "name": "RECIEVER_OF_ROLE",
      "outputs": [
        {
          "name": "",
          "type": "bytes32"
        }
      ],
      "payable": false,
      "stateMutability": "view",
      "type": "function"
    },
    {
      "constant": true,
      "inputs": [],
      "name": "HARVEST_ROLE",
      "outputs": [
        {
          "name": "",
          "type": "bytes32"
        }
      ],
      "payable": false,
      "stateMutability": "view",
      "type": "function"
    },
    {
      "constant": true,
      "inputs": [],
      "name": "SHIPPER_OF_ROLE",
      "outputs": [
        {
          "name": "",
          "type": "bytes32"
        }
      ],
      "payable": false,
      "stateMutability": "view",
      "type": "function"
    },
    {
      "inputs": [],
      "payable": true,
      "stateMutability": "payable",
      "type": "constructor"
    },
    {
      "anonymous": false,
      "inputs": [
        {
          "indexed": false,
          "name": "upc",
          "type": "uint256"
        }
      ],
      "name": "Harvested",
      "type": "event"
    },
    {
      "anonymous": false,
      "inputs": [
        {
          "indexed": false,
          "name": "orderId",
          "type": "uint256"
        },
        {
          "indexed": false,
          "name": "quantity",
          "type": "uint256"
        }
      ],
      "name": "PlacedOrder",
      "type": "event"
    },
    {
      "anonymous": false,
      "inputs": [
        {
          "indexed": false,
          "name": "quoteId",
          "type": "uint256"
        }
      ],
      "name": "SentQuote",
      "type": "event"
    },
    {
      "anonymous": false,
      "inputs": [
        {
          "indexed": false,
          "name": "purchaseId",
          "type": "uint256"
        }
      ],
      "name": "Purchased",
      "type": "event"
    },
    {
      "anonymous": false,
      "inputs": [
        {
          "indexed": false,
          "name": "shipmentId",
          "type": "uint256"
        }
      ],
      "name": "Shipped",
      "type": "event"
    },
    {
      "anonymous": false,
      "inputs": [
        {
          "indexed": false,
          "name": "shipmentId",
          "type": "uint256"
        }
      ],
      "name": "Delivered",
      "type": "event"
    },
    {
      "constant": false,
      "inputs": [],
      "name": "kill",
      "outputs": [],
      "payable": false,
      "stateMutability": "nonpayable",
      "type": "function"
    },
    {
      "constant": false,
      "inputs": [
        {
          "name": "_upc",
          "type": "uint256"
        },
        {
          "name": "_originBeekeeperID",
          "type": "address"
        },
        {
          "name": "_originBeekeeperName",
          "type": "string"
        },
        {
          "name": "_originFarmInformation",
          "type": "string"
        },
        {
          "name": "_originFarmLatitude",
          "type": "string"
        },
        {
          "name": "_originFarmLongitude",
          "type": "string"
        },
        {
          "name": "_quantity",
          "type": "uint256"
        },
        {
          "name": "_productNotes",
          "type": "string"
        }
      ],
      "name": "harvestItem",
      "outputs": [],
      "payable": false,
      "stateMutability": "nonpayable",
      "type": "function"
    },
    {
      "constant": false,
      "inputs": [
        {
          "name": "_upc",
          "type": "uint256"
        },
        {
          "name": "quantity",
          "type": "uint256"
        }
      ],
      "name": "placeOrder",
      "outputs": [],
      "payable": false,
      "stateMutability": "nonpayable",
      "type": "function"
    },
    {
      "constant": false,
      "inputs": [
        {
          "name": "_orderId",
          "type": "uint256"
        },
        {
          "name": "_price",
          "type": "uint256"
        },
        {
          "name": "_shipperId",
          "type": "address"
        },
        {
          "name": "_shippingCost",
          "type": "uint256"
        },
        {
          "name": "_shippingDownPayment",
          "type": "uint256"
        }
      ],
      "name": "sendQuote",
      "outputs": [],
      "payable": false,
      "stateMutability": "nonpayable",
      "type": "function"
    },
    {
      "constant": false,
      "inputs": [
        {
          "name": "_quoteId",
          "type": "uint256"
        }
      ],
      "name": "purchase",
      "outputs": [],
      "payable": true,
      "stateMutability": "payable",
      "type": "function"
    },
    {
      "constant": false,
      "inputs": [
        {
          "name": "_purchaseId",
          "type": "uint256"
        }
      ],
      "name": "ship",
      "outputs": [],
      "payable": false,
      "stateMutability": "nonpayable",
      "type": "function"
    },
    {
      "constant": false,
      "inputs": [
        {
          "name": "_shipmentId",
          "type": "uint256"
        }
      ],
      "name": "deliver",
      "outputs": [],
      "payable": true,
      "stateMutability": "payable",
      "type": "function"
    },
    {
      "constant": true,
      "inputs": [
        {
          "name": "_upc",
          "type": "uint256"
        }
      ],
      "name": "fetchHarvest",
      "outputs": [
        {
          "name": "harvestSKU",
          "type": "uint256"
        },
        {
          "name": "harvestUPC",
          "type": "uint256"
        },
        {
          "name": "harvesterId",
          "type": "address"
        },
        {
          "name": "ownerID",
          "type": "address"
        },
        {
          "name": "originBeekeeperID",
          "type": "address"
        },
        {
          "name": "originBeekeeperName",
          "type": "string"
        },
        {
          "name": "originFarmInformation",
          "type": "string"
        },
        {
          "name": "originFarmLatitude",
          "type": "string"
        },
        {
          "name": "originFarmLongitude",
          "type": "string"
        },
        {
          "name": "quantity",
          "type": "uint256"
        }
      ],
      "payable": false,
      "stateMutability": "view",
      "type": "function"
    },
    {
      "constant": true,
      "inputs": [
        {
          "name": "_upc",
          "type": "uint256"
        }
      ],
      "name": "fetchItemBufferTwo",
      "outputs": [
        {
          "name": "harvestSKU",
          "type": "uint256"
        },
        {
          "name": "harvestUPC",
          "type": "uint256"
        },
        {
          "name": "productID",
          "type": "uint256"
        },
        {
          "name": "productNotes",
          "type": "string"
        },
        {
          "name": "productPrice",
          "type": "uint256"
        },
        {
          "name": "harvestState",
          "type": "uint256"
        },
        {
          "name": "harvesterID",
          "type": "address"
        },
        {
          "name": "shipperID",
          "type": "address"
        },
        {
          "name": "buyerID",
          "type": "address"
        }
      ],
      "payable": false,
      "stateMutability": "view",
      "type": "function"
    },
    {
      "constant": true,
      "inputs": [
        {
          "name": "_orderId",
          "type": "uint256"
        }
      ],
      "name": "fetchOrder",
      "outputs": [
        {
          "name": "orderId",
          "type": "uint256"
        },
        {
          "name": "buyerId",
          "type": "address"
        },
        {
          "name": "harvestUPC",
          "type": "uint256"
        },
        {
          "name": "quantity",
          "type": "uint256"
        }
      ],
      "payable": false,
      "stateMutability": "view",
      "type": "function"
    },
    {
      "constant": true,
      "inputs": [
        {
          "name": "_quoteId",
          "type": "uint256"
        }
      ],
      "name": "fetchQuote",
      "outputs": [
        {
          "name": "quoteId",
          "type": "uint256"
        },
        {
          "name": "orderId",
          "type": "uint256"
        },
        {
          "name": "price",
          "type": "uint256"
        },
        {
          "name": "shipperId",
          "type": "address"
        },
        {
          "name": "shippingCost",
          "type": "uint256"
        },
        {
          "name": "shippingDownPayment",
          "type": "uint256"
        },
        {
          "name": "date",
          "type": "uint256"
        }
      ],
      "payable": false,
      "stateMutability": "view",
      "type": "function"
    },
    {
      "constant": true,
      "inputs": [
        {
          "name": "_purchaseId",
          "type": "uint256"
        }
      ],
      "name": "fetchPurchase",
      "outputs": [
        {
          "name": "purchaseId",
          "type": "uint256"
        },
        {
          "name": "quoteId",
          "type": "uint256"
        },
        {
          "name": "date",
          "type": "uint256"
        }
      ],
      "payable": false,
      "stateMutability": "view",
      "type": "function"
    },
    {
      "constant": true,
      "inputs": [
        {
          "name": "_shipmentId",
          "type": "uint256"
        }
      ],
      "name": "fetchShipment",
      "outputs": [
        {
          "name": "shipmentId",
          "type": "uint256"
        },
        {
          "name": "shipper",
          "type": "address"
        },
        {
          "name": "purchaseId",
          "type": "uint256"
        },
        {
          "name": "date",
          "type": "uint256"
        },
        {
          "name": "delivered",
          "type": "bool"
        },
        {
          "name": "dateDelivered",
          "type": "uint256"
        }
      ],
      "payable": false,
      "stateMutability": "view",
      "type": "function"
    }
  ],
  "bytecode": "0x608060405233600260006101000a81548173ffffffffffffffffffffffffffffffffffffffff021916908373ffffffffffffffffffffffffffffffffffffffff16021790555060016003819055506001600481905550600160058190555060016006819055506001600781905550620000bc60405180807f484152564553545f524f4c450000000000000000000000000000000000000000815250600c01905060405180910390206200024d640100000000026401000000009004565b6200010b60405180807f484152564553545f4f465f524f4c450000000000000000000000000000000000815250600f01905060405180910390206200024d640100000000026401000000009004565b6200015a60405180807f4f524445525f4f465f524f4c4500000000000000000000000000000000000000815250600d01905060405180910390206200024d640100000000026401000000009004565b620001a960405180807f42555945525f4f465f524f4c4500000000000000000000000000000000000000815250600d01905060405180910390206200024d640100000000026401000000009004565b620001f860405180807f534849505045525f4f465f524f4c450000000000000000000000000000000000815250600f01905060405180910390206200024d640100000000026401000000009004565b6200024760405180807f52454349455645525f4f465f524f4c4500000000000000000000000000000000815250601001905060405180910390206200024d640100000000026401000000009004565b62000403565b6000620002698262000346640100000000026401000000009004565b905060001515600080836000191660001916815260200190815260200160002060009054906101000a900460ff1615151415156200030f576040517f08c379a00000000000000000000000000000000000000000000000000000000081526004018080602001828103825260138152602001807f526f6c6520416c7265616479204578697374730000000000000000000000000081525060200191505060405180910390fd5b6001600080836000191660001916815260200190815260200160002060006101000a81548160ff0219169083151502179055505050565b60008160405160200180807f524f4c450000000000000000000000000000000000000000000000000000000081525060040182600019166000191681526020019150506040516020818303038152906040526040518082805190602001908083835b602083101515620003cf5780518252602082019150602081019050602083039250620003a8565b6001836020036101000a03801982511681845116808217855250505050505090500191505060405180910390209050919050565b61321d80620004136000396000f30060806040526004361061011d576000357c0100000000000000000000000000000000000000000000000000000000900463ffffffff1680631b8d56ff14610122578063244f643b146101a4578063274b02a7146101d15780632cb23434146102025780633bd5d1731461026157806341c0e1b514610281578063642a1f171461029857806366225ff91461032f578063715f43c514610491578063843f61e2146104c457806392bbe4ff146104fb578063946e8fd11461052e5780639ef9cc791461057d578063a4ca54c1146105b0578063bdee551a146105e3578063cf2991b01461064e578063efef39a114610803578063f020df8214610823578063fa332f65146108b7578063fbb12d0714610b4f578063ff0b20e814610b82575b600080fd5b34801561012e57600080fd5b5061014d60048036038101908080359060200190929190505050610bb5565b604051808581526020018473ffffffffffffffffffffffffffffffffffffffff1673ffffffffffffffffffffffffffffffffffffffff16815260200183815260200182815260200194505050505060405180910390f35b3480156101b057600080fd5b506101cf60048036038101908080359060200190929190505050610c16565b005b3480156101dd57600080fd5b506102006004803603810190808035600019169060200190929190505050611007565b005b34801561020e57600080fd5b5061025f6004803603810190808035600019169060200190929190803573ffffffffffffffffffffffffffffffffffffffff16906020019092919080356000191690602001909291905050506110ee565b005b61027f6004803603810190808035906020019092919050505061128a565b005b34801561028d57600080fd5b506102966117dc565b005b3480156102a457600080fd5b506102c36004803603810190808035906020019092919050505061186f565b604051808881526020018781526020018681526020018573ffffffffffffffffffffffffffffffffffffffff1673ffffffffffffffffffffffffffffffffffffffff16815260200184815260200183815260200182815260200197505050505050505060405180910390f35b34801561033b57600080fd5b5061035a600480360381019080803590602001909291905050506118ed565b604051808a8152602001898152602001888152602001806020018781526020018681526020018573ffffffffffffffffffffffffffffffffffffffff1673ffffffffffffffffffffffffffffffffffffffff1681526020018473ffffffffffffffffffffffffffffffffffffffff1673ffffffffffffffffffffffffffffffffffffffff1681526020018373ffffffffffffffffffffffffffffffffffffffff1673ffffffffffffffffffffffffffffffffffffffff168152602001828103825288818151815260200191508051906020019080838360005b8381101561044e578082015181840152602081019050610433565b50505050905090810190601f16801561047b5780820380516001836020036101000a031916815260200191505b509a505050505050505050505060405180910390f35b34801561049d57600080fd5b506104a6611924565b60405180826000191660001916815260200191505060405180910390f35b3480156104d057600080fd5b506104f9600480360381019080803590602001909291908035906020019092919050505061195d565b005b34801561050757600080fd5b50610510611bbb565b60405180826000191660001916815260200191505060405180910390f35b34801561053a57600080fd5b5061055960048036038101908080359060200190929190505050611bf4565b60405180848152602001838152602001828152602001935050505060405180910390f35b34801561058957600080fd5b50610592611c2c565b60405180826000191660001916815260200191505060405180910390f35b3480156105bc57600080fd5b506105c5611c65565b60405180826000191660001916815260200191505060405180910390f35b3480156105ef57600080fd5b5061064c6004803603810190808035906020019092919080359060200190929190803573ffffffffffffffffffffffffffffffffffffffff1690602001909291908035906020019092919080359060200190929190505050611c9e565b005b34801561065a57600080fd5b5061080160048036038101908080359060200190929190803573ffffffffffffffffffffffffffffffffffffffff169060200190929190803590602001908201803590602001908080601f0160208091040260200160405190810160405280939291908181526020018383808284378201915050505050509192919290803590602001908201803590602001908080601f0160208091040260200160405190810160405280939291908181526020018383808284378201915050505050509192919290803590602001908201803590602001908080601f0160208091040260200160405190810160405280939291908181526020018383808284378201915050505050509192919290803590602001908201803590602001908080601f016020809104026020016040519081016040528093929190818152602001838380828437820191505050505050919291929080359060200190929190803590602001908201803590602001908080601f0160208091040260200160405190810160405280939291908181526020018383808284378201915050505050509192919290505050612179565b005b61082160048036038101908080359060200190929190505050612601565b005b34801561082f57600080fd5b5061084e60048036038101908080359060200190929190505050612a46565b604051808781526020018673ffffffffffffffffffffffffffffffffffffffff1673ffffffffffffffffffffffffffffffffffffffff16815260200185815260200184815260200183151515158152602001828152602001965050505050505060405180910390f35b3480156108c357600080fd5b506108e260048036038101908080359060200190929190505050612ac7565b604051808b81526020018a81526020018973ffffffffffffffffffffffffffffffffffffffff1673ffffffffffffffffffffffffffffffffffffffff1681526020018873ffffffffffffffffffffffffffffffffffffffff1673ffffffffffffffffffffffffffffffffffffffff1681526020018773ffffffffffffffffffffffffffffffffffffffff1673ffffffffffffffffffffffffffffffffffffffff1681526020018060200180602001806020018060200186815260200185810385528a818151815260200191508051906020019080838360005b838110156109d65780820151818401526020810190506109bb565b50505050905090810190601f168015610a035780820380516001836020036101000a031916815260200191505b50858103845289818151815260200191508051906020019080838360005b83811015610a3c578082015181840152602081019050610a21565b50505050905090810190601f168015610a695780820380516001836020036101000a031916815260200191505b50858103835288818151815260200191508051906020019080838360005b83811015610aa2578082015181840152602081019050610a87565b50505050905090810190601f168015610acf5780820380516001836020036101000a031916815260200191505b50858103825287818151815260200191508051906020019080838360005b83811015610b08578082015181840152602081019050610aed565b50505050905090810190601f168015610b355780820380516001836020036101000a031916815260200191505b509e50505050505050505050505050505060405180910390f35b348015610b5b57600080fd5b50610b64612e01565b60405180826000191660001916815260200191505060405180910390f35b348015610b8e57600080fd5b50610b97612e3a565b60405180826000191660001916815260200191505060405180910390f35b6000806000806000600a60008781526020019081526020016000209050806000015494508060010160009054906101000a900473ffffffffffffffffffffffffffffffffffffffff1693508060020154925080600301549150509193509193565b60008060008360011515600f600083815260200190815260200160002060009054906101000a900460ff161515146040805190810160405280601d81526020017f4552524f525f50555243484153455f444f45535f4e4f545f4558495354000000815250901515610d22576040517f08c379a00000000000000000000000000000000000000000000000000000000081526004018080602001828103825283818151815260200191508051906020019080838360005b83811015610ce7578082015181840152602081019050610ccc565b50505050905090810190601f168015610d145780820380516001836020036101000a031916815260200191505b509250505060405180910390fd5b5060405180807f534849505045525f4f465f524f4c450000000000000000000000000000000000815250600f019050604051809103902033866001026040805190810160405280601781526020017f4d697373696e6720534849505045525f4f465f524f4c45000000000000000000815250610d9f848484612e73565b81901515610e48576040517f08c379a00000000000000000000000000000000000000000000000000000000081526004018080602001828103825283818151815260200191508051906020019080838360005b83811015610e0d578082015181840152602081019050610df2565b50505050905090810190601f168015610e3a5780820380516001836020036101000a031916815260200191505b509250505060405180910390fd5b50600e60008a8152602001908152602001600020975060106000600754815260200190815260200160002096506007548760000181905550888760020181905550876001015487600301819055508760020154876004018190555087600301548760050181905550338760010160006101000a81548173ffffffffffffffffffffffffffffffffffffffff021916908373ffffffffffffffffffffffffffffffffffffffff160217905550888760020181905550428760060181905550600160116000600754815260200190815260200160002060006101000a81548160ff021916908315150217905550600a6000886004015481526020019081526020016000209550610fb760405180807f52454349455645525f4f465f524f4c4500000000000000000000000000000000815250601001905060405180910390208760010160009054906101000a900473ffffffffffffffffffffffffffffffffffffffff1689600001546001026110ee565b7ff00b9a5725b80c54016f42114f6ed7792d22eecb116011c4afac29c57bef6c956007546040518082815260200191505060405180910390a1600160075401600781905550505050505050505050565b600061101282612f81565b905060001515600080836000191660001916815260200190815260200160002060009054906101000a900460ff1615151415156110b7576040517f08c379a00000000000000000000000000000000000000000000000000000000081526004018080602001828103825260138152602001807f526f6c6520416c7265616479204578697374730000000000000000000000000081525060200191505060405180910390fd5b6001600080836000191660001916815260200190815260200160002060006101000a81548160ff0219169083151502179055505050565b6000806110fa85612f81565b915060011515600080846000191660001916815260200190815260200160002060009054906101000a900460ff16151514151561119f576040517f08c379a00000000000000000000000000000000000000000000000000000000081526004018080602001828103825260148152602001807f526f6c6520446f6573204e6f742045786973747300000000000000000000000081525060200191505060405180910390fd5b6111aa84868561303c565b90506000151560016000836000191660001916815260200190815260200160002060009054906101000a900460ff161515141515611250576040517f08c379a00000000000000000000000000000000000000000000000000000000081526004018080602001828103825260198152602001807f5065726d697373696f6e20416c7265616479204578697374730000000000000081525060200191505060405180910390fd5b6001806000836000191660001916815260200190815260200160002060006101000a81548160ff0219169083151502179055505050505050565b600080600080600085600115156011600083815260200190815260200160002060009054906101000a900460ff161515146040805190810160405280601d81526020017f4552524f525f534849504d454e545f444f45535f4e4f545f4558495354000000815250901515611399576040517f08c379a00000000000000000000000000000000000000000000000000000000081526004018080602001828103825283818151815260200191508051906020019080838360005b8381101561135e578082015181840152602081019050611343565b50505050905090810190601f16801561138b5780820380516001836020036101000a031916815260200191505b509250505060405180910390fd5b5060405180807f52454349455645525f4f465f524f4c45000000000000000000000000000000008152506010019050604051809103902033886001026040805190810160405280601881526020017f4d697373696e672052454349455645525f4f465f524f4c450000000000000000815250611416848484612e73565b819015156114bf576040517f08c379a00000000000000000000000000000000000000000000000000000000081526004018080602001828103825283818151815260200191508051906020019080838360005b83811015611484578082015181840152602081019050611469565b50505050905090810190601f1680156114b15780820380516001836020036101000a031916815260200191505b509250505060405180910390fd5b50601060008c81526020019081526020016000209950600015158a60070160009054906101000a900460ff161515146040805190810160405280601781526020017f4552524f525f414c52454144595f44454c4956455245440000000000000000008152509015156115cc576040517f08c379a00000000000000000000000000000000000000000000000000000000081526004018080602001828103825283818151815260200191508051906020019080838360005b83811015611591578082015181840152602081019050611576565b50505050905090810190601f1680156115be5780820380516001836020036101000a031916815260200191505b509250505060405180910390fd5b50600e60008b600201548152602001908152602001600020985060018a60070160006101000a81548160ff021916908315150217905550428a60080181905550600860008b6005015481526020019081526020016000209750600c60008b60030154815260200190815260200160002096508660050154876006015411156116c4578660040160009054906101000a900473ffffffffffffffffffffffffffffffffffffffff1673ffffffffffffffffffffffffffffffffffffffff166108fc88600601548960050154039081150290604051600060405180830381858888f193505050501580156116c2573d6000803e3d6000fd5b505b8760020160009054906101000a900473ffffffffffffffffffffffffffffffffffffffff1673ffffffffffffffffffffffffffffffffffffffff166108fc88600301549081150290604051600060405180830381858888f19350505050158015611732573d6000803e3d6000fd5b508660060154876005015488600301540103955085341115611798573373ffffffffffffffffffffffffffffffffffffffff166108fc8734039081150290604051600060405180830381858888f19350505050158015611796573d6000803e3d6000fd5b505b7ffcc296b8bdd64e3f1d1faadef50cb2d6550f645316330fe57cb1dd7e0612ead08b6040518082815260200191505060405180910390a15050505050505050505050565b600260009054906101000a900473ffffffffffffffffffffffffffffffffffffffff1673ffffffffffffffffffffffffffffffffffffffff163373ffffffffffffffffffffffffffffffffffffffff16141561186d57600260009054906101000a900473ffffffffffffffffffffffffffffffffffffffff1673ffffffffffffffffffffffffffffffffffffffff16ff5b565b600080600080600080600080600c60008a815260200190815260200160002090508060000154975080600101549650806003015495508060040160009054906101000a900473ffffffffffffffffffffffffffffffffffffffff16945080600501549350806006015492508060070154915050919395979092949650565b6000806000606060008060008060008888888888888888889850985098509850985098509850985098509193959799909294969850565b60405180807f4f524445525f4f465f524f4c4500000000000000000000000000000000000000815250600d019050604051809103902081565b60008083600115156009600083815260200190815260200160002060009054906101000a900460ff161515146040805190810160405280601c81526020017f4552524f525f484152564553545f444f45535f4e4f545f455849535400000000815250901515611a67576040517f08c379a00000000000000000000000000000000000000000000000000000000081526004018080602001828103825283818151815260200191508051906020019080838360005b83811015611a2c578082015181840152602081019050611a11565b50505050905090810190601f168015611a595780820380516001836020036101000a031916815260200191505b509250505060405180910390fd5b50600860008681526020019081526020016000209250600a6000600454815260200190815260200160002091506004548260000181905550338260010160006101000a81548173ffffffffffffffffffffffffffffffffffffffff021916908373ffffffffffffffffffffffffffffffffffffffff1602179055508482600201819055508382600301819055506001600b6000600454815260200190815260200160002060006101000a81548160ff021916908315150217905550611b6760405180807f4f524445525f4f465f524f4c4500000000000000000000000000000000000000815250600d0190506040518091039020336004546001026110ee565b7f9156cebb0781971f996de6c50062a4f014940a06170b5a5101d2ef7e4919531460045485604051808381526020018281526020019250505060405180910390a16001600454016004819055505050505050565b60405180807f484152564553545f4f465f524f4c450000000000000000000000000000000000815250600f019050604051809103902081565b600080600080600e60008681526020019081526020016000209050806000015493508060010154925080600401549150509193909250565b60405180807f42555945525f4f465f524f4c4500000000000000000000000000000000000000815250600d019050604051809103902081565b60405180807f52454349455645525f4f465f524f4c45000000000000000000000000000000008152506010019050604051809103902081565b6000808660011515600b600083815260200190815260200160002060009054906101000a900460ff161515146040805190810160405280601a81526020017f4552524f525f4f524445525f444f45535f4e4f545f4558495354000000000000815250901515611da8576040517f08c379a00000000000000000000000000000000000000000000000000000000081526004018080602001828103825283818151815260200191508051906020019080838360005b83811015611d6d578082015181840152602081019050611d52565b50505050905090810190601f168015611d9a5780820380516001836020036101000a031916815260200191505b509250505060405180910390fd5b5060405180807f484152564553545f4f465f524f4c450000000000000000000000000000000000815250600f019050604051809103902033896001026040805190810160405280601981526020017f4d697373696e67204841525645535445525f4f465f524f4c4500000000000000815250611e25848484612e73565b81901515611ece576040517f08c379a00000000000000000000000000000000000000000000000000000000081526004018080602001828103825283818151815260200191508051906020019080838360005b83811015611e93578082015181840152602081019050611e78565b50505050905090810190601f168015611ec05780820380516001836020036101000a031916815260200191505b509250505060405180910390fd5b5088881115606060405190810160405280603081526020017f4552524f525f5348495050494e47444f574e5041594d454e545f4d4f52455f5481526020017f48414e5f5348495050494e47434f535400000000000000000000000000000000815250901515611fd8576040517f08c379a00000000000000000000000000000000000000000000000000000000081526004018080602001828103825283818151815260200191508051906020019080838360005b83811015611f9d578082015181840152602081019050611f82565b50505050905090810190601f168015611fca5780820380516001836020036101000a031916815260200191505b509250505060405180910390fd5b50600a60008d81526020019081526020016000209650600c60006005548152602001908152602001600020955060055486600001819055508b8660010181905550866002015486600201819055508a8660030181905550898660040160006101000a81548173ffffffffffffffffffffffffffffffffffffffff021916908373ffffffffffffffffffffffffffffffffffffffff1602179055508886600501819055508786600601819055504286600701819055506001600d6000600554815260200190815260200160002060006101000a81548160ff02191690831515021790555061212660405180807f42555945525f4f465f524f4c4500000000000000000000000000000000000000815250600d01905060405180910390208860010160009054906101000a900473ffffffffffffffffffffffffffffffffffffffff1688600001546001026110ee565b7f290738b2ee23b5c98aaed144b2259ba1c7e9feaf4ae53769437fe3c52e05dc036005546040518082815260200191505060405180910390a1600160055401600581905550505050505050505050505050565b600060405180807f484152564553545f524f4c450000000000000000000000000000000000000000815250600c01905060405180910390203360006040805190810160405280601681526020017f4d697373696e672048617276657374657220526f6c65000000000000000000008152506121f5848484612e73565b8190151561229e576040517f08c379a00000000000000000000000000000000000000000000000000000000081526004018080602001828103825283818151815260200191508051906020019080838360005b83811015612263578082015181840152602081019050612248565b50505050905090810190601f1680156122905780820380516001836020036101000a031916815260200191505b509250505060405180910390fd5b5060001515600960008f815260200190815260200160002060009054906101000a900460ff161515146040805190810160405280601c81526020017f4552524f525f484152564553545f414c52454144595f455849535453000000008152509015156123a5576040517f08c379a00000000000000000000000000000000000000000000000000000000081526004018080602001828103825283818151815260200191508051906020019080838360005b8381101561236a57808201518184015260208101905061234f565b50505050905090810190601f1680156123975780820380516001836020036101000a031916815260200191505b509250505060405180910390fd5b50600860008e8152602001908152602001600020945060035485600001819055508c8560010181905550600260009054906101000a900473ffffffffffffffffffffffffffffffffffffffff168560030160006101000a81548173ffffffffffffffffffffffffffffffffffffffff021916908373ffffffffffffffffffffffffffffffffffffffff1602179055508b8560040160006101000a81548173ffffffffffffffffffffffffffffffffffffffff021916908373ffffffffffffffffffffffffffffffffffffffff1602179055508a85600501908051906020019061248f92919061314c565b50898560060190805190602001906124a892919061314c565b50888560070190805190602001906124c192919061314c565b50878560080190805190602001906124da92919061314c565b508685600901819055508585600b0190805190602001906124fc92919061314c565b50338560020160006101000a81548173ffffffffffffffffffffffffffffffffffffffff021916908373ffffffffffffffffffffffffffffffffffffffff1602179055506001600960008f815260200190815260200160002060006101000a81548160ff0219169083151502179055506125af60405180807f484152564553545f4f465f524f4c450000000000000000000000000000000000815250600f0190506040518091039020338f6001026110ee565b7f8e55ccfc9778ff8eba1646d765cf1982537ce0f9257054a17b48aad7452501838d6040518082815260200191505060405180910390a160016003540160038190555050505050505050505050505050565b6000808260011515600d600083815260200190815260200160002060009054906101000a900460ff161515146040805190810160405280601a81526020017f4552524f525f51554f54455f444f45535f4e4f545f455849535400000000000081525090151561270b576040517f08c379a00000000000000000000000000000000000000000000000000000000081526004018080602001828103825283818151815260200191508051906020019080838360005b838110156126d05780820151818401526020810190506126b5565b50505050905090810190601f1680156126fd5780820380516001836020036101000a031916815260200191505b509250505060405180910390fd5b5060405180807f42555945525f4f465f524f4c4500000000000000000000000000000000000000815250600d019050604051809103902033856001026040805190810160405280601581526020017f4d697373696e672042555945525f4f465f524f4c450000000000000000000000815250612788848484612e73565b81901515612831576040517f08c379a00000000000000000000000000000000000000000000000000000000081526004018080602001828103825283818151815260200191508051906020019080838360005b838110156127f65780820151818401526020810190506127db565b50505050905090810190601f1680156128235780820380516001836020036101000a031916815260200191505b509250505060405180910390fd5b50600c60008981526020019081526020016000209650600e600060065481526020019081526020016000209550878660010181905550600654866000018190555086600101548660020181905550866002015486600301819055504286600401819055506001600f6000600654815260200190815260200160002060006101000a81548160ff0219169083151502179055508660040160009054906101000a900473ffffffffffffffffffffffffffffffffffffffff1673ffffffffffffffffffffffffffffffffffffffff166108fc88600601549081150290604051600060405180830381858888f19350505050158015612931573d6000803e3d6000fd5b50866006015434111561298c573373ffffffffffffffffffffffffffffffffffffffff166108fc886006015434039081150290604051600060405180830381858888f1935050505015801561298a573d6000803e3d6000fd5b505b6129f760405180807f534849505045525f4f465f524f4c450000000000000000000000000000000000815250600f01905060405180910390208860040160009054906101000a900473ffffffffffffffffffffffffffffffffffffffff1688600001546001026110ee565b7f653d56639fee6b566a5c804764e9689de38645f0b733df89a36a1b7b42173dd86006546040518082815260200191505060405180910390a16001600654016006819055505050505050505050565b6000806000806000806000601060008981526020019081526020016000209050806000015496508060010160009054906101000a900473ffffffffffffffffffffffffffffffffffffffff16955080600201549450806006015493508060070160009054906101000a900460ff169250806008015491505091939550919395565b6000806000806000606080606080600080600860008d8152602001908152602001600020905080600001549a50806001015499508060020160009054906101000a900473ffffffffffffffffffffffffffffffffffffffff1698508060030160009054906101000a900473ffffffffffffffffffffffffffffffffffffffff1697508060040160009054906101000a900473ffffffffffffffffffffffffffffffffffffffff169650806005018054600181600116156101000203166002900480601f016020809104026020016040519081016040528092919081815260200182805460018160011615610100020316600290048015612c085780601f10612bdd57610100808354040283529160200191612c08565b820191906000526020600020905b815481529060010190602001808311612beb57829003601f168201915b50505050509550806006018054600181600116156101000203166002900480601f016020809104026020016040519081016040528092919081815260200182805460018160011615610100020316600290048015612ca75780601f10612c7c57610100808354040283529160200191612ca7565b820191906000526020600020905b815481529060010190602001808311612c8a57829003601f168201915b50505050509450806007018054600181600116156101000203166002900480601f016020809104026020016040519081016040528092919081815260200182805460018160011615610100020316600290048015612d465780601f10612d1b57610100808354040283529160200191612d46565b820191906000526020600020905b815481529060010190602001808311612d2957829003601f168201915b50505050509350806008018054600181600116156101000203166002900480601f016020809104026020016040519081016040528092919081815260200182805460018160011615610100020316600290048015612de55780601f10612dba57610100808354040283529160200191612de5565b820191906000526020600020905b815481529060010190602001808311612dc857829003601f168201915b5050505050925080600901549150509193959799509193959799565b60405180807f484152564553545f524f4c450000000000000000000000000000000000000000815250600c019050604051809103902081565b60405180807f534849505045525f4f465f524f4c450000000000000000000000000000000000815250600f019050604051809103902081565b600080600073ffffffffffffffffffffffffffffffffffffffff168473ffffffffffffffffffffffffffffffffffffffff1614151515612f41576040517f08c379a00000000000000000000000000000000000000000000000000000000081526004018080602001828103825260268152602001807f43616e6e6f7420636865636b2061646472657373206f6620636f6e747261637481526020017f206f776e6572000000000000000000000000000000000000000000000000000081525060400191505060405180910390fd5b612f4c84868561303c565b905060016000826000191660001916815260200190815260200160002060009054906101000a900460ff169150509392505050565b60008160405160200180807f524f4c450000000000000000000000000000000000000000000000000000000081525060040182600019166000191681526020019150506040516020818303038152906040526040518082805190602001908083835b6020831015156130085780518252602082019150602081019050602083039250612fe3565b6001836020036101000a03801982511681845116808217855250505050505090500191505060405180910390209050919050565b600083838360405160200180807f5045524d495353494f4e00000000000000000000000000000000000000000000815250600a018473ffffffffffffffffffffffffffffffffffffffff1673ffffffffffffffffffffffffffffffffffffffff166c010000000000000000000000000281526014018360001916600019168152602001826000191660001916815260200193505050506040516020818303038152906040526040518082805190602001908083835b60208310151561311657805182526020820191506020810190506020830392506130f1565b6001836020036101000a038019825116818451168082178552505050505050905001915050604051809103902090509392505050565b828054600181600116156101000203166002900490600052602060002090601f016020900481019282601f1061318d57805160ff19168380011785556131bb565b828001600101855582156131bb579182015b828111156131ba57825182559160200191906001019061319f565b5b5090506131c891906131cc565b5090565b6131ee91905b808211156131ea5760008160009055506001016131d2565b5090565b905600a165627a7a7230582046975edfae9b29e3711c3001dd568a34fb1830ac850636b53f0e8ebfcf9968510029",
  "source": "pragma solidity ^0.4.24;\n\nimport \"../honeyaccesscontrol/AccessControl.sol\";\n// Define a contract 'Supplychain'\ncontract SupplyChain is AccessControl {\n\n    // Define 'owner'\n    address owner;\n\n    //bytes32 public constant OWNER_ROLE = keccak256(\"OWNER_ROLE\");\n    bytes32 public constant HARVEST_ROLE = keccak256(\"HARVEST_ROLE\");\n    bytes32 public constant HARVESTER_OF_ROLE = keccak256(\"HARVEST_OF_ROLE\");\n    bytes32 public constant ORDER_OF_ROLE = keccak256(\"ORDER_OF_ROLE\");\n    bytes32 public constant BUYER_OF_ROLE = keccak256(\"BUYER_OF_ROLE\");\n    bytes32 public constant SHIPPER_OF_ROLE = keccak256(\"SHIPPER_OF_ROLE\");\n    bytes32 public constant RECIEVER_OF_ROLE = keccak256(\"RECIEVER_OF_ROLE\");\n\n    //bytes32 public constant SHIPPER_ROLE = keccak256(\"SHIPPER_ROLE\");\n\n    // Define a variable called 'upc' for Universal Product Code (UPC)\n    // uint  upc;\n\n    // Define a variable called 'sku' for Stock Keeping Unit (SKU)\n    uint  sku;\n\n    uint  orderId;\n\n    uint quoteId;\n\n    uint purchaseId;\n\n    uint shipmentId;\n\n    // Define a public mapping 'harvests' that maps the UPC to a Harvest.\n    mapping (uint => Harvest) harvests;\n    mapping (uint => bool) harvestUPCs;\n\n    // Define a public mapping 'orders' that maps the UPC to an Order.\n    mapping (uint => Order) orders;\n    mapping (uint => bool) orderIds;\n\n    // Define a public mapping 'quotes' that maps the orderId to a quote.\n    mapping (uint => Quote) quotes;\n    mapping (uint => bool) quoteIds;\n\n    // Define a public mapping 'purchases' that maps the purchaseId to a purchase.\n    mapping (uint => Purchase) purchases;\n    mapping (uint => bool) purchaseIds;\n\n     // Define a public mapping 'shipment' that maps the shipmentId to a shipment.\n    mapping (uint => Shipment) shipments;\n    mapping (uint => bool) shipmentIds;\n\n    // Define a public mapping 'harvestsHistory' that maps the UPC to an array of TxHash,\n    // that track its journey through the supply chain -- to be sent from DApp.\n    mapping (uint => string[]) harvestsHistory;\n\n    string private constant ERROR_HARVEST_DOES_NOT_EXIST = \"ERROR_HARVEST_DOES_NOT_EXIST\";\n    string private constant ERROR_HARVEST_ALREADY_EXISTS = \"ERROR_HARVEST_ALREADY_EXISTS\";\n    string private constant ERROR_ORDER_DOES_NOT_EXIST = \"ERROR_ORDER_DOES_NOT_EXIST\";\n    string private constant ERROR_QUOTE_DOES_NOT_EXIST = \"ERROR_QUOTE_DOES_NOT_EXIST\";\n    string private constant ERROR_PURCHASE_DOES_NOT_EXIST = \"ERROR_PURCHASE_DOES_NOT_EXIST\";\n    string private constant ERROR_SHIPMENT_DOES_NOT_EXIST = \"ERROR_SHIPMENT_DOES_NOT_EXIST\";\n    string private constant ERROR_ALREADY_DELIVERED = \"ERROR_ALREADY_DELIVERED\";\n    string private constant ERROR_SHIPPINGDOWNPAYMENT = \"ERROR_SHIPPINGDOWNPAYMENT_MORE_THAN_SHIPPINGCOST\";\n\n    // Define enum 'State' with the following values:\n    enum State\n    {\n        Harvested,              // 0\n        PlacedOrder,            // 1\n        SentQuote,              // 2\n        Purchased,     // 3\n        Shipped,          // 4\n        Delivered,         // 5\n        ReleasedPayment         // 6\n    }\n\n    // Define a struct 'Item' with the following fields:\n    struct Harvest {\n        uint    sku;  // Stock Keeping Unit (SKU)\n        uint    upc; // Universal Product Code (UPC), generated by the Harvester, goes on the package, can be verified by the Buyer\n        address harvesterId;  // Metamask-Ethereum address of the Harvester\n        address ownerID;  // Metamask-Ethereum address of the current owner as the product moves through 8 stages\n        address originBeekeeperID; // Metamask-Ethereum address of the BeeKeeper\n        string  originBeekeeperName; // BeeKeeper Name\n        string  originFarmInformation;  // BeeKeeper Information\n        string  originFarmLatitude; // Farm Latitude\n        string  originFarmLongitude;  // Farm Longitude\n        uint    quantity; // Quantity in milliliters\n        uint    productID;  // Product ID potentially a combination of upc + sku\n        string  productNotes; // Product Notes\n        uint    productPrice; // Product Price\n        address shipperID; // Metamask-Ethereum address of the Shipper\n        address buyerID; // Metamask-Ethereum address of the Buyer\n    }\n\n    struct Order {\n        uint    orderId;\n        address buyerId;\n        uint    upc;\n        uint    quantity;\n    }\n\n    struct Quote {\n        uint    quoteId;\n        uint    orderId;\n        uint    upc;\n        uint    price;\n        address shipperId;\n        uint    shippingCost;\n        uint    shippingDownPayment;\n        uint    date;\n    }\n\n    struct Purchase {\n        uint    purchaseId;\n        uint    quoteId;\n        uint    orderId;\n        uint    upc;\n        uint    date;\n        uint    shipmentId;\n    }\n\n    struct Shipment {\n        uint    shipmentId;\n        address shipper;\n        uint    purchaseId;\n        uint    quoteId;\n        uint    orderId;\n        uint    upc;\n        uint    date;\n        bool    delivered;\n        uint    dateDelivered;\n    }\n\n    // Define 8 events with the same 8 state values and accept 'upc' as input argument\n    event Harvested(uint upc);\n    event PlacedOrder(uint orderId,uint quantity);\n    event SentQuote(uint quoteId);\n    event Purchased(uint purchaseId);\n    event Shipped(uint shipmentId);\n    event Delivered(uint shipmentId);\n\n    // Define a modifer that checks to see if msg.sender == owner of the contract\n    modifier onlyOwner() {\n        require(msg.sender == owner);\n        _;\n    }\n\n    // Define a modifer that verifies the Caller\n    modifier verifyCaller (address _address) {\n        require(msg.sender == _address);\n        _;\n    }\n\n\n    modifier harvestExists(uint _upc) {\n        require(harvestUPCs[_upc] == true, ERROR_HARVEST_DOES_NOT_EXIST);\n        _;\n    }\n\n    modifier orderExists(uint _orderId) {\n        require(orderIds[_orderId] == true, ERROR_ORDER_DOES_NOT_EXIST);\n        _;\n    }\n\n    modifier quoteExists(uint _quoteId) {\n        require(quoteIds[_quoteId] == true, ERROR_QUOTE_DOES_NOT_EXIST);\n        _;\n    }\n\n    modifier purchaseExists(uint _purchaseId) {\n        require(purchaseIds[_purchaseId] == true, ERROR_PURCHASE_DOES_NOT_EXIST);\n        _;\n    }\n\n    modifier shipmentExists(uint _shippingId) {\n        require(shipmentIds[_shippingId] == true, ERROR_SHIPMENT_DOES_NOT_EXIST);\n        _;\n    }\n    // Define a modifier that checks the price and refunds the remaining balance\n    modifier checkValue(uint _upc) {\n        _;\n        uint _price = harvests[_upc].productPrice;\n        uint amountToReturn = msg.value - _price;\n        harvests[_upc].buyerID.transfer(amountToReturn);\n    }\n\n    // In the constructor set 'owner' to the address that instantiated the contract\n    // and set 'sku' to 1\n    // and set 'upc' to 1\n    constructor() public payable {\n        owner = msg.sender;\n        sku = 1;\n        orderId = 1;\n        quoteId = 1;\n        purchaseId = 1;\n        shipmentId = 1;\n        addRole(HARVEST_ROLE);\n        addRole(HARVESTER_OF_ROLE);\n        addRole(ORDER_OF_ROLE);\n        addRole(BUYER_OF_ROLE);\n        addRole(SHIPPER_OF_ROLE);\n        addRole(RECIEVER_OF_ROLE);\n    }\n\n    // Define a function 'kill' if required\n    function kill() public {\n        if (msg.sender == owner) {\n          selfdestruct(owner);\n        }\n    }\n\n    // Define a function 'harvestItem' that allows a farmer to mark an harvest 'Harvested'\n    function harvestItem(uint _upc, address _originBeekeeperID, string _originBeekeeperName, string _originFarmInformation, string  _originFarmLatitude, string  _originFarmLongitude, uint _quantity, string  _productNotes) public\n    hasPermission(HARVEST_ROLE, msg.sender, \"\", \"Missing Harvester Role\")\n    {\n        require(harvestUPCs[_upc] == false, ERROR_HARVEST_ALREADY_EXISTS);\n        // Add the new harvest as part of Harvest\n        Harvest storage harvest_ = harvests[_upc];\n        harvest_.sku = sku;\n        harvest_.upc = _upc;\n        harvest_.ownerID = owner;\n        harvest_.originBeekeeperID = _originBeekeeperID;\n        harvest_.originBeekeeperName = _originBeekeeperName;\n        harvest_.originFarmInformation = _originFarmInformation;\n        harvest_.originFarmLatitude = _originFarmLatitude;\n        harvest_.originFarmLongitude = _originFarmLongitude;\n        harvest_.quantity = _quantity;\n        harvest_.productNotes = _productNotes;\n        harvest_.harvesterId = msg.sender;\n        harvestUPCs[_upc] = true;\n        addPermission(HARVESTER_OF_ROLE, msg.sender, bytes32(_upc));\n        emit Harvested(_upc);\n        sku = sku + 1;\n    }\n\n    function placeOrder(uint _upc, uint quantity) public\n    harvestExists(_upc)\n    // Anybody can Place an Order\n\n    {\n        Harvest storage harvest_ = harvests[_upc];\n        Order storage order_ = orders[orderId];\n        order_.orderId = orderId;\n        order_.buyerId = msg.sender;\n        order_.upc = _upc;\n        order_.quantity = quantity;\n        orderIds[orderId] = true;\n        addPermission(ORDER_OF_ROLE, msg.sender, bytes32(orderId));\n\n        emit PlacedOrder(orderId, quantity);\n\n        orderId = orderId + 1;\n    }\n\n    // Define a function 'packItem' that allows a farmer to mark an harvest 'Packed'\n    function sendQuote(uint _orderId, uint _price, address _shipperId, uint _shippingCost,uint _shippingDownPayment) public\n    orderExists(_orderId)\n    hasPermission(HARVESTER_OF_ROLE, msg.sender, bytes32(_orderId) ,\"Missing HARVESTER_OF_ROLE\")\n    {\n        require(_shippingDownPayment <= _shippingCost, ERROR_SHIPPINGDOWNPAYMENT);\n        Order storage order_ = orders[_orderId];\n        Quote storage quote_ = quotes[quoteId];\n        quote_.quoteId = quoteId;\n        quote_.orderId = _orderId;\n        quote_.upc = order_.upc;\n        quote_.price = _price;\n        quote_.shipperId = _shipperId;\n        quote_.shippingCost = _shippingCost;\n        quote_.shippingDownPayment = _shippingDownPayment;\n        quote_.date = now;\n        quoteIds[quoteId] = true;\n\n        addPermission(BUYER_OF_ROLE, order_.buyerId, bytes32(quote_.quoteId));\n\n        emit SentQuote(quoteId);\n        quoteId = quoteId + 1;\n    }\n\n    // Define a function 'sellItem' that allows a farmer to mark an harvest 'ForSale'\n    function purchase(uint _quoteId) public\n    quoteExists(_quoteId)\n    hasPermission(BUYER_OF_ROLE, msg.sender, bytes32(_quoteId) ,\"Missing BUYER_OF_ROLE\") payable\n    {\n        Quote storage quote_ = quotes[_quoteId];\n        Purchase storage purchase_ = purchases[purchaseId];\n        purchase_.quoteId = _quoteId;\n        purchase_.purchaseId = purchaseId;\n        purchase_.orderId = quote_.orderId;\n        purchase_.upc = quote_.upc;\n        purchase_.date = now;\n        purchaseIds[purchaseId] = true;\n\n        quote_.shipperId.transfer(quote_.shippingDownPayment);\n        if(msg.value > quote_.shippingDownPayment) {\n            msg.sender.transfer(msg.value - quote_.shippingDownPayment);\n        }\n\n        addPermission(SHIPPER_OF_ROLE, quote_.shipperId, bytes32(purchase_.purchaseId));\n\n        emit Purchased(purchaseId);\n        purchaseId = purchaseId + 1;\n    }\n\n    // Define a function 'ship' that allows the harvester to mark an harvest 'Shipped'\n    // Use the above modifers to check if the harvest is sold\n    function ship(uint _purchaseId) public\n      purchaseExists(_purchaseId)\n      hasPermission(SHIPPER_OF_ROLE, msg.sender, bytes32(_purchaseId) ,\"Missing SHIPPER_OF_ROLE\")\n    {\n        Purchase storage purchase_ = purchases[_purchaseId];\n        Shipment storage shipment_ = shipments[shipmentId];\n        shipment_.shipmentId = shipmentId;\n        shipment_.purchaseId = _purchaseId;\n        shipment_.quoteId = purchase_.quoteId;\n        shipment_.orderId = purchase_.orderId;\n        shipment_.upc = purchase_.upc;\n        shipment_.shipper = msg.sender;\n        shipment_.purchaseId = _purchaseId;\n        shipment_.date = now;\n        shipmentIds[shipmentId] = true;\n\n        Order storage order_ = orders[shipment_.orderId];\n        addPermission(RECIEVER_OF_ROLE, order_.buyerId, bytes32(shipment_.shipmentId));\n\n        emit Shipped(shipmentId);\n        shipmentId = shipmentId + 1;\n\n    }\n\n    // Define a function 'receiveItem' that allows the shipper to mark an harvest 'Received'\n    // Use the above modifiers to check if the harvest is shipped\n    function deliver(uint _shipmentId) public\n        shipmentExists(_shipmentId)\n        hasPermission(RECIEVER_OF_ROLE, msg.sender, bytes32(_shipmentId) ,\"Missing RECIEVER_OF_ROLE\") payable\n    {\n\n        Shipment storage shipment_ = shipments[_shipmentId];\n        require(shipment_.delivered == false, ERROR_ALREADY_DELIVERED);\n        Purchase storage purchase_ = purchases[shipment_.purchaseId];\n\n        shipment_.delivered = true;\n        shipment_.dateDelivered = now;\n\n        Harvest storage harvest_ = harvests[shipment_.upc];\n        Quote storage quote_ = quotes[shipment_.quoteId];\n\n        //Pay shipping balance\n\n        if(quote_.shippingDownPayment > quote_.shippingCost) {\n            quote_.shipperId.transfer(quote_.shippingCost - quote_.shippingDownPayment);\n        }\n\n        harvest_.harvesterId.transfer(quote_.price);\n\n\n        uint256 balanceCost = quote_.price + quote_.shippingCost - quote_.shippingDownPayment;\n        if(msg.value > balanceCost) {\n            msg.sender.transfer(msg.value - balanceCost);\n        }\n\n        emit Delivered(_shipmentId);\n    }\n\n\n    // Define a function 'fetchHarvest' that fetches the data\n    function fetchHarvest(uint _upc) public view returns\n    (\n    uint    harvestSKU,\n    uint    harvestUPC,\n    address harvesterId,\n    address ownerID,\n    address originBeekeeperID,\n    string  originBeekeeperName,\n    string  originFarmInformation,\n    string  originFarmLatitude,\n    string  originFarmLongitude,\n    uint    quantity\n    )\n    {\n      // Assign values to the 8 parameters\n\n        Harvest storage harvest_ = harvests[_upc];\n        harvestSKU = harvest_.sku;\n        harvestUPC = harvest_.upc;\n        harvesterId = harvest_.harvesterId;\n        ownerID = harvest_.ownerID;\n        originBeekeeperID = harvest_.originBeekeeperID;\n        originBeekeeperName = harvest_.originBeekeeperName;\n        originFarmInformation = harvest_.originFarmInformation;\n        originFarmLatitude = harvest_.originFarmLatitude;\n        originFarmLongitude = harvest_.originFarmLongitude;\n        quantity = harvest_.quantity;\n    }\n\n    // Define a function 'fetchItemBufferTwo' that fetches the data\n    function fetchItemBufferTwo(uint _upc) public view returns\n    (\n    uint    harvestSKU,\n    uint    harvestUPC,\n    uint    productID,\n    string  productNotes,\n    uint    productPrice,\n    uint    harvestState,\n    address harvesterID,\n    address shipperID,\n    address buyerID\n    )\n    {\n      // Assign values to the 9 parameters\n        return\n        (\n        harvestSKU,\n        harvestUPC,\n        productID,\n        productNotes,\n        productPrice,\n        harvestState,\n        harvesterID,\n        shipperID,\n        buyerID\n        );\n    }\n\n    // Define a function 'fetchHarvest' that fetches the data\n    function fetchOrder(uint _orderId) public view returns\n    (\n    uint    orderId,\n    address buyerId,\n    uint    harvestUPC,\n    uint    quantity\n    )\n    {\n        Order storage order_ = orders[_orderId];\n        orderId = order_.orderId;\n        buyerId = order_.buyerId;\n        harvestUPC = order_.upc;\n        quantity = order_.quantity;\n    }\n\n    // Define a function 'fetchHarvest' that fetches the data\n    function fetchQuote(uint _quoteId) public view returns\n    (\n    uint    quoteId,\n    uint    orderId,\n    uint    price,\n    address shipperId,\n    uint    shippingCost,\n    uint    shippingDownPayment,\n    uint    date\n    )\n    {\n        Quote storage quote_ = quotes[_quoteId];\n        quoteId = quote_.quoteId;\n        orderId = quote_.orderId;\n        price = quote_.price;\n        shipperId = quote_.shipperId;\n        shippingCost = quote_.shippingCost;\n        shippingDownPayment = quote_.shippingDownPayment;\n        date = quote_.date;\n    }\n\n    function fetchPurchase(uint _purchaseId) public view returns\n    (\n    uint    purchaseId,\n    uint    quoteId,\n    uint    date\n    )\n    {\n        Purchase storage purchase_ = purchases[_purchaseId];\n        purchaseId = purchase_.purchaseId;\n        quoteId = purchase_.quoteId;\n        date = purchase_.date;\n    }\n\n    function fetchShipment(uint _shipmentId) public view returns\n    (\n    uint    shipmentId,\n    address shipper,\n    uint    purchaseId,\n    uint    date,\n    bool    delivered,\n    uint    dateDelivered\n    )\n    {\n        Shipment storage shipment_ = shipments[_shipmentId];\n        shipmentId = shipment_.shipmentId;\n        shipper = shipment_.shipper;\n        purchaseId = shipment_.purchaseId;\n        date = shipment_.date;\n        delivered = shipment_.delivered;\n        dateDelivered = shipment_.dateDelivered;\n    }\n}\n",
  "sourcePath": "/Users/Tony/Documents/Projects2018/honeyChain/project-6/contracts/honeybase/SupplyChain.sol",
  "compiler": {
    "name": "solc",
    "version": "0.4.24+commit.e67f0147.Emscripten.clang"
  },
  "schemaVersion": "2.0.1",
  "updatedAt": "2019-02-23T04:41:24.646Z"
}