{
  "contractName": "SupplyChain",
  "abi": [
    {
      "inputs": [],
      "payable": true,
      "stateMutability": "payable",
      "type": "constructor"
    },
    {
      "anonymous": false,
      "inputs": [
        {
          "indexed": false,
          "name": "upc",
          "type": "uint256"
        }
      ],
      "name": "Harvested",
      "type": "event"
    },
    {
      "anonymous": false,
      "inputs": [
        {
          "indexed": false,
          "name": "upc",
          "type": "uint256"
        }
      ],
      "name": "Processed",
      "type": "event"
    },
    {
      "anonymous": false,
      "inputs": [
        {
          "indexed": false,
          "name": "upc",
          "type": "uint256"
        }
      ],
      "name": "Packed",
      "type": "event"
    },
    {
      "anonymous": false,
      "inputs": [
        {
          "indexed": false,
          "name": "upc",
          "type": "uint256"
        }
      ],
      "name": "ForSale",
      "type": "event"
    },
    {
      "anonymous": false,
      "inputs": [
        {
          "indexed": false,
          "name": "upc",
          "type": "uint256"
        }
      ],
      "name": "Sold",
      "type": "event"
    },
    {
      "anonymous": false,
      "inputs": [
        {
          "indexed": false,
          "name": "upc",
          "type": "uint256"
        }
      ],
      "name": "Shipped",
      "type": "event"
    },
    {
      "anonymous": false,
      "inputs": [
        {
          "indexed": false,
          "name": "upc",
          "type": "uint256"
        }
      ],
      "name": "Received",
      "type": "event"
    },
    {
      "anonymous": false,
      "inputs": [
        {
          "indexed": false,
          "name": "upc",
          "type": "uint256"
        }
      ],
      "name": "Purchased",
      "type": "event"
    },
    {
      "constant": false,
      "inputs": [],
      "name": "kill",
      "outputs": [],
      "payable": false,
      "stateMutability": "nonpayable",
      "type": "function"
    },
    {
      "constant": false,
      "inputs": [
        {
          "name": "_upc",
          "type": "uint256"
        },
        {
          "name": "_originBeekeeperID",
          "type": "address"
        },
        {
          "name": "_originBeekeeperName",
          "type": "string"
        },
        {
          "name": "_originFarmInformation",
          "type": "string"
        },
        {
          "name": "_originFarmLatitude",
          "type": "string"
        },
        {
          "name": "_originFarmLongitude",
          "type": "string"
        },
        {
          "name": "_productNotes",
          "type": "string"
        }
      ],
      "name": "harvestItem",
      "outputs": [],
      "payable": false,
      "stateMutability": "nonpayable",
      "type": "function"
    },
    {
      "constant": false,
      "inputs": [
        {
          "name": "_upc",
          "type": "uint256"
        }
      ],
      "name": "processItem",
      "outputs": [],
      "payable": false,
      "stateMutability": "nonpayable",
      "type": "function"
    },
    {
      "constant": false,
      "inputs": [
        {
          "name": "_upc",
          "type": "uint256"
        }
      ],
      "name": "packItem",
      "outputs": [],
      "payable": false,
      "stateMutability": "nonpayable",
      "type": "function"
    },
    {
      "constant": false,
      "inputs": [
        {
          "name": "_upc",
          "type": "uint256"
        },
        {
          "name": "_price",
          "type": "uint256"
        }
      ],
      "name": "sellItem",
      "outputs": [],
      "payable": false,
      "stateMutability": "nonpayable",
      "type": "function"
    },
    {
      "constant": false,
      "inputs": [
        {
          "name": "_upc",
          "type": "uint256"
        }
      ],
      "name": "buyItem",
      "outputs": [],
      "payable": true,
      "stateMutability": "payable",
      "type": "function"
    },
    {
      "constant": false,
      "inputs": [
        {
          "name": "_upc",
          "type": "uint256"
        }
      ],
      "name": "shipItem",
      "outputs": [],
      "payable": false,
      "stateMutability": "nonpayable",
      "type": "function"
    },
    {
      "constant": false,
      "inputs": [
        {
          "name": "_upc",
          "type": "uint256"
        }
      ],
      "name": "receiveItem",
      "outputs": [],
      "payable": false,
      "stateMutability": "nonpayable",
      "type": "function"
    },
    {
      "constant": false,
      "inputs": [
        {
          "name": "_upc",
          "type": "uint256"
        }
      ],
      "name": "purchaseItem",
      "outputs": [],
      "payable": false,
      "stateMutability": "nonpayable",
      "type": "function"
    },
    {
      "constant": true,
      "inputs": [
        {
          "name": "_upc",
          "type": "uint256"
        }
      ],
      "name": "fetchItemBufferOne",
      "outputs": [
        {
          "name": "itemSKU",
          "type": "uint256"
        },
        {
          "name": "itemUPC",
          "type": "uint256"
        },
        {
          "name": "ownerID",
          "type": "address"
        },
        {
          "name": "originBeekeeperID",
          "type": "address"
        },
        {
          "name": "originBeekeeperName",
          "type": "string"
        },
        {
          "name": "originFarmInformation",
          "type": "string"
        },
        {
          "name": "originFarmLatitude",
          "type": "string"
        },
        {
          "name": "originFarmLongitude",
          "type": "string"
        }
      ],
      "payable": false,
      "stateMutability": "view",
      "type": "function"
    },
    {
      "constant": true,
      "inputs": [
        {
          "name": "_upc",
          "type": "uint256"
        }
      ],
      "name": "fetchItemBufferTwo",
      "outputs": [
        {
          "name": "itemSKU",
          "type": "uint256"
        },
        {
          "name": "itemUPC",
          "type": "uint256"
        },
        {
          "name": "productID",
          "type": "uint256"
        },
        {
          "name": "productNotes",
          "type": "string"
        },
        {
          "name": "productPrice",
          "type": "uint256"
        },
        {
          "name": "itemState",
          "type": "uint256"
        },
        {
          "name": "harvesterID",
          "type": "address"
        },
        {
          "name": "shipperID",
          "type": "address"
        },
        {
          "name": "buyerID",
          "type": "address"
        }
      ],
      "payable": false,
      "stateMutability": "view",
      "type": "function"
    }
  ],
  "bytecode": "0x6080604052336000806101000a81548173ffffffffffffffffffffffffffffffffffffffff021916908373ffffffffffffffffffffffffffffffffffffffff1602179055506001600281905550600180819055506108bc806100626000396000f3006080604052600436106100af576000357c0100000000000000000000000000000000000000000000000000000000900463ffffffff1680632d923561146100b457806341c0e1b5146100eb57806349dae7661461010257806366225ff91461012f57806377c4591314610291578063a26be999146104ef578063bdd8a6a81461051c578063d38ea5bf146106c7578063e7fb74c7146106f4578063f30fc48014610714578063f61c899a14610741575b600080fd5b3480156100c057600080fd5b506100e9600480360381019080803590602001909291908035906020019092919050505061076e565b005b3480156100f757600080fd5b50610100610772565b005b34801561010e57600080fd5b5061012d60048036038101908080359060200190929190505050610803565b005b34801561013b57600080fd5b5061015a60048036038101908080359060200190929190505050610806565b604051808a8152602001898152602001888152602001806020018781526020018681526020018573ffffffffffffffffffffffffffffffffffffffff1673ffffffffffffffffffffffffffffffffffffffff1681526020018473ffffffffffffffffffffffffffffffffffffffff1673ffffffffffffffffffffffffffffffffffffffff1681526020018373ffffffffffffffffffffffffffffffffffffffff1673ffffffffffffffffffffffffffffffffffffffff168152602001828103825288818151815260200191508051906020019080838360005b8381101561024e578082015181840152602081019050610233565b50505050905090810190601f16801561027b5780820380516001836020036101000a031916815260200191505b509a505050505050505050505060405180910390f35b34801561029d57600080fd5b506102bc6004803603810190808035906020019092919050505061083d565b604051808981526020018881526020018773ffffffffffffffffffffffffffffffffffffffff1673ffffffffffffffffffffffffffffffffffffffff1681526020018673ffffffffffffffffffffffffffffffffffffffff1673ffffffffffffffffffffffffffffffffffffffff16815260200180602001806020018060200180602001858103855289818151815260200191508051906020019080838360005b8381101561037857808201518184015260208101905061035d565b50505050905090810190601f1680156103a55780820380516001836020036101000a031916815260200191505b50858103845288818151815260200191508051906020019080838360005b838110156103de5780820151818401526020810190506103c3565b50505050905090810190601f16801561040b5780820380516001836020036101000a031916815260200191505b50858103835287818151815260200191508051906020019080838360005b83811015610444578082015181840152602081019050610429565b50505050905090810190601f1680156104715780820380516001836020036101000a031916815260200191505b50858103825286818151815260200191508051906020019080838360005b838110156104aa57808201518184015260208101905061048f565b50505050905090810190601f1680156104d75780820380516001836020036101000a031916815260200191505b509c5050505050505050505050505060405180910390f35b3480156104fb57600080fd5b5061051a6004803603810190808035906020019092919050505061086c565b005b34801561052857600080fd5b506106c560048036038101908080359060200190929190803573ffffffffffffffffffffffffffffffffffffffff169060200190929190803590602001908201803590602001908080601f0160208091040260200160405190810160405280939291908181526020018383808284378201915050505050509192919290803590602001908201803590602001908080601f0160208091040260200160405190810160405280939291908181526020018383808284378201915050505050509192919290803590602001908201803590602001908080601f0160208091040260200160405190810160405280939291908181526020018383808284378201915050505050509192919290803590602001908201803590602001908080601f0160208091040260200160405190810160405280939291908181526020018383808284378201915050505050509192919290803590602001908201803590602001908080601f016020809104026020016040519081016040528093929190818152602001838380828437820191505050505050919291929050505061086f565b005b3480156106d357600080fd5b506106f260048036038101908080359060200190929190505050610884565b005b61071260048036038101908080359060200190929190505050610887565b005b34801561072057600080fd5b5061073f6004803603810190808035906020019092919050505061088a565b005b34801561074d57600080fd5b5061076c6004803603810190808035906020019092919050505061088d565b005b5050565b6000809054906101000a900473ffffffffffffffffffffffffffffffffffffffff1673ffffffffffffffffffffffffffffffffffffffff163373ffffffffffffffffffffffffffffffffffffffff161415610801576000809054906101000a900473ffffffffffffffffffffffffffffffffffffffff1673ffffffffffffffffffffffffffffffffffffffff16ff5b565b50565b6000806000606060008060008060008888888888888888889850985098509850985098509850985098509193959799909294969850565b600080600080606080606080878787878787878797509750975097509750975097509750919395975091939597565b50565b60016002540160028190555050505050505050565b50565b50565b50565b505600a165627a7a72305820bf08320d481397db9a4a55c50fd8ef29e451a18c33448ef4ea04a5aaef4d35ba0029",
  "source": "pragma solidity ^0.4.24;\n// Define a contract 'Supplychain'\ncontract SupplyChain {\n\n    // Define 'owner'\n    address owner;\n\n    // Define a variable called 'upc' for Universal Product Code (UPC)\n    uint  upc;\n\n    // Define a variable called 'sku' for Stock Keeping Unit (SKU)\n    uint  sku;\n\n    // Define a public mapping 'items' that maps the UPC to an Item.\n    mapping (uint => Item) items;\n\n    // Define a public mapping 'itemsHistory' that maps the UPC to an array of TxHash,\n    // that track its journey through the supply chain -- to be sent from DApp.\n    mapping (uint => string[]) itemsHistory;\n\n    // Define enum 'State' with the following values:\n    enum State\n    {\n      Harvested,  // 0\n      Processed,  // 1\n      Packed,     // 2\n      ForSale,    // 3\n      Sold,       // 4\n      Shipped,    // 5\n      Received,   // 6\n      Purchased   // 7\n      }\n\n    State constant defaultState = State.Harvested;\n\n    // Define a struct 'Item' with the following fields:\n    struct Item {\n        uint    sku;  // Stock Keeping Unit (SKU)\n        uint    upc; // Universal Product Code (UPC), generated by the Harvester, goes on the package, can be verified by the Buyer\n        address ownerID;  // Metamask-Ethereum address of the current owner as the product moves through 8 stages\n        address originBeekeeperID; // Metamask-Ethereum address of the BeeKeeper\n        string  originBeekeeperName; // BeeKeeper Name\n        string  originFarmInformation;  // BeeKeeper Information\n        string  originFarmLatitude; // Farm Latitude\n        string  originFarmLongitude;  // Farm Longitude\n        uint    productID;  // Product ID potentially a combination of upc + sku\n        string  productNotes; // Product Notes\n        uint    productPrice; // Product Price\n        State   itemState;  // Product State as represented in the enum above\n        address harvesterID;  // Metamask-Ethereum address of the Harvester\n        address shipperID; // Metamask-Ethereum address of the Shipper\n        address buyerID; // Metamask-Ethereum address of the Buyer\n    }\n\n    // Define 8 events with the same 8 state values and accept 'upc' as input argument\n    event Harvested(uint upc);\n    event Processed(uint upc);\n    event Packed(uint upc);\n    event ForSale(uint upc);\n    event Sold(uint upc);\n    event Shipped(uint upc);\n    event Received(uint upc);\n    event Purchased(uint upc);\n\n    // Define a modifer that checks to see if msg.sender == owner of the contract\n    modifier onlyOwner() {\n        require(msg.sender == owner);\n        _;\n    }\n\n    // Define a modifer that verifies the Caller\n    modifier verifyCaller (address _address) {\n        require(msg.sender == _address);\n        _;\n    }\n\n    // Define a modifier that checks if the paid amount is sufficient to cover the price\n    modifier paidEnough(uint _price) {\n        require(msg.value >= _price);\n        _;\n    }\n\n    // Define a modifier that checks the price and refunds the remaining balance\n    modifier checkValue(uint _upc) {\n        _;\n        uint _price = items[_upc].productPrice;\n        uint amountToReturn = msg.value - _price;\n        items[_upc].buyerID.transfer(amountToReturn);\n    }\n\n    // Define a modifier that checks if an item.state of a upc is Harvested\n    modifier harvested(uint _upc) {\n        require(items[_upc].itemState == State.Harvested);\n        _;\n    }\n\n    // Define a modifier that checks if an item.state of a upc is Processed\n    modifier processed(uint _upc) {\n\n        _;\n    }\n\n    // Define a modifier that checks if an item.state of a upc is Packed\n    modifier packed(uint _upc) {\n\n        _;\n    }\n\n    // Define a modifier that checks if an item.state of a upc is ForSale\n    modifier forSale(uint _upc) {\n\n        _;\n    }\n\n    // Define a modifier that checks if an item.state of a upc is Sold\n    modifier sold(uint _upc) {\n\n        _;\n    }\n\n    // Define a modifier that checks if an item.state of a upc is Shipped\n    modifier shipped(uint _upc) {\n\n        _;\n    }\n\n    // Define a modifier that checks if an item.state of a upc is Received\n    modifier received(uint _upc) {\n\n        _;\n    }\n\n    // Define a modifier that checks if an item.state of a upc is Purchased\n    modifier purchased(uint _upc) {\n\n        _;\n    }\n\n    // In the constructor set 'owner' to the address that instantiated the contract\n    // and set 'sku' to 1\n    // and set 'upc' to 1\n    constructor() public payable {\n        owner = msg.sender;\n        sku = 1;\n        upc = 1;\n    }\n\n    // Define a function 'kill' if required\n    function kill() public {\n        if (msg.sender == owner) {\n          selfdestruct(owner);\n        }\n    }\n\n    // Define a function 'harvestItem' that allows a farmer to mark an item 'Harvested'\n    function harvestItem(uint _upc, address _originBeekeeperID, string _originBeekeeperName, string _originFarmInformation, string  _originFarmLatitude, string  _originFarmLongitude, string  _productNotes) public\n    {\n        // Add the new item as part of Harvest\n\n        // Increment sku\n        sku = sku + 1;\n        // Emit the appropriate event\n\n    }\n\n    // Define a function 'processtItem' that allows a farmer to mark an item 'Processed'\n    function processItem(uint _upc) public\n    // Call modifier to check if upc has passed previous supply chain stage\n\n    // Call modifier to verify caller of this function\n\n    {\n      // Update the appropriate fields\n\n      // Emit the appropriate event\n\n    }\n\n    // Define a function 'packItem' that allows a farmer to mark an item 'Packed'\n    function packItem(uint _upc) public\n    // Call modifier to check if upc has passed previous supply chain stage\n\n    // Call modifier to verify caller of this function\n\n    {\n      // Update the appropriate fields\n\n      // Emit the appropriate event\n\n    }\n\n    // Define a function 'sellItem' that allows a farmer to mark an item 'ForSale'\n    function sellItem(uint _upc, uint _price) public\n    // Call modifier to check if upc has passed previous supply chain stage\n\n    // Call modifier to verify caller of this function\n\n    {\n      // Update the appropriate fields\n\n      // Emit the appropriate event\n\n    }\n\n    // Define a function 'buyItem' that allows the disributor to mark an item 'Sold'\n    // Use the above defined modifiers to check if the item is available for sale, if the buyer has paid enough,\n    // and any excess ether sent is refunded back to the buyer\n    function buyItem(uint _upc) public payable\n      // Call modifier to check if upc has passed previous supply chain stage\n\n      // Call modifer to check if buyer has paid enough\n\n      // Call modifer to send any excess ether back to buyer\n\n      {\n\n      // Update the appropriate fields - ownerID, harvesterID, itemState\n\n      // Transfer money to farmer\n\n      // emit the appropriate event\n\n    }\n\n    // Define a function 'shipItem' that allows the harvester to mark an item 'Shipped'\n    // Use the above modifers to check if the item is sold\n    function shipItem(uint _upc) public\n      // Call modifier to check if upc has passed previous supply chain stage\n\n      // Call modifier to verify caller of this function\n\n      {\n      // Update the appropriate fields\n\n      // Emit the appropriate event\n\n    }\n\n    // Define a function 'receiveItem' that allows the shipper to mark an item 'Received'\n    // Use the above modifiers to check if the item is shipped\n    function receiveItem(uint _upc) public\n      // Call modifier to check if upc has passed previous supply chain stage\n\n      // Access Control List enforced by calling Smart Contract / DApp\n      {\n      // Update the appropriate fields - ownerID, shipperID, itemState\n\n      // Emit the appropriate event\n\n    }\n\n    // Define a function 'purchaseItem' that allows the buyer to mark an item 'Purchased'\n    // Use the above modifiers to check if the item is received\n    function purchaseItem(uint _upc) public\n      // Call modifier to check if upc has passed previous supply chain stage\n\n      // Access Control List enforced by calling Smart Contract / DApp\n      {\n      // Update the appropriate fields - ownerID, buyerID, itemState\n\n      // Emit the appropriate event\n\n    }\n\n    // Define a function 'fetchItemBufferOne' that fetches the data\n    function fetchItemBufferOne(uint _upc) public view returns\n    (\n    uint    itemSKU,\n    uint    itemUPC,\n    address ownerID,\n    address originBeekeeperID,\n    string  originBeekeeperName,\n    string  originFarmInformation,\n    string  originFarmLatitude,\n    string  originFarmLongitude\n    )\n    {\n      // Assign values to the 8 parameters\n\n        return\n        (\n        itemSKU,\n        itemUPC,\n        ownerID,\n        originBeekeeperID,\n        originBeekeeperName,\n        originFarmInformation,\n        originFarmLatitude,\n        originFarmLongitude\n        );\n    }\n\n    // Define a function 'fetchItemBufferTwo' that fetches the data\n    function fetchItemBufferTwo(uint _upc) public view returns\n    (\n    uint    itemSKU,\n    uint    itemUPC,\n    uint    productID,\n    string  productNotes,\n    uint    productPrice,\n    uint    itemState,\n    address harvesterID,\n    address shipperID,\n    address buyerID\n    )\n    {\n      // Assign values to the 9 parameters\n        return\n        (\n        itemSKU,\n        itemUPC,\n        productID,\n        productNotes,\n        productPrice,\n        itemState,\n        harvesterID,\n        shipperID,\n        buyerID\n        );\n    }\n}\n",
  "sourcePath": "/Users/Tony/Documents/Projects2018/honeyChain/project-6/contracts/honeybase/SupplyChain.sol",
  "compiler": {
    "name": "solc",
    "version": "0.4.24+commit.e67f0147.Emscripten.clang"
  },
  "schemaVersion": "2.0.1",
  "updatedAt": "2019-02-05T05:17:08.589Z"
}