{
  "contractName": "SupplyChain",
  "abi": [
    {
      "inputs": [],
      "payable": true,
      "stateMutability": "payable",
      "type": "constructor"
    },
    {
      "anonymous": false,
      "inputs": [
        {
          "indexed": false,
          "name": "upc",
          "type": "uint256"
        }
      ],
      "name": "Harvested",
      "type": "event"
    },
    {
      "anonymous": false,
      "inputs": [
        {
          "indexed": false,
          "name": "orderId",
          "type": "uint256"
        },
        {
          "indexed": false,
          "name": "quantity",
          "type": "uint256"
        }
      ],
      "name": "PlacedOrder",
      "type": "event"
    },
    {
      "anonymous": false,
      "inputs": [
        {
          "indexed": false,
          "name": "upc",
          "type": "uint256"
        }
      ],
      "name": "SentQuote",
      "type": "event"
    },
    {
      "anonymous": false,
      "inputs": [
        {
          "indexed": false,
          "name": "upc",
          "type": "uint256"
        }
      ],
      "name": "CommitedToPurchase",
      "type": "event"
    },
    {
      "anonymous": false,
      "inputs": [
        {
          "indexed": false,
          "name": "upc",
          "type": "uint256"
        }
      ],
      "name": "PickedUpHoney",
      "type": "event"
    },
    {
      "anonymous": false,
      "inputs": [
        {
          "indexed": false,
          "name": "upc",
          "type": "uint256"
        }
      ],
      "name": "DeliveredHoney",
      "type": "event"
    },
    {
      "anonymous": false,
      "inputs": [
        {
          "indexed": false,
          "name": "upc",
          "type": "uint256"
        }
      ],
      "name": "ReleasedPayment",
      "type": "event"
    },
    {
      "constant": false,
      "inputs": [],
      "name": "kill",
      "outputs": [],
      "payable": false,
      "stateMutability": "nonpayable",
      "type": "function"
    },
    {
      "constant": false,
      "inputs": [
        {
          "name": "_upc",
          "type": "uint256"
        },
        {
          "name": "_harvesterID",
          "type": "address"
        },
        {
          "name": "_originBeekeeperID",
          "type": "address"
        },
        {
          "name": "_originBeekeeperName",
          "type": "string"
        },
        {
          "name": "_originFarmInformation",
          "type": "string"
        },
        {
          "name": "_originFarmLatitude",
          "type": "string"
        },
        {
          "name": "_originFarmLongitude",
          "type": "string"
        },
        {
          "name": "_quantity",
          "type": "uint256"
        },
        {
          "name": "_productNotes",
          "type": "string"
        }
      ],
      "name": "harvestItem",
      "outputs": [],
      "payable": false,
      "stateMutability": "nonpayable",
      "type": "function"
    },
    {
      "constant": false,
      "inputs": [
        {
          "name": "_upc",
          "type": "uint256"
        },
        {
          "name": "quantity",
          "type": "uint256"
        }
      ],
      "name": "placeOrder",
      "outputs": [],
      "payable": false,
      "stateMutability": "nonpayable",
      "type": "function"
    },
    {
      "constant": false,
      "inputs": [
        {
          "name": "_upc",
          "type": "uint256"
        },
        {
          "name": "quantity",
          "type": "uint256"
        }
      ],
      "name": "sendQuote",
      "outputs": [],
      "payable": false,
      "stateMutability": "nonpayable",
      "type": "function"
    },
    {
      "constant": false,
      "inputs": [
        {
          "name": "_upc",
          "type": "uint256"
        },
        {
          "name": "_price",
          "type": "uint256"
        }
      ],
      "name": "commitToPurchase",
      "outputs": [],
      "payable": false,
      "stateMutability": "nonpayable",
      "type": "function"
    },
    {
      "constant": false,
      "inputs": [
        {
          "name": "_upc",
          "type": "uint256"
        }
      ],
      "name": "pickUpHoney",
      "outputs": [],
      "payable": false,
      "stateMutability": "nonpayable",
      "type": "function"
    },
    {
      "constant": false,
      "inputs": [
        {
          "name": "_upc",
          "type": "uint256"
        }
      ],
      "name": "deliverHoney",
      "outputs": [],
      "payable": false,
      "stateMutability": "nonpayable",
      "type": "function"
    },
    {
      "constant": false,
      "inputs": [
        {
          "name": "_upc",
          "type": "uint256"
        }
      ],
      "name": "releasePayment",
      "outputs": [],
      "payable": false,
      "stateMutability": "nonpayable",
      "type": "function"
    },
    {
      "constant": true,
      "inputs": [
        {
          "name": "_upc",
          "type": "uint256"
        }
      ],
      "name": "fetchItemBufferOne",
      "outputs": [
        {
          "name": "harvestSKU",
          "type": "uint256"
        },
        {
          "name": "harvestUPC",
          "type": "uint256"
        },
        {
          "name": "ownerID",
          "type": "address"
        },
        {
          "name": "originBeekeeperID",
          "type": "address"
        },
        {
          "name": "originBeekeeperName",
          "type": "string"
        },
        {
          "name": "originFarmInformation",
          "type": "string"
        },
        {
          "name": "originFarmLatitude",
          "type": "string"
        },
        {
          "name": "originFarmLongitude",
          "type": "string"
        },
        {
          "name": "quantity",
          "type": "uint256"
        }
      ],
      "payable": false,
      "stateMutability": "view",
      "type": "function"
    },
    {
      "constant": true,
      "inputs": [
        {
          "name": "_upc",
          "type": "uint256"
        }
      ],
      "name": "fetchItemBufferTwo",
      "outputs": [
        {
          "name": "harvestSKU",
          "type": "uint256"
        },
        {
          "name": "harvestUPC",
          "type": "uint256"
        },
        {
          "name": "productID",
          "type": "uint256"
        },
        {
          "name": "productNotes",
          "type": "string"
        },
        {
          "name": "productPrice",
          "type": "uint256"
        },
        {
          "name": "harvestState",
          "type": "uint256"
        },
        {
          "name": "harvesterID",
          "type": "address"
        },
        {
          "name": "shipperID",
          "type": "address"
        },
        {
          "name": "buyerID",
          "type": "address"
        }
      ],
      "payable": false,
      "stateMutability": "view",
      "type": "function"
    },
    {
      "constant": true,
      "inputs": [
        {
          "name": "_orderId",
          "type": "uint256"
        }
      ],
      "name": "fetchOrder",
      "outputs": [
        {
          "name": "orderId",
          "type": "uint256"
        },
        {
          "name": "harvestUPC",
          "type": "uint256"
        },
        {
          "name": "quantity",
          "type": "uint256"
        }
      ],
      "payable": false,
      "stateMutability": "view",
      "type": "function"
    }
  ],
  "bytecode": "0x6080604052336000806101000a81548173ffffffffffffffffffffffffffffffffffffffff021916908373ffffffffffffffffffffffffffffffffffffffff16021790555060016002819055506001808190555060016003819055506110998061006a6000396000f3006080604052600436106100af576000357c0100000000000000000000000000000000000000000000000000000000900463ffffffff1680631b8d56ff146100b45780632eae431f14610103578063353ab3f81461013057806341c0e1b514610167578063586be1c81461017e57806366225ff9146101ab57806372ca86651461030d57806377c45913146103445780637d4e139b146105a9578063843f61e21461077e57806388685cd9146107b5575b600080fd5b3480156100c057600080fd5b506100df600480360381019080803590602001909291905050506107e2565b60405180848152602001838152602001828152602001935050505060405180910390f35b34801561010f57600080fd5b5061012e60048036038101908080359060200190929190505050610823565b005b34801561013c57600080fd5b50610165600480360381019080803590602001909291908035906020019092919050505061085f565b005b34801561017357600080fd5b5061017c61089c565b005b34801561018a57600080fd5b506101a96004803603810190808035906020019092919050505061092d565b005b3480156101b757600080fd5b506101d660048036038101908080359060200190929190505050610969565b604051808a8152602001898152602001888152602001806020018781526020018681526020018573ffffffffffffffffffffffffffffffffffffffff1673ffffffffffffffffffffffffffffffffffffffff1681526020018473ffffffffffffffffffffffffffffffffffffffff1673ffffffffffffffffffffffffffffffffffffffff1681526020018373ffffffffffffffffffffffffffffffffffffffff1673ffffffffffffffffffffffffffffffffffffffff168152602001828103825288818151815260200191508051906020019080838360005b838110156102ca5780820151818401526020810190506102af565b50505050905090810190601f1680156102f75780820380516001836020036101000a031916815260200191505b509a505050505050505050505060405180910390f35b34801561031957600080fd5b5061034260048036038101908080359060200190929190803590602001909291905050506109a0565b005b34801561035057600080fd5b5061036f600480360381019080803590602001909291905050506109dd565b604051808a81526020018981526020018873ffffffffffffffffffffffffffffffffffffffff1673ffffffffffffffffffffffffffffffffffffffff1681526020018773ffffffffffffffffffffffffffffffffffffffff1673ffffffffffffffffffffffffffffffffffffffff1681526020018060200180602001806020018060200186815260200185810385528a818151815260200191508051906020019080838360005b83811015610431578082015181840152602081019050610416565b50505050905090810190601f16801561045e5780820380516001836020036101000a031916815260200191505b50858103845289818151815260200191508051906020019080838360005b8381101561049757808201518184015260208101905061047c565b50505050905090810190601f1680156104c45780820380516001836020036101000a031916815260200191505b50858103835288818151815260200191508051906020019080838360005b838110156104fd5780820151818401526020810190506104e2565b50505050905090810190601f16801561052a5780820380516001836020036101000a031916815260200191505b50858103825287818151815260200191508051906020019080838360005b83811015610563578082015181840152602081019050610548565b50505050905090810190601f1680156105905780820380516001836020036101000a031916815260200191505b509d505050505050505050505050505060405180910390f35b3480156105b557600080fd5b5061077c60048036038101908080359060200190929190803573ffffffffffffffffffffffffffffffffffffffff169060200190929190803573ffffffffffffffffffffffffffffffffffffffff169060200190929190803590602001908201803590602001908080601f0160208091040260200160405190810160405280939291908181526020018383808284378201915050505050509192919290803590602001908201803590602001908080601f0160208091040260200160405190810160405280939291908181526020018383808284378201915050505050509192919290803590602001908201803590602001908080601f0160208091040260200160405190810160405280939291908181526020018383808284378201915050505050509192919290803590602001908201803590602001908080601f016020809104026020016040519081016040528093929190818152602001838380828437820191505050505050919291929080359060200190929190803590602001908201803590602001908080601f0160208091040260200160405190810160405280939291908181526020018383808284378201915050505050509192919290505050610cee565b005b34801561078a57600080fd5b506107b36004803603810190808035906020019092919080359060200190929190505050610f02565b005b3480156107c157600080fd5b506107e060048036038101908080359060200190929190505050610f8c565b005b600080600080600560008581526020019081526020016000209050806000015493508060010154925080600201549150838383935093509350509193909250565b7f43826d50992bb6855ef4769008848a0d9debd8ea86b36602948051132df350926001546040518082815260200191505060405180910390a150565b7f290738b2ee23b5c98aaed144b2259ba1c7e9feaf4ae53769437fe3c52e05dc036001546040518082815260200191505060405180910390a15050565b6000809054906101000a900473ffffffffffffffffffffffffffffffffffffffff1673ffffffffffffffffffffffffffffffffffffffff163373ffffffffffffffffffffffffffffffffffffffff16141561092b576000809054906101000a900473ffffffffffffffffffffffffffffffffffffffff1673ffffffffffffffffffffffffffffffffffffffff16ff5b565b7f9de87b436b52b529e3375b477198864abf9e63a8750898b1cbf6e0b4a35e5c886001546040518082815260200191505060405180910390a150565b6000806000606060008060008060008888888888888888889850985098509850985098509850985098509193959799909294969850565b7fb4d480fa9173c3a6f606c62020e05d05fcd08143b78c22252b474d5c9eef198c6001546040518082815260200191505060405180910390a15050565b600080600080606080606080600080600460008c8152602001908152602001600020905080600001549950806001015498508060020160009054906101000a900473ffffffffffffffffffffffffffffffffffffffff1697508060030160009054906101000a900473ffffffffffffffffffffffffffffffffffffffff169650806004018054600181600116156101000203166002900480601f016020809104026020016040519081016040528092919081815260200182805460018160011615610100020316600290048015610af55780601f10610aca57610100808354040283529160200191610af5565b820191906000526020600020905b815481529060010190602001808311610ad857829003601f168201915b50505050509550806005018054600181600116156101000203166002900480601f016020809104026020016040519081016040528092919081815260200182805460018160011615610100020316600290048015610b945780601f10610b6957610100808354040283529160200191610b94565b820191906000526020600020905b815481529060010190602001808311610b7757829003601f168201915b50505050509450806006018054600181600116156101000203166002900480601f016020809104026020016040519081016040528092919081815260200182805460018160011615610100020316600290048015610c335780601f10610c0857610100808354040283529160200191610c33565b820191906000526020600020905b815481529060010190602001808311610c1657829003601f168201915b50505050509350806007018054600181600116156101000203166002900480601f016020809104026020016040519081016040528092919081815260200182805460018160011615610100020316600290048015610cd25780601f10610ca757610100808354040283529160200191610cd2565b820191906000526020600020905b815481529060010190602001808311610cb557829003601f168201915b5050505050925080600801549150509193959799909294969850565b6000600460008b81526020019081526020016000209050600254816000018190555060015481600101819055506000809054906101000a900473ffffffffffffffffffffffffffffffffffffffff168160020160006101000a81548173ffffffffffffffffffffffffffffffffffffffff021916908373ffffffffffffffffffffffffffffffffffffffff160217905550878160030160006101000a81548173ffffffffffffffffffffffffffffffffffffffff021916908373ffffffffffffffffffffffffffffffffffffffff16021790555086816004019080519060200190610dda929190610fc8565b5085816005019080519060200190610df3929190610fc8565b5084816006019080519060200190610e0c929190610fc8565b5083816007019080519060200190610e25929190610fc8565b508281600801819055508181600a019080519060200190610e47929190610fc8565b50600081600c0160006101000a81548160ff02191690836006811115610e6957fe5b02179055508881600c0160016101000a81548173ffffffffffffffffffffffffffffffffffffffff021916908373ffffffffffffffffffffffffffffffffffffffff1602179055506001600254016002819055507f8e55ccfc9778ff8eba1646d765cf1982537ce0f9257054a17b48aad7452501836001546040518082815260200191505060405180910390a150505050505050505050565b60006005600060035481526020019081526020016000209050600354816000018190555060015481600101819055508181600201819055507f9156cebb0781971f996de6c50062a4f014940a06170b5a5101d2ef7e4919531460035483604051808381526020018281526020019250505060405180910390a1600160035401600381905550505050565b7f4d76540d7b5f4819a9986d262d5093a88e575c5a75d2d9adca95520b3b17e0b86001546040518082815260200191505060405180910390a150565b828054600181600116156101000203166002900490600052602060002090601f016020900481019282601f1061100957805160ff1916838001178555611037565b82800160010185558215611037579182015b8281111561103657825182559160200191906001019061101b565b5b5090506110449190611048565b5090565b61106a91905b8082111561106657600081600090555060010161104e565b5090565b905600a165627a7a72305820893b69769b85ed88c1ae0671f2ea8f2a4524323da3597feab946a88a80ecf60c0029",
  "source": "pragma solidity ^0.4.24;\n// Define a contract 'Supplychain'\ncontract SupplyChain {\n\n    // Define 'owner'\n    address owner;\n\n    // Define a variable called 'upc' for Universal Product Code (UPC)\n    uint  upc;\n\n    // Define a variable called 'sku' for Stock Keeping Unit (SKU)\n    uint  sku;\n\n    uint  orderId;\n\n    // Define a public mapping 'harvests' that maps the UPC to a Harvest.\n    mapping (uint => Harvest) harvests;\n\n    // Define a public mapping 'orders' that maps the UPC to an Order.\n    mapping (uint => Order) orders;\n\n    // Define a public mapping 'harvestsHistory' that maps the UPC to an array of TxHash,\n    // that track its journey through the supply chain -- to be sent from DApp.\n    mapping (uint => string[]) harvestsHistory;\n\n    // Define enum 'State' with the following values:\n    enum State\n    {\n        Harvested,              // 0\n        PlacedOrder,            // 1\n        SentQuote,              // 2\n        CommitedToPurchase,     // 3\n        PickedUpHoney,          // 4\n        DeliveredHoney,         // 5\n        ReleasedPayment         // 6\n    }\n\n    State constant defaultState = State.Harvested;\n\n    // Define a struct 'Item' with the following fields:\n    struct Harvest {\n        uint    sku;  // Stock Keeping Unit (SKU)\n        uint    upc; // Universal Product Code (UPC), generated by the Harvester, goes on the package, can be verified by the Buyer\n        address ownerID;  // Metamask-Ethereum address of the current owner as the product moves through 8 stages\n        address originBeekeeperID; // Metamask-Ethereum address of the BeeKeeper\n        string  originBeekeeperName; // BeeKeeper Name\n        string  originFarmInformation;  // BeeKeeper Information\n        string  originFarmLatitude; // Farm Latitude\n        string  originFarmLongitude;  // Farm Longitude\n        uint    quantity; // Quantity in milliliters\n        uint    productID;  // Product ID potentially a combination of upc + sku\n        string  productNotes; // Product Notes\n        uint    productPrice; // Product Price\n        State   harvestState;  // Product State as represented in the enum above\n        address harvesterID;  // Metamask-Ethereum address of the Harvester\n        address shipperID; // Metamask-Ethereum address of the Shipper\n        address buyerID; // Metamask-Ethereum address of the Buyer\n    }\n\n    struct Order {\n        uint    orderId;\n        uint    upc;\n        uint    quantity;\n    }\n\n    // Define 8 events with the same 8 state values and accept 'upc' as input argument\n    event Harvested(uint upc);\n    event PlacedOrder(uint orderId,uint quantity);\n    event SentQuote(uint upc);\n    event CommitedToPurchase(uint upc);\n    event PickedUpHoney(uint upc);\n    event DeliveredHoney(uint upc);\n    event ReleasedPayment(uint upc);\n\n    // Define a modifer that checks to see if msg.sender == owner of the contract\n    modifier onlyOwner() {\n        require(msg.sender == owner);\n        _;\n    }\n\n    // Define a modifer that verifies the Caller\n    modifier verifyCaller (address _address) {\n        require(msg.sender == _address);\n        _;\n    }\n\n    // Define a modifier that checks if the paid amount is sufficient to cover the price\n    modifier paidEnough(uint _price) {\n        require(msg.value >= _price);\n        _;\n    }\n\n    // Define a modifier that checks the price and refunds the remaining balance\n    modifier checkValue(uint _upc) {\n        _;\n        uint _price = harvests[_upc].productPrice;\n        uint amountToReturn = msg.value - _price;\n        harvests[_upc].buyerID.transfer(amountToReturn);\n    }\n\n    // Define a modifier that checks if an harvest.state of a upc is Harvested\n    modifier harvested(uint _upc) {\n        require(harvests[_upc].harvestState == State.Harvested);\n        _;\n    }\n\n    // Define a modifier that checks if an harvest.state of a upc is PlacedOrder\n    modifier placedOrder(uint _upc) {\n        require(harvests[_upc].harvestState == State.PlacedOrder);\n        _;\n    }\n\n    // Define a modifier that checks if an harvest.state of a upc is SentQuote\n    modifier sentQuote(uint _upc) {\n        require(harvests[_upc].harvestState == State.SentQuote);\n        _;\n    }\n\n    // Define a modifier that checks if an harvest.state of a upc is CommitedToPurchase\n    modifier commitedToPurchase(uint _upc) {\n        require(harvests[_upc].harvestState == State.CommitedToPurchase);\n        _;\n    }\n\n    // Define a modifier that checks if an harvest.state of a upc is PickedUpHoney\n    modifier pickedUpHoney(uint _upc) {\n        require(harvests[_upc].harvestState == State.PickedUpHoney);\n        _;\n    }\n\n    // Define a modifier that checks if an harvest.state of a upc is DeliveredHoney\n    modifier deliveredHoney(uint _upc) {\n        require(harvests[_upc].harvestState == State.DeliveredHoney);\n        _;\n    }\n\n    // Define a modifier that checks if an harvest.state of a upc is ReleasedPayment\n    modifier releasedPayment(uint _upc) {\n        require(harvests[_upc].harvestState == State.ReleasedPayment);\n        _;\n    }\n\n    // In the constructor set 'owner' to the address that instantiated the contract\n    // and set 'sku' to 1\n    // and set 'upc' to 1\n    constructor() public payable {\n        owner = msg.sender;\n        sku = 1;\n        upc = 1;\n        orderId = 1;\n    }\n\n    // Define a function 'kill' if required\n    function kill() public {\n        if (msg.sender == owner) {\n          selfdestruct(owner);\n        }\n    }\n\n    // Define a function 'harvestItem' that allows a farmer to mark an harvest 'Harvested'\n    function harvestItem(uint _upc, address _harvesterID, address _originBeekeeperID, string _originBeekeeperName, string _originFarmInformation, string  _originFarmLatitude, string  _originFarmLongitude, uint _quantity, string  _productNotes) public\n    {\n        // Add the new harvest as part of Harvest\n        Harvest storage harvest_ = harvests[_upc];\n        harvest_.sku = sku;\n        harvest_.upc = upc;\n        harvest_.ownerID = owner;\n        harvest_.originBeekeeperID = _originBeekeeperID;\n        harvest_.originBeekeeperName = _originBeekeeperName;\n        harvest_.originFarmInformation = _originFarmInformation;\n        harvest_.originFarmLatitude = _originFarmLatitude;\n        harvest_.originFarmLongitude = _originFarmLongitude;\n        harvest_.quantity = _quantity;\n        harvest_.productNotes = _productNotes;\n        harvest_.harvestState = defaultState;\n        harvest_.harvesterID = _harvesterID;\n\n        // Increment sku\n        sku = sku + 1;\n\n        emit Harvested(upc);\n    }\n\n    // Define a function 'processtItem' that allows a farmer to mark an harvest 'Processed'\n    function placeOrder(uint _upc, uint quantity) public\n    // Call modifier to check if upc has passed previous supply chain stage\n\n    // Call modifier to verify caller of this function\n\n    {\n        Order storage order_ = orders[orderId];\n        order_.orderId = orderId;\n        order_.upc = upc;\n        order_.quantity = quantity;\n\n        emit PlacedOrder(orderId, quantity);\n        orderId = orderId + 1;\n\n\n    }\n\n    // Define a function 'packItem' that allows a farmer to mark an harvest 'Packed'\n    function sendQuote(uint _upc, uint quantity) public\n    // Call modifier to check if upc has passed previous supply chain stage\n\n    // Call modifier to verify caller of this function\n\n    {\n        // Update the appropriate fields\n\n        emit SentQuote(upc);\n    }\n\n    // Define a function 'sellItem' that allows a farmer to mark an harvest 'ForSale'\n    function commitToPurchase(uint _upc, uint _price) public\n    // Call modifier to check if upc has passed previous supply chain stage\n\n    // Call modifier to verify caller of this function\n\n    {\n        // Update the appropriate fields\n\n        emit CommitedToPurchase(upc);\n\n    }\n\n    // Define a function 'pickUpHoney' that allows the harvester to mark an harvest 'PickedUpHoney'\n    // Use the above modifers to check if the harvest is sold\n    function pickUpHoney(uint _upc) public\n      // Call modifier to check if upc has passed previous supply chain stage\n\n      // Call modifier to verify caller of this function\n\n    {\n        // Update the appropriate fields\n\n        emit PickedUpHoney(upc);\n\n    }\n\n    // Define a function 'receiveItem' that allows the shipper to mark an harvest 'Received'\n    // Use the above modifiers to check if the harvest is shipped\n    function deliverHoney(uint _upc) public\n    // Call modifier to check if upc has passed previous supply chain stage\n\n    // Access Control List enforced by calling Smart Contract / DApp\n    {\n        // Update the appropriate fields - ownerID, shipperID, harvestState\n\n        emit DeliveredHoney(upc);\n\n    }\n\n    // Define a function 'purchaseItem' that allows the buyer to mark an harvest 'Purchased'\n    // Use the above modifiers to check if the harvest is received\n    function releasePayment(uint _upc) public\n    // Call modifier to check if upc has passed previous supply chain stage\n\n    // Access Control List enforced by calling Smart Contract / DApp\n    {\n        // Update the appropriate fields - ownerID, buyerID, harvestState\n\n        emit ReleasedPayment(upc);\n\n    }\n\n    // Define a function 'fetchItemBufferOne' that fetches the data\n    function fetchItemBufferOne(uint _upc) public view returns\n    (\n    uint    harvestSKU,\n    uint    harvestUPC,\n    address ownerID,\n    address originBeekeeperID,\n    string  originBeekeeperName,\n    string  originFarmInformation,\n    string  originFarmLatitude,\n    string  originFarmLongitude,\n    uint    quantity\n    )\n    {\n      // Assign values to the 8 parameters\n\n        Harvest storage harvest_ = harvests[_upc];\n        harvestSKU = harvest_.sku;\n        harvestUPC = harvest_.upc;\n        ownerID = harvest_.ownerID;\n        originBeekeeperID = harvest_.originBeekeeperID;\n        originBeekeeperName = harvest_.originBeekeeperName;\n        originFarmInformation = harvest_.originFarmInformation;\n        originFarmLatitude = harvest_.originFarmLatitude;\n        originFarmLongitude = harvest_.originFarmLongitude;\n        quantity = harvest_.quantity;\n    }\n\n    // Define a function 'fetchItemBufferTwo' that fetches the data\n    function fetchItemBufferTwo(uint _upc) public view returns\n    (\n    uint    harvestSKU,\n    uint    harvestUPC,\n    uint    productID,\n    string  productNotes,\n    uint    productPrice,\n    uint    harvestState,\n    address harvesterID,\n    address shipperID,\n    address buyerID\n    )\n    {\n      // Assign values to the 9 parameters\n        return\n        (\n        harvestSKU,\n        harvestUPC,\n        productID,\n        productNotes,\n        productPrice,\n        harvestState,\n        harvesterID,\n        shipperID,\n        buyerID\n        );\n    }\n\n    // Define a function 'fetchItemBufferOne' that fetches the data\n    function fetchOrder(uint _orderId) public view returns\n    (\n    uint    orderId,\n    uint    harvestUPC,\n    uint    quantity\n    )\n    {\n        Order storage order_ = orders[orderId];\n        orderId = order_.orderId;\n        harvestUPC = order_.upc;\n        quantity = order_.quantity;\n\n        return(\n            orderId,\n            harvestUPC,\n            quantity\n        );\n    }\n\n}\n",
  "sourcePath": "/Users/Tony/Documents/Projects2018/honeyChain/project-6/contracts/honeybase/SupplyChain.sol",
  "compiler": {
    "name": "solc",
    "version": "0.4.24+commit.e67f0147.Emscripten.clang"
  },
  "schemaVersion": "2.0.1",
  "updatedAt": "2019-02-06T19:49:07.645Z"
}