{
  "contractName": "SupplyChain",
  "abi": [
    {
      "inputs": [],
      "payable": true,
      "stateMutability": "payable",
      "type": "constructor"
    },
    {
      "anonymous": false,
      "inputs": [
        {
          "indexed": false,
          "name": "upc",
          "type": "uint256"
        }
      ],
      "name": "Harvested",
      "type": "event"
    },
    {
      "anonymous": false,
      "inputs": [
        {
          "indexed": false,
          "name": "orderId",
          "type": "uint256"
        },
        {
          "indexed": false,
          "name": "quantity",
          "type": "uint256"
        }
      ],
      "name": "PlacedOrder",
      "type": "event"
    },
    {
      "anonymous": false,
      "inputs": [
        {
          "indexed": false,
          "name": "quoteId",
          "type": "uint256"
        }
      ],
      "name": "SentQuote",
      "type": "event"
    },
    {
      "anonymous": false,
      "inputs": [
        {
          "indexed": false,
          "name": "purchaseId",
          "type": "uint256"
        }
      ],
      "name": "Purchased",
      "type": "event"
    },
    {
      "anonymous": false,
      "inputs": [
        {
          "indexed": false,
          "name": "shipmentId",
          "type": "uint256"
        }
      ],
      "name": "Shipped",
      "type": "event"
    },
    {
      "anonymous": false,
      "inputs": [
        {
          "indexed": false,
          "name": "shipmentId",
          "type": "uint256"
        }
      ],
      "name": "Delivered",
      "type": "event"
    },
    {
      "constant": false,
      "inputs": [],
      "name": "kill",
      "outputs": [],
      "payable": false,
      "stateMutability": "nonpayable",
      "type": "function"
    },
    {
      "constant": false,
      "inputs": [
        {
          "name": "_upc",
          "type": "uint256"
        },
        {
          "name": "_originBeekeeperID",
          "type": "address"
        },
        {
          "name": "_originBeekeeperName",
          "type": "string"
        },
        {
          "name": "_originFarmInformation",
          "type": "string"
        },
        {
          "name": "_originFarmLatitude",
          "type": "string"
        },
        {
          "name": "_originFarmLongitude",
          "type": "string"
        },
        {
          "name": "_quantity",
          "type": "uint256"
        },
        {
          "name": "_productNotes",
          "type": "string"
        }
      ],
      "name": "harvestItem",
      "outputs": [],
      "payable": false,
      "stateMutability": "nonpayable",
      "type": "function"
    },
    {
      "constant": false,
      "inputs": [
        {
          "name": "buyerId",
          "type": "address"
        },
        {
          "name": "_upc",
          "type": "uint256"
        },
        {
          "name": "quantity",
          "type": "uint256"
        }
      ],
      "name": "placeOrder",
      "outputs": [],
      "payable": false,
      "stateMutability": "nonpayable",
      "type": "function"
    },
    {
      "constant": false,
      "inputs": [
        {
          "name": "_orderId",
          "type": "uint256"
        },
        {
          "name": "_price",
          "type": "uint256"
        },
        {
          "name": "_shippingCost",
          "type": "uint256"
        },
        {
          "name": "_downPayment",
          "type": "uint256"
        }
      ],
      "name": "sendQuote",
      "outputs": [],
      "payable": false,
      "stateMutability": "nonpayable",
      "type": "function"
    },
    {
      "constant": false,
      "inputs": [
        {
          "name": "_quoteId",
          "type": "uint256"
        }
      ],
      "name": "purchase",
      "outputs": [],
      "payable": false,
      "stateMutability": "nonpayable",
      "type": "function"
    },
    {
      "constant": false,
      "inputs": [
        {
          "name": "_purchaseId",
          "type": "uint256"
        }
      ],
      "name": "ship",
      "outputs": [],
      "payable": false,
      "stateMutability": "nonpayable",
      "type": "function"
    },
    {
      "constant": false,
      "inputs": [
        {
          "name": "_shipmentId",
          "type": "uint256"
        }
      ],
      "name": "deliver",
      "outputs": [],
      "payable": false,
      "stateMutability": "nonpayable",
      "type": "function"
    },
    {
      "constant": true,
      "inputs": [
        {
          "name": "_upc",
          "type": "uint256"
        }
      ],
      "name": "fetchHarvest",
      "outputs": [
        {
          "name": "harvestSKU",
          "type": "uint256"
        },
        {
          "name": "harvestUPC",
          "type": "uint256"
        },
        {
          "name": "harvesterId",
          "type": "address"
        },
        {
          "name": "ownerID",
          "type": "address"
        },
        {
          "name": "originBeekeeperID",
          "type": "address"
        },
        {
          "name": "originBeekeeperName",
          "type": "string"
        },
        {
          "name": "originFarmInformation",
          "type": "string"
        },
        {
          "name": "originFarmLatitude",
          "type": "string"
        },
        {
          "name": "originFarmLongitude",
          "type": "string"
        },
        {
          "name": "quantity",
          "type": "uint256"
        }
      ],
      "payable": false,
      "stateMutability": "view",
      "type": "function"
    },
    {
      "constant": true,
      "inputs": [
        {
          "name": "_upc",
          "type": "uint256"
        }
      ],
      "name": "fetchItemBufferTwo",
      "outputs": [
        {
          "name": "harvestSKU",
          "type": "uint256"
        },
        {
          "name": "harvestUPC",
          "type": "uint256"
        },
        {
          "name": "productID",
          "type": "uint256"
        },
        {
          "name": "productNotes",
          "type": "string"
        },
        {
          "name": "productPrice",
          "type": "uint256"
        },
        {
          "name": "harvestState",
          "type": "uint256"
        },
        {
          "name": "harvesterID",
          "type": "address"
        },
        {
          "name": "shipperID",
          "type": "address"
        },
        {
          "name": "buyerID",
          "type": "address"
        }
      ],
      "payable": false,
      "stateMutability": "view",
      "type": "function"
    },
    {
      "constant": true,
      "inputs": [
        {
          "name": "_orderId",
          "type": "uint256"
        }
      ],
      "name": "fetchOrder",
      "outputs": [
        {
          "name": "orderId",
          "type": "uint256"
        },
        {
          "name": "buyerId",
          "type": "address"
        },
        {
          "name": "harvestUPC",
          "type": "uint256"
        },
        {
          "name": "quantity",
          "type": "uint256"
        }
      ],
      "payable": false,
      "stateMutability": "view",
      "type": "function"
    },
    {
      "constant": true,
      "inputs": [
        {
          "name": "_quoteId",
          "type": "uint256"
        }
      ],
      "name": "fetchQuote",
      "outputs": [
        {
          "name": "quoteId",
          "type": "uint256"
        },
        {
          "name": "orderId",
          "type": "uint256"
        },
        {
          "name": "price",
          "type": "uint256"
        },
        {
          "name": "shippingCost",
          "type": "uint256"
        },
        {
          "name": "downPayment",
          "type": "uint256"
        },
        {
          "name": "date",
          "type": "uint256"
        }
      ],
      "payable": false,
      "stateMutability": "view",
      "type": "function"
    },
    {
      "constant": true,
      "inputs": [
        {
          "name": "_purchaseId",
          "type": "uint256"
        }
      ],
      "name": "fetchPurchase",
      "outputs": [
        {
          "name": "purchaseId",
          "type": "uint256"
        },
        {
          "name": "quoteId",
          "type": "uint256"
        },
        {
          "name": "date",
          "type": "uint256"
        }
      ],
      "payable": false,
      "stateMutability": "view",
      "type": "function"
    },
    {
      "constant": true,
      "inputs": [
        {
          "name": "_shipmentId",
          "type": "uint256"
        }
      ],
      "name": "fetchShipment",
      "outputs": [
        {
          "name": "shipmentId",
          "type": "uint256"
        },
        {
          "name": "shipper",
          "type": "address"
        },
        {
          "name": "purchaseId",
          "type": "uint256"
        },
        {
          "name": "date",
          "type": "uint256"
        },
        {
          "name": "delivered",
          "type": "bool"
        },
        {
          "name": "dateDelivered",
          "type": "uint256"
        }
      ],
      "payable": false,
      "stateMutability": "view",
      "type": "function"
    }
  ],
  "bytecode": "0x6080604052336000806101000a81548173ffffffffffffffffffffffffffffffffffffffff021916908373ffffffffffffffffffffffffffffffffffffffff16021790555060016002819055506001808190555060016003819055506001600481905550600160058190555060016006819055506114fa806100826000396000f3006080604052600436106100c5576000357c0100000000000000000000000000000000000000000000000000000000900463ffffffff1680631b8d56ff146100ca578063244f643b1461014c5780633b8e6eab146101795780633bd5d173146101c457806341c0e1b5146101f1578063642a1f171461020857806366225ff91461026c57806377e16afe146103ce578063946e8fd114610425578063cf2991b014610474578063efef39a114610629578063f020df8214610656578063fa332f65146106ea575b600080fd5b3480156100d657600080fd5b506100f560048036038101908080359060200190929190505050610982565b604051808581526020018473ffffffffffffffffffffffffffffffffffffffff1673ffffffffffffffffffffffffffffffffffffffff16815260200183815260200182815260200194505050505060405180910390f35b34801561015857600080fd5b50610177600480360381019080803590602001909291905050506109e3565b005b34801561018557600080fd5b506101c260048036038101908080359060200190929190803590602001909291908035906020019092919080359060200190929190505050610aa5565b005b3480156101d057600080fd5b506101ef60048036038101908080359060200190929190505050610b42565b005b3480156101fd57600080fd5b50610206610bba565b005b34801561021457600080fd5b5061023360048036038101908080359060200190929190505050610c4b565b60405180878152602001868152602001858152602001848152602001838152602001828152602001965050505050505060405180910390f35b34801561027857600080fd5b5061029760048036038101908080359060200190929190505050610c9f565b604051808a8152602001898152602001888152602001806020018781526020018681526020018573ffffffffffffffffffffffffffffffffffffffff1673ffffffffffffffffffffffffffffffffffffffff1681526020018473ffffffffffffffffffffffffffffffffffffffff1673ffffffffffffffffffffffffffffffffffffffff1681526020018373ffffffffffffffffffffffffffffffffffffffff1673ffffffffffffffffffffffffffffffffffffffff168152602001828103825288818151815260200191508051906020019080838360005b8381101561038b578082015181840152602081019050610370565b50505050905090810190601f1680156103b85780820380516001836020036101000a031916815260200191505b509a505050505050505050505060405180910390f35b3480156103da57600080fd5b50610423600480360381019080803573ffffffffffffffffffffffffffffffffffffffff1690602001909291908035906020019092919080359060200190929190505050610cd6565b005b34801561043157600080fd5b5061045060048036038101908080359060200190929190505050610da4565b60405180848152602001838152602001828152602001935050505060405180910390f35b34801561048057600080fd5b5061062760048036038101908080359060200190929190803573ffffffffffffffffffffffffffffffffffffffff169060200190929190803590602001908201803590602001908080601f0160208091040260200160405190810160405280939291908181526020018383808284378201915050505050509192919290803590602001908201803590602001908080601f0160208091040260200160405190810160405280939291908181526020018383808284378201915050505050509192919290803590602001908201803590602001908080601f0160208091040260200160405190810160405280939291908181526020018383808284378201915050505050509192919290803590602001908201803590602001908080601f016020809104026020016040519081016040528093929190818152602001838380828437820191505050505050919291929080359060200190929190803590602001908201803590602001908080601f0160208091040260200160405190810160405280939291908181526020018383808284378201915050505050509192919290505050610ddc565b005b34801561063557600080fd5b5061065460048036038101908080359060200190929190505050610fef565b005b34801561066257600080fd5b506106816004803603810190808035906020019092919050505061106e565b604051808781526020018673ffffffffffffffffffffffffffffffffffffffff1673ffffffffffffffffffffffffffffffffffffffff16815260200185815260200184815260200183151515158152602001828152602001965050505050505060405180910390f35b3480156106f657600080fd5b50610715600480360381019080803590602001909291905050506110ef565b604051808b81526020018a81526020018973ffffffffffffffffffffffffffffffffffffffff1673ffffffffffffffffffffffffffffffffffffffff1681526020018873ffffffffffffffffffffffffffffffffffffffff1673ffffffffffffffffffffffffffffffffffffffff1681526020018773ffffffffffffffffffffffffffffffffffffffff1673ffffffffffffffffffffffffffffffffffffffff1681526020018060200180602001806020018060200186815260200185810385528a818151815260200191508051906020019080838360005b838110156108095780820151818401526020810190506107ee565b50505050905090810190601f1680156108365780820380516001836020036101000a031916815260200191505b50858103845289818151815260200191508051906020019080838360005b8381101561086f578082015181840152602081019050610854565b50505050905090810190601f16801561089c5780820380516001836020036101000a031916815260200191505b50858103835288818151815260200191508051906020019080838360005b838110156108d55780820151818401526020810190506108ba565b50505050905090810190601f1680156109025780820380516001836020036101000a031916815260200191505b50858103825287818151815260200191508051906020019080838360005b8381101561093b578082015181840152602081019050610920565b50505050905090810190601f1680156109685780820380516001836020036101000a031916815260200191505b509e50505050505050505050505050505060405180910390f35b6000806000806000600860008781526020019081526020016000209050806000015494508060010160009054906101000a900473ffffffffffffffffffffffffffffffffffffffff1693508060020154925080600301549150509193509193565b6000600b6000600654815260200190815260200160002090506006548160000181905550338160010160006101000a81548173ffffffffffffffffffffffffffffffffffffffff021916908373ffffffffffffffffffffffffffffffffffffffff1602179055508181600201819055504281600301819055507ff00b9a5725b80c54016f42114f6ed7792d22eecb116011c4afac29c57bef6c956006546040518082815260200191505060405180910390a16001600654016006819055505050565b6000600960006004548152602001908152602001600020905060045481600001819055508481600101819055508381600201819055508281600301819055508181600401819055504281600501819055507f290738b2ee23b5c98aaed144b2259ba1c7e9feaf4ae53769437fe3c52e05dc036004546040518082815260200191505060405180910390a16001600454016004819055505050505050565b6000600b6000838152602001908152602001600020905060018160040160006101000a81548160ff0219169083151502179055504281600501819055507ffcc296b8bdd64e3f1d1faadef50cb2d6550f645316330fe57cb1dd7e0612ead0826040518082815260200191505060405180910390a15050565b6000809054906101000a900473ffffffffffffffffffffffffffffffffffffffff1673ffffffffffffffffffffffffffffffffffffffff163373ffffffffffffffffffffffffffffffffffffffff161415610c49576000809054906101000a900473ffffffffffffffffffffffffffffffffffffffff1673ffffffffffffffffffffffffffffffffffffffff16ff5b565b60008060008060008060006009600089815260200190815260200160002090508060000154965080600101549550806002015494508060030154935080600401549250806005015491505091939550919395565b6000806000606060008060008060008888888888888888889850985098509850985098509850985098509193959799909294969850565b600060086000600354815260200190815260200160002090506003548160000181905550838160010160006101000a81548173ffffffffffffffffffffffffffffffffffffffff021916908373ffffffffffffffffffffffffffffffffffffffff16021790555060015481600201819055508181600301819055507f9156cebb0781971f996de6c50062a4f014940a06170b5a5101d2ef7e4919531460035483604051808381526020018281526020019250505060405180910390a160016003540160038190555050505050565b600080600080600a60008681526020019081526020016000209050806000015493508060010154925080600201549150509193909250565b6000600760008a81526020019081526020016000209050600254816000018190555060015481600101819055506000809054906101000a900473ffffffffffffffffffffffffffffffffffffffff168160030160006101000a81548173ffffffffffffffffffffffffffffffffffffffff021916908373ffffffffffffffffffffffffffffffffffffffff160217905550878160040160006101000a81548173ffffffffffffffffffffffffffffffffffffffff021916908373ffffffffffffffffffffffffffffffffffffffff16021790555086816005019080519060200190610ec8929190611429565b5085816006019080519060200190610ee1929190611429565b5084816007019080519060200190610efa929190611429565b5083816008019080519060200190610f13929190611429565b508281600901819055508181600b019080519060200190610f35929190611429565b50600081600d0160006101000a81548160ff02191690836006811115610f5757fe5b0217905550338160020160006101000a81548173ffffffffffffffffffffffffffffffffffffffff021916908373ffffffffffffffffffffffffffffffffffffffff1602179055507f8e55ccfc9778ff8eba1646d765cf1982537ce0f9257054a17b48aad7452501836001546040518082815260200191505060405180910390a1600160025401600281905550505050505050505050565b6000600a60006005548152602001908152602001600020905081816001018190555060055481600001819055504281600201819055507f653d56639fee6b566a5c804764e9689de38645f0b733df89a36a1b7b42173dd86005546040518082815260200191505060405180910390a16001600554016005819055505050565b6000806000806000806000600b60008981526020019081526020016000209050806000015496508060010160009054906101000a900473ffffffffffffffffffffffffffffffffffffffff16955080600201549450806003015493508060040160009054906101000a900460ff169250806005015491505091939550919395565b6000806000806000606080606080600080600760008d8152602001908152602001600020905080600001549a50806001015499508060020160009054906101000a900473ffffffffffffffffffffffffffffffffffffffff1698508060030160009054906101000a900473ffffffffffffffffffffffffffffffffffffffff1697508060040160009054906101000a900473ffffffffffffffffffffffffffffffffffffffff169650806005018054600181600116156101000203166002900480601f0160208091040260200160405190810160405280929190818152602001828054600181600116156101000203166002900480156112305780601f1061120557610100808354040283529160200191611230565b820191906000526020600020905b81548152906001019060200180831161121357829003601f168201915b50505050509550806006018054600181600116156101000203166002900480601f0160208091040260200160405190810160405280929190818152602001828054600181600116156101000203166002900480156112cf5780601f106112a4576101008083540402835291602001916112cf565b820191906000526020600020905b8154815290600101906020018083116112b257829003601f168201915b50505050509450806007018054600181600116156101000203166002900480601f01602080910402602001604051908101604052809291908181526020018280546001816001161561010002031660029004801561136e5780601f106113435761010080835404028352916020019161136e565b820191906000526020600020905b81548152906001019060200180831161135157829003601f168201915b50505050509350806008018054600181600116156101000203166002900480601f01602080910402602001604051908101604052809291908181526020018280546001816001161561010002031660029004801561140d5780601f106113e25761010080835404028352916020019161140d565b820191906000526020600020905b8154815290600101906020018083116113f057829003601f168201915b5050505050925080600901549150509193959799509193959799565b828054600181600116156101000203166002900490600052602060002090601f016020900481019282601f1061146a57805160ff1916838001178555611498565b82800160010185558215611498579182015b8281111561149757825182559160200191906001019061147c565b5b5090506114a591906114a9565b5090565b6114cb91905b808211156114c75760008160009055506001016114af565b5090565b905600a165627a7a7230582035d86c80668a556cab6c7c9b71026117ff1a57a00fdca72e861e4f56d90fb64d0029",
  "source": "pragma solidity ^0.4.24;\n// Define a contract 'Supplychain'\ncontract SupplyChain {\n\n    // Define 'owner'\n    address owner;\n\n    // Define a variable called 'upc' for Universal Product Code (UPC)\n    uint  upc;\n\n    // Define a variable called 'sku' for Stock Keeping Unit (SKU)\n    uint  sku;\n\n    uint  orderId;\n\n    uint quoteId;\n\n    uint purchaseId;\n\n    uint shipmentId;\n\n    // Define a public mapping 'harvests' that maps the UPC to a Harvest.\n    mapping (uint => Harvest) harvests;\n\n    // Define a public mapping 'orders' that maps the UPC to an Order.\n    mapping (uint => Order) orders;\n\n    // Define a public mapping 'quotes' that maps the orderId to a quote.\n    mapping (uint => Quote) quotes;\n\n    // Define a public mapping 'purchases' that maps the purchaseId to a purchase.\n    mapping (uint => Purchase) purchases;\n\n     // Define a public mapping 'shipment' that maps the shipmentId to a shipment.\n    mapping (uint => Shipment) shipments;\n\n    // Define a public mapping 'harvestsHistory' that maps the UPC to an array of TxHash,\n    // that track its journey through the supply chain -- to be sent from DApp.\n    mapping (uint => string[]) harvestsHistory;\n\n    // Define enum 'State' with the following values:\n    enum State\n    {\n        Harvested,              // 0\n        PlacedOrder,            // 1\n        SentQuote,              // 2\n        Purchased,     // 3\n        Shipped,          // 4\n        Delivered,         // 5\n        ReleasedPayment         // 6\n    }\n\n    State constant defaultState = State.Harvested;\n\n    // Define a struct 'Item' with the following fields:\n    struct Harvest {\n        uint    sku;  // Stock Keeping Unit (SKU)\n        uint    upc; // Universal Product Code (UPC), generated by the Harvester, goes on the package, can be verified by the Buyer\n        address harvesterId;  // Metamask-Ethereum address of the Harvester\n        address ownerID;  // Metamask-Ethereum address of the current owner as the product moves through 8 stages\n        address originBeekeeperID; // Metamask-Ethereum address of the BeeKeeper\n        string  originBeekeeperName; // BeeKeeper Name\n        string  originFarmInformation;  // BeeKeeper Information\n        string  originFarmLatitude; // Farm Latitude\n        string  originFarmLongitude;  // Farm Longitude\n        uint    quantity; // Quantity in milliliters\n        uint    productID;  // Product ID potentially a combination of upc + sku\n        string  productNotes; // Product Notes\n        uint    productPrice; // Product Price\n        State   harvestState;  // Product State as represented in the enum above\n        address shipperID; // Metamask-Ethereum address of the Shipper\n        address buyerID; // Metamask-Ethereum address of the Buyer\n    }\n\n    struct Order {\n        uint    orderId;\n        address buyerId;\n        uint    upc;\n        uint    quantity;\n    }\n\n    struct Quote {\n        uint    quoteId;\n        uint    orderId;\n        uint    price;\n        uint    shippingCost;\n        uint    downPayment;\n        uint    date;\n    }\n\n    struct Purchase {\n        uint    purchaseId;\n        uint    quoteId;\n        uint    date;\n        uint    shipmentId;\n    }\n\n    struct Shipment {\n        uint    shipmentId;\n        address shipper;\n        uint    purchaseId;\n        uint    date;\n        bool    delivered;\n        uint    dateDelivered;\n    }\n\n    // Define 8 events with the same 8 state values and accept 'upc' as input argument\n    event Harvested(uint upc);\n    event PlacedOrder(uint orderId,uint quantity);\n    event SentQuote(uint quoteId);\n    event Purchased(uint purchaseId);\n    event Shipped(uint shipmentId);\n    event Delivered(uint shipmentId);\n\n    // Define a modifer that checks to see if msg.sender == owner of the contract\n    modifier onlyOwner() {\n        require(msg.sender == owner);\n        _;\n    }\n\n    // Define a modifer that verifies the Caller\n    modifier verifyCaller (address _address) {\n        require(msg.sender == _address);\n        _;\n    }\n\n    // Define a modifier that checks if the paid amount is sufficient to cover the price\n    modifier paidEnough(uint _price) {\n        require(msg.value >= _price);\n        _;\n    }\n\n    // Define a modifier that checks the price and refunds the remaining balance\n    modifier checkValue(uint _upc) {\n        _;\n        uint _price = harvests[_upc].productPrice;\n        uint amountToReturn = msg.value - _price;\n        harvests[_upc].buyerID.transfer(amountToReturn);\n    }\n\n    // Define a modifier that checks if an harvest.state of a upc is Harvested\n    modifier harvested(uint _upc) {\n        require(harvests[_upc].harvestState == State.Harvested);\n        _;\n    }\n\n    // Define a modifier that checks if an harvest.state of a upc is PlacedOrder\n    modifier placedOrder(uint _upc) {\n        require(harvests[_upc].harvestState == State.PlacedOrder);\n        _;\n    }\n\n    // Define a modifier that checks if an harvest.state of a upc is SentQuote\n    modifier sentQuote(uint _upc) {\n        require(harvests[_upc].harvestState == State.SentQuote);\n        _;\n    }\n\n    // Define a modifier that checks if an harvest.state of a upc is Purchased\n    modifier commitedToPurchase(uint _upc) {\n        require(harvests[_upc].harvestState == State.Purchased);\n        _;\n    }\n\n    // Define a modifier that checks if an harvest.state of a upc is Shipped\n    modifier pickedUpHoney(uint _upc) {\n        require(harvests[_upc].harvestState == State.Shipped);\n        _;\n    }\n\n    // Define a modifier that checks if an harvest.state of a upc is Delivered\n    modifier deliveredHoney(uint _upc) {\n        require(harvests[_upc].harvestState == State.Delivered);\n        _;\n    }\n\n    // Define a modifier that checks if an harvest.state of a upc is ReleasedPayment\n    modifier releasedPayment(uint _upc) {\n        require(harvests[_upc].harvestState == State.ReleasedPayment);\n        _;\n    }\n\n    // In the constructor set 'owner' to the address that instantiated the contract\n    // and set 'sku' to 1\n    // and set 'upc' to 1\n    constructor() public payable {\n        owner = msg.sender;\n        sku = 1;\n        upc = 1;\n        orderId = 1;\n        quoteId = 1;\n        purchaseId = 1;\n        shipmentId = 1;\n    }\n\n    // Define a function 'kill' if required\n    function kill() public {\n        if (msg.sender == owner) {\n          selfdestruct(owner);\n        }\n    }\n\n    // Define a function 'harvestItem' that allows a farmer to mark an harvest 'Harvested'\n    function harvestItem(uint _upc, address _originBeekeeperID, string _originBeekeeperName, string _originFarmInformation, string  _originFarmLatitude, string  _originFarmLongitude, uint _quantity, string  _productNotes) public\n    {\n        // Add the new harvest as part of Harvest\n        Harvest storage harvest_ = harvests[_upc];\n        harvest_.sku = sku;\n        harvest_.upc = upc;\n        harvest_.ownerID = owner;\n        harvest_.originBeekeeperID = _originBeekeeperID;\n        harvest_.originBeekeeperName = _originBeekeeperName;\n        harvest_.originFarmInformation = _originFarmInformation;\n        harvest_.originFarmLatitude = _originFarmLatitude;\n        harvest_.originFarmLongitude = _originFarmLongitude;\n        harvest_.quantity = _quantity;\n        harvest_.productNotes = _productNotes;\n        harvest_.harvestState = defaultState;\n        harvest_.harvesterId = msg.sender;\n\n\n        emit Harvested(upc);\n        sku = sku + 1;\n    }\n\n    // Define a function 'processtItem' that allows a farmer to mark an harvest 'Processed'\n    function placeOrder(address buyerId, uint _upc, uint quantity) public\n    // Call modifier to check if upc has passed previous supply chain stage\n\n    // Call modifier to verify caller of this function\n\n    {\n        Order storage order_ = orders[orderId];\n        order_.orderId = orderId;\n        order_.buyerId = buyerId;\n        order_.upc = upc;\n        order_.quantity = quantity;\n\n\n        emit PlacedOrder(orderId, quantity);\n\n        orderId = orderId + 1;\n    }\n\n    // Define a function 'packItem' that allows a farmer to mark an harvest 'Packed'\n    function sendQuote(uint _orderId, uint _price, uint _shippingCost,uint _downPayment) public\n    // Call modifier to check if upc has passed previous supply chain stage\n\n    // Call modifier to verify caller of this function\n\n    {\n        Quote storage quote_ = quotes[quoteId];\n        quote_.quoteId = quoteId;\n        quote_.orderId = _orderId;\n        quote_.price = _price;\n        quote_.shippingCost = _shippingCost;\n        quote_.downPayment = _downPayment;\n        quote_.date = now;\n\n\n        emit SentQuote(quoteId);\n        quoteId = quoteId + 1;\n    }\n\n    // Define a function 'sellItem' that allows a farmer to mark an harvest 'ForSale'\n    function purchase(uint _quoteId) public\n    // Call modifier to check if upc has passed previous supply chain stage\n\n    // Call modifier to verify caller of this function\n\n    {\n\n        Purchase storage purchase_ = purchases[purchaseId];\n        purchase_.quoteId = _quoteId;\n        purchase_.purchaseId = purchaseId;\n        purchase_.date = now;\n\n        emit Purchased(purchaseId);\n        purchaseId = purchaseId + 1;\n    }\n\n    // Define a function 'ship' that allows the harvester to mark an harvest 'Shipped'\n    // Use the above modifers to check if the harvest is sold\n    function ship(uint _purchaseId) public\n      // Call modifier to check if upc has passed previous supply chain stage\n\n      // Call modifier to verify caller of this function\n\n    {\n        Shipment storage shipment_ = shipments[shipmentId];\n        shipment_.shipmentId = shipmentId;\n        shipment_.shipper = msg.sender;\n        shipment_.purchaseId = _purchaseId;\n        shipment_.date = now;\n\n        emit Shipped(shipmentId);\n        shipmentId = shipmentId + 1;\n\n    }\n\n    // Define a function 'receiveItem' that allows the shipper to mark an harvest 'Received'\n    // Use the above modifiers to check if the harvest is shipped\n    function deliver(uint _shipmentId) public\n    // Call modifier to check if upc has passed previous supply chain stage\n\n    // Access Control List enforced by calling Smart Contract / DApp\n    {\n        Shipment storage shipment_ = shipments[_shipmentId];\n        shipment_.delivered = true;\n        shipment_.dateDelivered = now;\n\n        emit Delivered(_shipmentId);\n    }\n\n\n    // Define a function 'fetchHarvest' that fetches the data\n    function fetchHarvest(uint _upc) public view returns\n    (\n    uint    harvestSKU,\n    uint    harvestUPC,\n    address harvesterId,\n    address ownerID,\n    address originBeekeeperID,\n    string  originBeekeeperName,\n    string  originFarmInformation,\n    string  originFarmLatitude,\n    string  originFarmLongitude,\n    uint    quantity\n    )\n    {\n      // Assign values to the 8 parameters\n\n        Harvest storage harvest_ = harvests[_upc];\n        harvestSKU = harvest_.sku;\n        harvestUPC = harvest_.upc;\n        harvesterId = harvest_.harvesterId;\n        ownerID = harvest_.ownerID;\n        originBeekeeperID = harvest_.originBeekeeperID;\n        originBeekeeperName = harvest_.originBeekeeperName;\n        originFarmInformation = harvest_.originFarmInformation;\n        originFarmLatitude = harvest_.originFarmLatitude;\n        originFarmLongitude = harvest_.originFarmLongitude;\n        quantity = harvest_.quantity;\n    }\n\n    // Define a function 'fetchItemBufferTwo' that fetches the data\n    function fetchItemBufferTwo(uint _upc) public view returns\n    (\n    uint    harvestSKU,\n    uint    harvestUPC,\n    uint    productID,\n    string  productNotes,\n    uint    productPrice,\n    uint    harvestState,\n    address harvesterID,\n    address shipperID,\n    address buyerID\n    )\n    {\n      // Assign values to the 9 parameters\n        return\n        (\n        harvestSKU,\n        harvestUPC,\n        productID,\n        productNotes,\n        productPrice,\n        harvestState,\n        harvesterID,\n        shipperID,\n        buyerID\n        );\n    }\n\n    // Define a function 'fetchHarvest' that fetches the data\n    function fetchOrder(uint _orderId) public view returns\n    (\n    uint    orderId,\n    address buyerId,\n    uint    harvestUPC,\n    uint    quantity\n    )\n    {\n        Order storage order_ = orders[_orderId];\n        orderId = order_.orderId;\n        buyerId = order_.buyerId;\n        harvestUPC = order_.upc;\n        quantity = order_.quantity;\n    }\n\n    // Define a function 'fetchHarvest' that fetches the data\n    function fetchQuote(uint _quoteId) public view returns\n    (\n    uint    quoteId,\n    uint    orderId,\n    uint    price,\n    uint    shippingCost,\n    uint    downPayment,\n    uint    date\n    )\n    {\n        Quote storage quote_ = quotes[_quoteId];\n        quoteId = quote_.quoteId;\n        orderId = quote_.orderId;\n        price = quote_.price;\n        shippingCost = quote_.shippingCost;\n        downPayment = quote_.downPayment;\n        date = quote_.date;\n    }\n\n    function fetchPurchase(uint _purchaseId) public view returns\n    (\n    uint    purchaseId,\n    uint    quoteId,\n    uint    date\n    )\n    {\n        Purchase storage purchase_ = purchases[_purchaseId];\n        purchaseId = purchase_.purchaseId;\n        quoteId = purchase_.quoteId;\n        date = purchase_.date;\n    }\n\n    function fetchShipment(uint _shipmentId) public view returns\n    (\n    uint    shipmentId,\n    address shipper,\n    uint    purchaseId,\n    uint    date,\n    bool    delivered,\n    uint    dateDelivered\n    )\n    {\n        Shipment storage shipment_ = shipments[_shipmentId];\n        shipmentId = shipment_.shipmentId;\n        shipper = shipment_.shipper;\n        purchaseId = shipment_.purchaseId;\n        date = shipment_.date;\n        delivered = shipment_.delivered;\n        dateDelivered = shipment_.dateDelivered;\n    }\n}\n",
  "sourcePath": "/Users/Tony/Documents/Projects2018/honeyChain/project-6/contracts/honeybase/SupplyChain.sol",
  "compiler": {
    "name": "solc",
    "version": "0.4.24+commit.e67f0147.Emscripten.clang"
  },
  "schemaVersion": "2.0.1",
  "updatedAt": "2019-02-09T05:25:42.115Z"
}